{
    "contractName": "ContractDB",
    "abi": [
        {
            "inputs": [],
            "stateMutability": "nonpayable",
            "type": "constructor"
        },
        {
            "anonymous": false,
            "inputs": [
                {
                    "indexed": false,
                    "internalType": "bool",
                    "name": "success",
                    "type": "bool"
                },
                {
                    "indexed": false,
                    "internalType": "uint256",
                    "name": "result",
                    "type": "uint256"
                }
            ],
            "name": "TestGas2MultiResult",
            "type": "event"
        },
        {
            "anonymous": false,
            "inputs": [
                {
                    "indexed": false,
                    "internalType": "bool",
                    "name": "success",
                    "type": "bool"
                },
                {
                    "indexed": false,
                    "internalType": "uint256",
                    "name": "result",
                    "type": "uint256"
                }
            ],
            "name": "TestGas2Result",
            "type": "event"
        },
        {
            "inputs": [],
            "name": "TestGas0",
            "outputs": [
                {
                    "internalType": "bool",
                    "name": "",
                    "type": "bool"
                },
                {
                    "internalType": "uint256",
                    "name": "",
                    "type": "uint256"
                }
            ],
            "stateMutability": "nonpayable",
            "type": "function"
        },
        {
            "inputs": [],
            "name": "TestGas0Multi",
            "outputs": [
                {
                    "internalType": "bool",
                    "name": "",
                    "type": "bool"
                },
                {
                    "internalType": "uint256",
                    "name": "",
                    "type": "uint256"
                }
            ],
            "stateMutability": "nonpayable",
            "type": "function"
        },
        {
            "inputs": [
                {
                    "components": [
                        {
                            "internalType": "uint8[]",
                            "name": "eind",
                            "type": "uint8[]"
                        },
                        {
                            "internalType": "uint8[]",
                            "name": "rind",
                            "type": "uint8[]"
                        },
                        {
                            "internalType": "uint8[]",
                            "name": "rtype",
                            "type": "uint8[]"
                        },
                        {
                            "internalType": "uint64[]",
                            "name": "eval",
                            "type": "uint64[]"
                        },
                        {
                            "internalType": "uint64[]",
                            "name": "rval",
                            "type": "uint64[]"
                        }
                    ],
                    "internalType": "struct ContractDB.Query",
                    "name": "q",
                    "type": "tuple"
                },
                {
                    "components": [
                        {
                            "internalType": "uint256",
                            "name": "sum",
                            "type": "uint256"
                        },
                        {
                            "internalType": "uint256",
                            "name": "a0",
                            "type": "uint256"
                        },
                        {
                            "internalType": "uint256",
                            "name": "a1",
                            "type": "uint256"
                        },
                        {
                            "internalType": "uint256",
                            "name": "a0inv",
                            "type": "uint256"
                        },
                        {
                            "components": [
                                {
                                    "internalType": "uint256",
                                    "name": "X",
                                    "type": "uint256"
                                },
                                {
                                    "internalType": "uint256",
                                    "name": "Y",
                                    "type": "uint256"
                                }
                            ],
                            "internalType": "struct ContractDB.G1Point",
                            "name": "fR",
                            "type": "tuple"
                        },
                        {
                            "components": [
                                {
                                    "internalType": "uint256",
                                    "name": "X",
                                    "type": "uint256"
                                },
                                {
                                    "internalType": "uint256",
                                    "name": "Y",
                                    "type": "uint256"
                                }
                            ],
                            "internalType": "struct ContractDB.G1Point",
                            "name": "w1",
                            "type": "tuple"
                        },
                        {
                            "components": [
                                {
                                    "internalType": "uint256",
                                    "name": "X",
                                    "type": "uint256"
                                },
                                {
                                    "internalType": "uint256",
                                    "name": "Y",
                                    "type": "uint256"
                                }
                            ],
                            "internalType": "struct ContractDB.G1Point",
                            "name": "w2",
                            "type": "tuple"
                        },
                        {
                            "components": [
                                {
                                    "internalType": "uint64",
                                    "name": "key",
                                    "type": "uint64"
                                },
                                {
                                    "internalType": "uint64",
                                    "name": "nxt",
                                    "type": "uint64"
                                },
                                {
                                    "components": [
                                        {
                                            "internalType": "uint256",
                                            "name": "X",
                                            "type": "uint256"
                                        },
                                        {
                                            "internalType": "uint256",
                                            "name": "Y",
                                            "type": "uint256"
                                        }
                                    ],
                                    "internalType": "struct ContractDB.G1Point",
                                    "name": "value",
                                    "type": "tuple"
                                }
                            ],
                            "internalType": "struct ContractDB.DicItemE[]",
                            "name": "itemE",
                            "type": "tuple[]"
                        },
                        {
                            "components": [
                                {
                                    "internalType": "uint64",
                                    "name": "key",
                                    "type": "uint64"
                                },
                                {
                                    "internalType": "uint64",
                                    "name": "nxt",
                                    "type": "uint64"
                                },
                                {
                                    "components": [
                                        {
                                            "internalType": "uint256[2]",
                                            "name": "X",
                                            "type": "uint256[2]"
                                        },
                                        {
                                            "internalType": "uint256[2]",
                                            "name": "Y",
                                            "type": "uint256[2]"
                                        }
                                    ],
                                    "internalType": "struct ContractDB.G2Point",
                                    "name": "value",
                                    "type": "tuple"
                                }
                            ],
                            "internalType": "struct ContractDB.DicItemR[]",
                            "name": "itemR",
                            "type": "tuple[]"
                        },
                        {
                            "internalType": "uint256[]",
                            "name": "itemInv",
                            "type": "uint256[]"
                        },
                        {
                            "components": [
                                {
                                    "internalType": "uint256[2]",
                                    "name": "X",
                                    "type": "uint256[2]"
                                },
                                {
                                    "internalType": "uint256[2]",
                                    "name": "Y",
                                    "type": "uint256[2]"
                                }
                            ],
                            "internalType": "struct ContractDB.G2Point[]",
                            "name": "itemWit",
                            "type": "tuple[]"
                        },
                        {
                            "components": [
                                {
                                    "internalType": "uint256",
                                    "name": "X",
                                    "type": "uint256"
                                },
                                {
                                    "internalType": "uint256",
                                    "name": "Y",
                                    "type": "uint256"
                                }
                            ],
                            "internalType": "struct ContractDB.G1Point[]",
                            "name": "iset",
                            "type": "tuple[]"
                        },
                        {
                            "components": [
                                {
                                    "internalType": "uint256",
                                    "name": "X",
                                    "type": "uint256"
                                },
                                {
                                    "internalType": "uint256",
                                    "name": "Y",
                                    "type": "uint256"
                                }
                            ],
                            "internalType": "struct ContractDB.G1Point[]",
                            "name": "igcd",
                            "type": "tuple[]"
                        },
                        {
                            "components": [
                                {
                                    "internalType": "uint256[2]",
                                    "name": "X",
                                    "type": "uint256[2]"
                                },
                                {
                                    "internalType": "uint256[2]",
                                    "name": "Y",
                                    "type": "uint256[2]"
                                }
                            ],
                            "internalType": "struct ContractDB.G2Point[]",
                            "name": "iwit",
                            "type": "tuple[]"
                        }
                    ],
                    "internalType": "struct ContractDB.VerifySumParam",
                    "name": "param",
                    "type": "tuple"
                }
            ],
            "name": "TestGas1",
            "outputs": [
                {
                    "internalType": "bool",
                    "name": "",
                    "type": "bool"
                },
                {
                    "internalType": "uint256",
                    "name": "",
                    "type": "uint256"
                }
            ],
            "stateMutability": "nonpayable",
            "type": "function"
        },
        {
            "inputs": [
                {
                    "components": [
                        {
                            "internalType": "uint8",
                            "name": "index",
                            "type": "uint8"
                        },
                        {
                            "internalType": "uint8[]",
                            "name": "rtype",
                            "type": "uint8[]"
                        },
                        {
                            "internalType": "uint64[]",
                            "name": "eval",
                            "type": "uint64[]"
                        },
                        {
                            "internalType": "uint64[]",
                            "name": "rval",
                            "type": "uint64[]"
                        }
                    ],
                    "internalType": "struct ContractDB.QueryMulti",
                    "name": "q",
                    "type": "tuple"
                },
                {
                    "components": [
                        {
                            "internalType": "uint256",
                            "name": "sum",
                            "type": "uint256"
                        },
                        {
                            "internalType": "uint256",
                            "name": "a0",
                            "type": "uint256"
                        },
                        {
                            "internalType": "uint256",
                            "name": "a1",
                            "type": "uint256"
                        },
                        {
                            "internalType": "uint256",
                            "name": "a0inv",
                            "type": "uint256"
                        },
                        {
                            "components": [
                                {
                                    "internalType": "uint256",
                                    "name": "X",
                                    "type": "uint256"
                                },
                                {
                                    "internalType": "uint256",
                                    "name": "Y",
                                    "type": "uint256"
                                }
                            ],
                            "internalType": "struct ContractDB.G1Point",
                            "name": "fR",
                            "type": "tuple"
                        },
                        {
                            "components": [
                                {
                                    "internalType": "uint256",
                                    "name": "X",
                                    "type": "uint256"
                                },
                                {
                                    "internalType": "uint256",
                                    "name": "Y",
                                    "type": "uint256"
                                }
                            ],
                            "internalType": "struct ContractDB.G1Point",
                            "name": "w1",
                            "type": "tuple"
                        },
                        {
                            "components": [
                                {
                                    "internalType": "uint256",
                                    "name": "X",
                                    "type": "uint256"
                                },
                                {
                                    "internalType": "uint256",
                                    "name": "Y",
                                    "type": "uint256"
                                }
                            ],
                            "internalType": "struct ContractDB.G1Point",
                            "name": "w2",
                            "type": "tuple"
                        },
                        {
                            "components": [
                                {
                                    "internalType": "uint64",
                                    "name": "key",
                                    "type": "uint64"
                                },
                                {
                                    "internalType": "uint64",
                                    "name": "nxt",
                                    "type": "uint64"
                                },
                                {
                                    "components": [
                                        {
                                            "internalType": "uint256",
                                            "name": "X",
                                            "type": "uint256"
                                        },
                                        {
                                            "internalType": "uint256",
                                            "name": "Y",
                                            "type": "uint256"
                                        }
                                    ],
                                    "internalType": "struct ContractDB.G1Point",
                                    "name": "value",
                                    "type": "tuple"
                                }
                            ],
                            "internalType": "struct ContractDB.DicItemE[]",
                            "name": "itemE",
                            "type": "tuple[]"
                        },
                        {
                            "components": [
                                {
                                    "internalType": "uint64",
                                    "name": "key",
                                    "type": "uint64"
                                },
                                {
                                    "internalType": "uint64",
                                    "name": "nxt",
                                    "type": "uint64"
                                },
                                {
                                    "components": [
                                        {
                                            "internalType": "uint256[2]",
                                            "name": "X",
                                            "type": "uint256[2]"
                                        },
                                        {
                                            "internalType": "uint256[2]",
                                            "name": "Y",
                                            "type": "uint256[2]"
                                        }
                                    ],
                                    "internalType": "struct ContractDB.G2Point",
                                    "name": "value",
                                    "type": "tuple"
                                }
                            ],
                            "internalType": "struct ContractDB.DicItemR[]",
                            "name": "itemR",
                            "type": "tuple[]"
                        },
                        {
                            "internalType": "uint256[]",
                            "name": "itemInv",
                            "type": "uint256[]"
                        },
                        {
                            "components": [
                                {
                                    "internalType": "uint256[2]",
                                    "name": "X",
                                    "type": "uint256[2]"
                                },
                                {
                                    "internalType": "uint256[2]",
                                    "name": "Y",
                                    "type": "uint256[2]"
                                }
                            ],
                            "internalType": "struct ContractDB.G2Point[]",
                            "name": "itemWit",
                            "type": "tuple[]"
                        },
                        {
                            "components": [
                                {
                                    "internalType": "uint256",
                                    "name": "X",
                                    "type": "uint256"
                                },
                                {
                                    "internalType": "uint256",
                                    "name": "Y",
                                    "type": "uint256"
                                }
                            ],
                            "internalType": "struct ContractDB.G1Point[]",
                            "name": "iset",
                            "type": "tuple[]"
                        },
                        {
                            "components": [
                                {
                                    "internalType": "uint256",
                                    "name": "X",
                                    "type": "uint256"
                                },
                                {
                                    "internalType": "uint256",
                                    "name": "Y",
                                    "type": "uint256"
                                }
                            ],
                            "internalType": "struct ContractDB.G1Point[]",
                            "name": "igcd",
                            "type": "tuple[]"
                        },
                        {
                            "components": [
                                {
                                    "internalType": "uint256[2]",
                                    "name": "X",
                                    "type": "uint256[2]"
                                },
                                {
                                    "internalType": "uint256[2]",
                                    "name": "Y",
                                    "type": "uint256[2]"
                                }
                            ],
                            "internalType": "struct ContractDB.G2Point[]",
                            "name": "iwit",
                            "type": "tuple[]"
                        }
                    ],
                    "internalType": "struct ContractDB.VerifySumParam",
                    "name": "param",
                    "type": "tuple"
                }
            ],
            "name": "TestGas1Multi",
            "outputs": [
                {
                    "internalType": "bool",
                    "name": "",
                    "type": "bool"
                },
                {
                    "internalType": "uint256",
                    "name": "",
                    "type": "uint256"
                }
            ],
            "stateMutability": "nonpayable",
            "type": "function"
        },
        {
            "inputs": [
                {
                    "components": [
                        {
                            "internalType": "uint8[]",
                            "name": "eind",
                            "type": "uint8[]"
                        },
                        {
                            "internalType": "uint8[]",
                            "name": "rind",
                            "type": "uint8[]"
                        },
                        {
                            "internalType": "uint8[]",
                            "name": "rtype",
                            "type": "uint8[]"
                        },
                        {
                            "internalType": "uint64[]",
                            "name": "eval",
                            "type": "uint64[]"
                        },
                        {
                            "internalType": "uint64[]",
                            "name": "rval",
                            "type": "uint64[]"
                        }
                    ],
                    "internalType": "struct ContractDB.Query",
                    "name": "q",
                    "type": "tuple"
                },
                {
                    "components": [
                        {
                            "internalType": "uint256",
                            "name": "sum",
                            "type": "uint256"
                        },
                        {
                            "internalType": "uint256",
                            "name": "a0",
                            "type": "uint256"
                        },
                        {
                            "internalType": "uint256",
                            "name": "a1",
                            "type": "uint256"
                        },
                        {
                            "internalType": "uint256",
                            "name": "a0inv",
                            "type": "uint256"
                        },
                        {
                            "components": [
                                {
                                    "internalType": "uint256",
                                    "name": "X",
                                    "type": "uint256"
                                },
                                {
                                    "internalType": "uint256",
                                    "name": "Y",
                                    "type": "uint256"
                                }
                            ],
                            "internalType": "struct ContractDB.G1Point",
                            "name": "fR",
                            "type": "tuple"
                        },
                        {
                            "components": [
                                {
                                    "internalType": "uint256",
                                    "name": "X",
                                    "type": "uint256"
                                },
                                {
                                    "internalType": "uint256",
                                    "name": "Y",
                                    "type": "uint256"
                                }
                            ],
                            "internalType": "struct ContractDB.G1Point",
                            "name": "w1",
                            "type": "tuple"
                        },
                        {
                            "components": [
                                {
                                    "internalType": "uint256",
                                    "name": "X",
                                    "type": "uint256"
                                },
                                {
                                    "internalType": "uint256",
                                    "name": "Y",
                                    "type": "uint256"
                                }
                            ],
                            "internalType": "struct ContractDB.G1Point",
                            "name": "w2",
                            "type": "tuple"
                        },
                        {
                            "components": [
                                {
                                    "internalType": "uint64",
                                    "name": "key",
                                    "type": "uint64"
                                },
                                {
                                    "internalType": "uint64",
                                    "name": "nxt",
                                    "type": "uint64"
                                },
                                {
                                    "components": [
                                        {
                                            "internalType": "uint256",
                                            "name": "X",
                                            "type": "uint256"
                                        },
                                        {
                                            "internalType": "uint256",
                                            "name": "Y",
                                            "type": "uint256"
                                        }
                                    ],
                                    "internalType": "struct ContractDB.G1Point",
                                    "name": "value",
                                    "type": "tuple"
                                }
                            ],
                            "internalType": "struct ContractDB.DicItemE[]",
                            "name": "itemE",
                            "type": "tuple[]"
                        },
                        {
                            "components": [
                                {
                                    "internalType": "uint64",
                                    "name": "key",
                                    "type": "uint64"
                                },
                                {
                                    "internalType": "uint64",
                                    "name": "nxt",
                                    "type": "uint64"
                                },
                                {
                                    "components": [
                                        {
                                            "internalType": "uint256[2]",
                                            "name": "X",
                                            "type": "uint256[2]"
                                        },
                                        {
                                            "internalType": "uint256[2]",
                                            "name": "Y",
                                            "type": "uint256[2]"
                                        }
                                    ],
                                    "internalType": "struct ContractDB.G2Point",
                                    "name": "value",
                                    "type": "tuple"
                                }
                            ],
                            "internalType": "struct ContractDB.DicItemR[]",
                            "name": "itemR",
                            "type": "tuple[]"
                        },
                        {
                            "internalType": "uint256[]",
                            "name": "itemInv",
                            "type": "uint256[]"
                        },
                        {
                            "components": [
                                {
                                    "internalType": "uint256[2]",
                                    "name": "X",
                                    "type": "uint256[2]"
                                },
                                {
                                    "internalType": "uint256[2]",
                                    "name": "Y",
                                    "type": "uint256[2]"
                                }
                            ],
                            "internalType": "struct ContractDB.G2Point[]",
                            "name": "itemWit",
                            "type": "tuple[]"
                        },
                        {
                            "components": [
                                {
                                    "internalType": "uint256",
                                    "name": "X",
                                    "type": "uint256"
                                },
                                {
                                    "internalType": "uint256",
                                    "name": "Y",
                                    "type": "uint256"
                                }
                            ],
                            "internalType": "struct ContractDB.G1Point[]",
                            "name": "iset",
                            "type": "tuple[]"
                        },
                        {
                            "components": [
                                {
                                    "internalType": "uint256",
                                    "name": "X",
                                    "type": "uint256"
                                },
                                {
                                    "internalType": "uint256",
                                    "name": "Y",
                                    "type": "uint256"
                                }
                            ],
                            "internalType": "struct ContractDB.G1Point[]",
                            "name": "igcd",
                            "type": "tuple[]"
                        },
                        {
                            "components": [
                                {
                                    "internalType": "uint256[2]",
                                    "name": "X",
                                    "type": "uint256[2]"
                                },
                                {
                                    "internalType": "uint256[2]",
                                    "name": "Y",
                                    "type": "uint256[2]"
                                }
                            ],
                            "internalType": "struct ContractDB.G2Point[]",
                            "name": "iwit",
                            "type": "tuple[]"
                        }
                    ],
                    "internalType": "struct ContractDB.VerifySumParam",
                    "name": "param",
                    "type": "tuple"
                }
            ],
            "name": "TestGas2",
            "outputs": [
                {
                    "internalType": "bool",
                    "name": "ver",
                    "type": "bool"
                },
                {
                    "internalType": "uint256",
                    "name": "flag",
                    "type": "uint256"
                }
            ],
            "stateMutability": "nonpayable",
            "type": "function"
        },
        {
            "inputs": [
                {
                    "components": [
                        {
                            "internalType": "uint8",
                            "name": "index",
                            "type": "uint8"
                        },
                        {
                            "internalType": "uint8[]",
                            "name": "rtype",
                            "type": "uint8[]"
                        },
                        {
                            "internalType": "uint64[]",
                            "name": "eval",
                            "type": "uint64[]"
                        },
                        {
                            "internalType": "uint64[]",
                            "name": "rval",
                            "type": "uint64[]"
                        }
                    ],
                    "internalType": "struct ContractDB.QueryMulti",
                    "name": "q",
                    "type": "tuple"
                },
                {
                    "components": [
                        {
                            "internalType": "uint256",
                            "name": "sum",
                            "type": "uint256"
                        },
                        {
                            "internalType": "uint256",
                            "name": "a0",
                            "type": "uint256"
                        },
                        {
                            "internalType": "uint256",
                            "name": "a1",
                            "type": "uint256"
                        },
                        {
                            "internalType": "uint256",
                            "name": "a0inv",
                            "type": "uint256"
                        },
                        {
                            "components": [
                                {
                                    "internalType": "uint256",
                                    "name": "X",
                                    "type": "uint256"
                                },
                                {
                                    "internalType": "uint256",
                                    "name": "Y",
                                    "type": "uint256"
                                }
                            ],
                            "internalType": "struct ContractDB.G1Point",
                            "name": "fR",
                            "type": "tuple"
                        },
                        {
                            "components": [
                                {
                                    "internalType": "uint256",
                                    "name": "X",
                                    "type": "uint256"
                                },
                                {
                                    "internalType": "uint256",
                                    "name": "Y",
                                    "type": "uint256"
                                }
                            ],
                            "internalType": "struct ContractDB.G1Point",
                            "name": "w1",
                            "type": "tuple"
                        },
                        {
                            "components": [
                                {
                                    "internalType": "uint256",
                                    "name": "X",
                                    "type": "uint256"
                                },
                                {
                                    "internalType": "uint256",
                                    "name": "Y",
                                    "type": "uint256"
                                }
                            ],
                            "internalType": "struct ContractDB.G1Point",
                            "name": "w2",
                            "type": "tuple"
                        },
                        {
                            "components": [
                                {
                                    "internalType": "uint64",
                                    "name": "key",
                                    "type": "uint64"
                                },
                                {
                                    "internalType": "uint64",
                                    "name": "nxt",
                                    "type": "uint64"
                                },
                                {
                                    "components": [
                                        {
                                            "internalType": "uint256",
                                            "name": "X",
                                            "type": "uint256"
                                        },
                                        {
                                            "internalType": "uint256",
                                            "name": "Y",
                                            "type": "uint256"
                                        }
                                    ],
                                    "internalType": "struct ContractDB.G1Point",
                                    "name": "value",
                                    "type": "tuple"
                                }
                            ],
                            "internalType": "struct ContractDB.DicItemE[]",
                            "name": "itemE",
                            "type": "tuple[]"
                        },
                        {
                            "components": [
                                {
                                    "internalType": "uint64",
                                    "name": "key",
                                    "type": "uint64"
                                },
                                {
                                    "internalType": "uint64",
                                    "name": "nxt",
                                    "type": "uint64"
                                },
                                {
                                    "components": [
                                        {
                                            "internalType": "uint256[2]",
                                            "name": "X",
                                            "type": "uint256[2]"
                                        },
                                        {
                                            "internalType": "uint256[2]",
                                            "name": "Y",
                                            "type": "uint256[2]"
                                        }
                                    ],
                                    "internalType": "struct ContractDB.G2Point",
                                    "name": "value",
                                    "type": "tuple"
                                }
                            ],
                            "internalType": "struct ContractDB.DicItemR[]",
                            "name": "itemR",
                            "type": "tuple[]"
                        },
                        {
                            "internalType": "uint256[]",
                            "name": "itemInv",
                            "type": "uint256[]"
                        },
                        {
                            "components": [
                                {
                                    "internalType": "uint256[2]",
                                    "name": "X",
                                    "type": "uint256[2]"
                                },
                                {
                                    "internalType": "uint256[2]",
                                    "name": "Y",
                                    "type": "uint256[2]"
                                }
                            ],
                            "internalType": "struct ContractDB.G2Point[]",
                            "name": "itemWit",
                            "type": "tuple[]"
                        },
                        {
                            "components": [
                                {
                                    "internalType": "uint256",
                                    "name": "X",
                                    "type": "uint256"
                                },
                                {
                                    "internalType": "uint256",
                                    "name": "Y",
                                    "type": "uint256"
                                }
                            ],
                            "internalType": "struct ContractDB.G1Point[]",
                            "name": "iset",
                            "type": "tuple[]"
                        },
                        {
                            "components": [
                                {
                                    "internalType": "uint256",
                                    "name": "X",
                                    "type": "uint256"
                                },
                                {
                                    "internalType": "uint256",
                                    "name": "Y",
                                    "type": "uint256"
                                }
                            ],
                            "internalType": "struct ContractDB.G1Point[]",
                            "name": "igcd",
                            "type": "tuple[]"
                        },
                        {
                            "components": [
                                {
                                    "internalType": "uint256[2]",
                                    "name": "X",
                                    "type": "uint256[2]"
                                },
                                {
                                    "internalType": "uint256[2]",
                                    "name": "Y",
                                    "type": "uint256[2]"
                                }
                            ],
                            "internalType": "struct ContractDB.G2Point[]",
                            "name": "iwit",
                            "type": "tuple[]"
                        }
                    ],
                    "internalType": "struct ContractDB.VerifySumParam",
                    "name": "param",
                    "type": "tuple"
                }
            ],
            "name": "TestGas2Multi",
            "outputs": [
                {
                    "internalType": "bool",
                    "name": "ver",
                    "type": "bool"
                },
                {
                    "internalType": "uint256",
                    "name": "flag",
                    "type": "uint256"
                }
            ],
            "stateMutability": "nonpayable",
            "type": "function"
        },
        {
            "inputs": [
                {
                    "components": [
                        {
                            "internalType": "uint8[]",
                            "name": "eind",
                            "type": "uint8[]"
                        },
                        {
                            "internalType": "uint8[]",
                            "name": "rind",
                            "type": "uint8[]"
                        },
                        {
                            "internalType": "uint8[]",
                            "name": "rtype",
                            "type": "uint8[]"
                        },
                        {
                            "internalType": "uint64[]",
                            "name": "eval",
                            "type": "uint64[]"
                        },
                        {
                            "internalType": "uint64[]",
                            "name": "rval",
                            "type": "uint64[]"
                        }
                    ],
                    "internalType": "struct ContractDB.Query",
                    "name": "q",
                    "type": "tuple"
                },
                {
                    "components": [
                        {
                            "internalType": "uint256",
                            "name": "sum",
                            "type": "uint256"
                        },
                        {
                            "internalType": "uint256",
                            "name": "a0",
                            "type": "uint256"
                        },
                        {
                            "internalType": "uint256",
                            "name": "a1",
                            "type": "uint256"
                        },
                        {
                            "internalType": "uint256",
                            "name": "a0inv",
                            "type": "uint256"
                        },
                        {
                            "components": [
                                {
                                    "internalType": "uint256",
                                    "name": "X",
                                    "type": "uint256"
                                },
                                {
                                    "internalType": "uint256",
                                    "name": "Y",
                                    "type": "uint256"
                                }
                            ],
                            "internalType": "struct ContractDB.G1Point",
                            "name": "fR",
                            "type": "tuple"
                        },
                        {
                            "components": [
                                {
                                    "internalType": "uint256",
                                    "name": "X",
                                    "type": "uint256"
                                },
                                {
                                    "internalType": "uint256",
                                    "name": "Y",
                                    "type": "uint256"
                                }
                            ],
                            "internalType": "struct ContractDB.G1Point",
                            "name": "w1",
                            "type": "tuple"
                        },
                        {
                            "components": [
                                {
                                    "internalType": "uint256",
                                    "name": "X",
                                    "type": "uint256"
                                },
                                {
                                    "internalType": "uint256",
                                    "name": "Y",
                                    "type": "uint256"
                                }
                            ],
                            "internalType": "struct ContractDB.G1Point",
                            "name": "w2",
                            "type": "tuple"
                        },
                        {
                            "components": [
                                {
                                    "internalType": "uint64",
                                    "name": "key",
                                    "type": "uint64"
                                },
                                {
                                    "internalType": "uint64",
                                    "name": "nxt",
                                    "type": "uint64"
                                },
                                {
                                    "components": [
                                        {
                                            "internalType": "uint256",
                                            "name": "X",
                                            "type": "uint256"
                                        },
                                        {
                                            "internalType": "uint256",
                                            "name": "Y",
                                            "type": "uint256"
                                        }
                                    ],
                                    "internalType": "struct ContractDB.G1Point",
                                    "name": "value",
                                    "type": "tuple"
                                }
                            ],
                            "internalType": "struct ContractDB.DicItemE[]",
                            "name": "itemE",
                            "type": "tuple[]"
                        },
                        {
                            "components": [
                                {
                                    "internalType": "uint64",
                                    "name": "key",
                                    "type": "uint64"
                                },
                                {
                                    "internalType": "uint64",
                                    "name": "nxt",
                                    "type": "uint64"
                                },
                                {
                                    "components": [
                                        {
                                            "internalType": "uint256[2]",
                                            "name": "X",
                                            "type": "uint256[2]"
                                        },
                                        {
                                            "internalType": "uint256[2]",
                                            "name": "Y",
                                            "type": "uint256[2]"
                                        }
                                    ],
                                    "internalType": "struct ContractDB.G2Point",
                                    "name": "value",
                                    "type": "tuple"
                                }
                            ],
                            "internalType": "struct ContractDB.DicItemR[]",
                            "name": "itemR",
                            "type": "tuple[]"
                        },
                        {
                            "internalType": "uint256[]",
                            "name": "itemInv",
                            "type": "uint256[]"
                        },
                        {
                            "components": [
                                {
                                    "internalType": "uint256[2]",
                                    "name": "X",
                                    "type": "uint256[2]"
                                },
                                {
                                    "internalType": "uint256[2]",
                                    "name": "Y",
                                    "type": "uint256[2]"
                                }
                            ],
                            "internalType": "struct ContractDB.G2Point[]",
                            "name": "itemWit",
                            "type": "tuple[]"
                        },
                        {
                            "components": [
                                {
                                    "internalType": "uint256",
                                    "name": "X",
                                    "type": "uint256"
                                },
                                {
                                    "internalType": "uint256",
                                    "name": "Y",
                                    "type": "uint256"
                                }
                            ],
                            "internalType": "struct ContractDB.G1Point[]",
                            "name": "iset",
                            "type": "tuple[]"
                        },
                        {
                            "components": [
                                {
                                    "internalType": "uint256",
                                    "name": "X",
                                    "type": "uint256"
                                },
                                {
                                    "internalType": "uint256",
                                    "name": "Y",
                                    "type": "uint256"
                                }
                            ],
                            "internalType": "struct ContractDB.G1Point[]",
                            "name": "igcd",
                            "type": "tuple[]"
                        },
                        {
                            "components": [
                                {
                                    "internalType": "uint256[2]",
                                    "name": "X",
                                    "type": "uint256[2]"
                                },
                                {
                                    "internalType": "uint256[2]",
                                    "name": "Y",
                                    "type": "uint256[2]"
                                }
                            ],
                            "internalType": "struct ContractDB.G2Point[]",
                            "name": "iwit",
                            "type": "tuple[]"
                        }
                    ],
                    "internalType": "struct ContractDB.VerifySumParam",
                    "name": "param",
                    "type": "tuple"
                }
            ],
            "name": "VerifyQuery",
            "outputs": [
                {
                    "internalType": "bool",
                    "name": "ver",
                    "type": "bool"
                },
                {
                    "internalType": "uint256",
                    "name": "flag",
                    "type": "uint256"
                }
            ],
            "stateMutability": "view",
            "type": "function"
        },
        {
            "inputs": [
                {
                    "components": [
                        {
                            "internalType": "uint8",
                            "name": "index",
                            "type": "uint8"
                        },
                        {
                            "internalType": "uint8[]",
                            "name": "rtype",
                            "type": "uint8[]"
                        },
                        {
                            "internalType": "uint64[]",
                            "name": "eval",
                            "type": "uint64[]"
                        },
                        {
                            "internalType": "uint64[]",
                            "name": "rval",
                            "type": "uint64[]"
                        }
                    ],
                    "internalType": "struct ContractDB.QueryMulti",
                    "name": "q",
                    "type": "tuple"
                },
                {
                    "components": [
                        {
                            "internalType": "uint256",
                            "name": "sum",
                            "type": "uint256"
                        },
                        {
                            "internalType": "uint256",
                            "name": "a0",
                            "type": "uint256"
                        },
                        {
                            "internalType": "uint256",
                            "name": "a1",
                            "type": "uint256"
                        },
                        {
                            "internalType": "uint256",
                            "name": "a0inv",
                            "type": "uint256"
                        },
                        {
                            "components": [
                                {
                                    "internalType": "uint256",
                                    "name": "X",
                                    "type": "uint256"
                                },
                                {
                                    "internalType": "uint256",
                                    "name": "Y",
                                    "type": "uint256"
                                }
                            ],
                            "internalType": "struct ContractDB.G1Point",
                            "name": "fR",
                            "type": "tuple"
                        },
                        {
                            "components": [
                                {
                                    "internalType": "uint256",
                                    "name": "X",
                                    "type": "uint256"
                                },
                                {
                                    "internalType": "uint256",
                                    "name": "Y",
                                    "type": "uint256"
                                }
                            ],
                            "internalType": "struct ContractDB.G1Point",
                            "name": "w1",
                            "type": "tuple"
                        },
                        {
                            "components": [
                                {
                                    "internalType": "uint256",
                                    "name": "X",
                                    "type": "uint256"
                                },
                                {
                                    "internalType": "uint256",
                                    "name": "Y",
                                    "type": "uint256"
                                }
                            ],
                            "internalType": "struct ContractDB.G1Point",
                            "name": "w2",
                            "type": "tuple"
                        },
                        {
                            "components": [
                                {
                                    "internalType": "uint64",
                                    "name": "key",
                                    "type": "uint64"
                                },
                                {
                                    "internalType": "uint64",
                                    "name": "nxt",
                                    "type": "uint64"
                                },
                                {
                                    "components": [
                                        {
                                            "internalType": "uint256",
                                            "name": "X",
                                            "type": "uint256"
                                        },
                                        {
                                            "internalType": "uint256",
                                            "name": "Y",
                                            "type": "uint256"
                                        }
                                    ],
                                    "internalType": "struct ContractDB.G1Point",
                                    "name": "value",
                                    "type": "tuple"
                                }
                            ],
                            "internalType": "struct ContractDB.DicItemE[]",
                            "name": "itemE",
                            "type": "tuple[]"
                        },
                        {
                            "components": [
                                {
                                    "internalType": "uint64",
                                    "name": "key",
                                    "type": "uint64"
                                },
                                {
                                    "internalType": "uint64",
                                    "name": "nxt",
                                    "type": "uint64"
                                },
                                {
                                    "components": [
                                        {
                                            "internalType": "uint256[2]",
                                            "name": "X",
                                            "type": "uint256[2]"
                                        },
                                        {
                                            "internalType": "uint256[2]",
                                            "name": "Y",
                                            "type": "uint256[2]"
                                        }
                                    ],
                                    "internalType": "struct ContractDB.G2Point",
                                    "name": "value",
                                    "type": "tuple"
                                }
                            ],
                            "internalType": "struct ContractDB.DicItemR[]",
                            "name": "itemR",
                            "type": "tuple[]"
                        },
                        {
                            "internalType": "uint256[]",
                            "name": "itemInv",
                            "type": "uint256[]"
                        },
                        {
                            "components": [
                                {
                                    "internalType": "uint256[2]",
                                    "name": "X",
                                    "type": "uint256[2]"
                                },
                                {
                                    "internalType": "uint256[2]",
                                    "name": "Y",
                                    "type": "uint256[2]"
                                }
                            ],
                            "internalType": "struct ContractDB.G2Point[]",
                            "name": "itemWit",
                            "type": "tuple[]"
                        },
                        {
                            "components": [
                                {
                                    "internalType": "uint256",
                                    "name": "X",
                                    "type": "uint256"
                                },
                                {
                                    "internalType": "uint256",
                                    "name": "Y",
                                    "type": "uint256"
                                }
                            ],
                            "internalType": "struct ContractDB.G1Point[]",
                            "name": "iset",
                            "type": "tuple[]"
                        },
                        {
                            "components": [
                                {
                                    "internalType": "uint256",
                                    "name": "X",
                                    "type": "uint256"
                                },
                                {
                                    "internalType": "uint256",
                                    "name": "Y",
                                    "type": "uint256"
                                }
                            ],
                            "internalType": "struct ContractDB.G1Point[]",
                            "name": "igcd",
                            "type": "tuple[]"
                        },
                        {
                            "components": [
                                {
                                    "internalType": "uint256[2]",
                                    "name": "X",
                                    "type": "uint256[2]"
                                },
                                {
                                    "internalType": "uint256[2]",
                                    "name": "Y",
                                    "type": "uint256[2]"
                                }
                            ],
                            "internalType": "struct ContractDB.G2Point[]",
                            "name": "iwit",
                            "type": "tuple[]"
                        }
                    ],
                    "internalType": "struct ContractDB.VerifySumParam",
                    "name": "param",
                    "type": "tuple"
                }
            ],
            "name": "VerifyQueryMulti",
            "outputs": [
                {
                    "internalType": "bool",
                    "name": "ver",
                    "type": "bool"
                },
                {
                    "internalType": "uint256",
                    "name": "flag",
                    "type": "uint256"
                }
            ],
            "stateMutability": "view",
            "type": "function"
        },
        {
            "inputs": [
                {
                    "components": [
                        {
                            "internalType": "uint8",
                            "name": "index",
                            "type": "uint8"
                        },
                        {
                            "internalType": "uint8[]",
                            "name": "rtype",
                            "type": "uint8[]"
                        },
                        {
                            "internalType": "uint64[]",
                            "name": "eval",
                            "type": "uint64[]"
                        },
                        {
                            "internalType": "uint64[]",
                            "name": "rval",
                            "type": "uint64[]"
                        }
                    ],
                    "internalType": "struct ContractDB.QueryMulti",
                    "name": "q",
                    "type": "tuple"
                },
                {
                    "components": [
                        {
                            "internalType": "uint256",
                            "name": "sum",
                            "type": "uint256"
                        },
                        {
                            "internalType": "uint256",
                            "name": "a0",
                            "type": "uint256"
                        },
                        {
                            "internalType": "uint256",
                            "name": "a1",
                            "type": "uint256"
                        },
                        {
                            "internalType": "uint256",
                            "name": "a0inv",
                            "type": "uint256"
                        },
                        {
                            "components": [
                                {
                                    "internalType": "uint256",
                                    "name": "X",
                                    "type": "uint256"
                                },
                                {
                                    "internalType": "uint256",
                                    "name": "Y",
                                    "type": "uint256"
                                }
                            ],
                            "internalType": "struct ContractDB.G1Point",
                            "name": "fR",
                            "type": "tuple"
                        },
                        {
                            "components": [
                                {
                                    "internalType": "uint256",
                                    "name": "X",
                                    "type": "uint256"
                                },
                                {
                                    "internalType": "uint256",
                                    "name": "Y",
                                    "type": "uint256"
                                }
                            ],
                            "internalType": "struct ContractDB.G1Point",
                            "name": "w1",
                            "type": "tuple"
                        },
                        {
                            "components": [
                                {
                                    "internalType": "uint256",
                                    "name": "X",
                                    "type": "uint256"
                                },
                                {
                                    "internalType": "uint256",
                                    "name": "Y",
                                    "type": "uint256"
                                }
                            ],
                            "internalType": "struct ContractDB.G1Point",
                            "name": "w2",
                            "type": "tuple"
                        },
                        {
                            "components": [
                                {
                                    "internalType": "uint64",
                                    "name": "key",
                                    "type": "uint64"
                                },
                                {
                                    "internalType": "uint64",
                                    "name": "nxt",
                                    "type": "uint64"
                                },
                                {
                                    "components": [
                                        {
                                            "internalType": "uint256",
                                            "name": "X",
                                            "type": "uint256"
                                        },
                                        {
                                            "internalType": "uint256",
                                            "name": "Y",
                                            "type": "uint256"
                                        }
                                    ],
                                    "internalType": "struct ContractDB.G1Point",
                                    "name": "value",
                                    "type": "tuple"
                                }
                            ],
                            "internalType": "struct ContractDB.DicItemE[]",
                            "name": "itemE",
                            "type": "tuple[]"
                        },
                        {
                            "components": [
                                {
                                    "internalType": "uint64",
                                    "name": "key",
                                    "type": "uint64"
                                },
                                {
                                    "internalType": "uint64",
                                    "name": "nxt",
                                    "type": "uint64"
                                },
                                {
                                    "components": [
                                        {
                                            "internalType": "uint256[2]",
                                            "name": "X",
                                            "type": "uint256[2]"
                                        },
                                        {
                                            "internalType": "uint256[2]",
                                            "name": "Y",
                                            "type": "uint256[2]"
                                        }
                                    ],
                                    "internalType": "struct ContractDB.G2Point",
                                    "name": "value",
                                    "type": "tuple"
                                }
                            ],
                            "internalType": "struct ContractDB.DicItemR[]",
                            "name": "itemR",
                            "type": "tuple[]"
                        },
                        {
                            "internalType": "uint256[]",
                            "name": "itemInv",
                            "type": "uint256[]"
                        },
                        {
                            "components": [
                                {
                                    "internalType": "uint256[2]",
                                    "name": "X",
                                    "type": "uint256[2]"
                                },
                                {
                                    "internalType": "uint256[2]",
                                    "name": "Y",
                                    "type": "uint256[2]"
                                }
                            ],
                            "internalType": "struct ContractDB.G2Point[]",
                            "name": "itemWit",
                            "type": "tuple[]"
                        },
                        {
                            "components": [
                                {
                                    "internalType": "uint256",
                                    "name": "X",
                                    "type": "uint256"
                                },
                                {
                                    "internalType": "uint256",
                                    "name": "Y",
                                    "type": "uint256"
                                }
                            ],
                            "internalType": "struct ContractDB.G1Point[]",
                            "name": "iset",
                            "type": "tuple[]"
                        },
                        {
                            "components": [
                                {
                                    "internalType": "uint256",
                                    "name": "X",
                                    "type": "uint256"
                                },
                                {
                                    "internalType": "uint256",
                                    "name": "Y",
                                    "type": "uint256"
                                }
                            ],
                            "internalType": "struct ContractDB.G1Point[]",
                            "name": "igcd",
                            "type": "tuple[]"
                        },
                        {
                            "components": [
                                {
                                    "internalType": "uint256[2]",
                                    "name": "X",
                                    "type": "uint256[2]"
                                },
                                {
                                    "internalType": "uint256[2]",
                                    "name": "Y",
                                    "type": "uint256[2]"
                                }
                            ],
                            "internalType": "struct ContractDB.G2Point[]",
                            "name": "iwit",
                            "type": "tuple[]"
                        }
                    ],
                    "internalType": "struct ContractDB.VerifySumParam",
                    "name": "param",
                    "type": "tuple"
                }
            ],
            "name": "verifyLayer2",
            "outputs": [
                {
                    "internalType": "bool",
                    "name": "ver",
                    "type": "bool"
                },
                {
                    "internalType": "uint256",
                    "name": "flag",
                    "type": "uint256"
                }
            ],
            "stateMutability": "view",
            "type": "function"
        }
    ],
    "bytecode": "60806040523461057c5760026020610015610580565b60018152015260018055600280555f51602061324b5f395f51905f52602061003b610580565b5f51602061326b5f395f51905f52815201525f51602061326b5f395f51905f526003555f51602061324b5f395f51905f52600455610077610580565b7f198e9393920d483a7260bfb731fb5d25f1aa493335a9e71297e485b7aef312c281527f1800deef121f1e76426a00665e5c4479674322d4f75edadd46debd5cd992f6ed60208201526100c8610580565b907f090689d0585ff075ec9e99ad690c3395bc4b313370b38ef355acdadcd122975b82527f12c85ea5db8c6deb4aab71808dcb408fe3d1e7690c43d37b4ce6cc0166fa7daa6020830152602061011c610580565b828152019182525f5b600281106105675782515f5b6002811061055257610141610580565b7f1cd271d9626680df4c5fd68bfb339d0991d11b5df7cbb9aad8e0758caef7892981527f1b2477fca310382c532cf29c2fb3bb767d30a7cdcce6c0ec37ddbf6d444d30b26020820152610192610580565b907f04d6c66ca774b11f25f5e9ed448a6cd37ab0a84cdbdb9e97c27b5cf00e78760882527f07f3706b941d23a8253cf98532b6c4e58024176e004dff204b2a1bc7dcb62345602083015260206101e6610580565b828152019182525f5b6002811061053d5782515f5b60028110610528577f2344068151a139b4760c3d6f471b4c9bb1a04dfb695398b53275468236f61a7c600d557f15bfcf60777d191b295ff41b87754bdfc7b229befe8ca34a62cef89dfab8a5be600e557f0aa7cfa121172af5449908cc7a844c2b64ad6d5775d911bc77c8aa967ab80b5b600f557f0d240f74e3054e47913e8e9d27a54f3f18defcd76a13fa516790c9695bca0b936010557f1ee6e95d2f2ac191b95ae4ed7a307ba0cf4e9eb41f7d857fd1e9d8f7a11bf2ca6011557f11e0202192526c67a385d61f132f48b29fa09cdd125cfc989bbb6b4b972253a46012557f033b93289ee391e685f0230ce281c09a79c2d8fb2ae0a766c24cd19959d157176013557f25be1391c062624577c3d9d6f278c408a0cd71f02070a52482df9cadbd17dba26014557f1264e8fb37b489f0470d15eab6c6b4ad96b28f38a613f9ff9ec6998bc85319226015557f1d57127d9eee934ba22ad6b089d37b4b099a8081fdd081ef50a683220e7b9bc56016557f1b3fe4ccea3f00bf4edc7614a4a5153cb33534c83ffa23d0a5f51d974e798b646017557e3d171787374e97a895f1ce66eb3eebdb462898857c143044faa8cd3b1ed32d6018557f0d9e214c74ae2b6af67b1b1f5c79ed91439e155b66f99ae2986cb654ce490fca6019557f1c6eedc72c33a903e097949cb43421e3791f30f1edb82241c6462995d5b25282601a557f2981337e4bbf68ac760d9196806ca6269a45459804763f54da13171d869fa16b601b557f236593e42850d834210ea7441ca99be818efaf2bee3b3f9e3414515e33d227ab601c557f2cc317106c20abcaed5b928f513e72dd1e83f1459ba4bde840074855b9f735c9601d557f101f4f16e8b14761642d739daa7760799cb065a31dbfcf1116c00a8c7a1b3315601e557ebaa016bc411438480812988f654bc20b7ebebbc623d2c0b1431c61c5db4f48601f557f2cd17b20f54fb0c62affa10bfdde828c5c2068c14026200d78d89f18c6164ef06020557f2d9b6da93e58f77806382043fdc11ab0cbb80eccecb82fd0890b87fe3dbd02716021557f1e85afab19f825171e3496009f7a6bd95fd7090ea43a0f1c94661bf19bcd1aee602255604051612c9790816105b48239f35b6001906020835193019281600b0155016101fb565b600190602083519301928160090155016101ef565b60019060208351930192816007015501610131565b60019060208351930192816005015501610125565b5f80fd5b60408051919082016001600160401b0381118382101761059f57604052565b634e487b7160e01b5f52604160045260245ffdfe60806040526004361015610011575f80fd5b5f3560e01c80630c3ad2d8146100d4578063309d8fdb1461009f578063510c45071461009a57806357fee9b11461009557806363b9b52814610090578063ae66a13e1461008b578063b43b0b0c14610086578063b6c392b9146100815763c397d19d1461007c575f80fd5b6102a0565b610274565b61025b565b610244565b61022d565b6100d4565b6101ae565b346100d0576100b66100b03661010f565b90610a34565b6040805192151583526020830191909152819081015b0390f35b5f80fd5b346100d0575f3660031901126100d0575f8055604051806100cc81905f60206040840193600181520152565b90816102209103126100d05790565b9060406003198301126100d0576004356001600160401b0381116100d057608081840360031901126100d05760040191602435906001600160401b0382116100d05761015d91600401610100565b90565b9060406003198301126100d0576004356001600160401b0381116100d05760a081840360031901126100d05760040191602435906001600160401b0382116100d05761015d91600401610100565b346100d0576101c76101bf36610160565b80929161172e565b91817f1662b5f33b72b4a2ea7aa48e44c56a648f7ab0056638a88df3c4101479d02bad60405180610208878583602090939291936040810194151581520152565b0390a1610224575b506040805191151582526020820192909252f35b355f555f610210565b346100d0576100b661023e3661010f565b906116a4565b346100d0576100b661025536610160565b9061172e565b346100d0576101c761026c3661010f565b8092916116a4565b346100d05761028236610160565b9050355f55604051806100cc81905f60206040840193600181520152565b346100d0576102823661010f565b3560ff811681036100d05790565b634e487b7160e01b5f52604160045260245ffd5b604081019081106001600160401b038211176102eb57604052565b6102bc565b90601f801991011681019081106001600160401b038211176102eb57604052565b6001600160401b0381116102eb5760051b60200190565b60405190610335826102d0565b5f6020838281520152565b604051610120919061035283826102f0565b6008815291601f1901825f5b82811061036a57505050565b602090610375610328565b8282850101520161035e565b6040516101a0919061039383826102f0565b600c815291601f1901825f5b8281106103ab57505050565b6020906103b6610328565b8282850101520161039f565b906103cc82610311565b6103d960405191826102f0565b82815280926103ea601f1991610311565b01905f5b8281106103fa57505050565b602090610405610328565b828285010152016103ee565b604051906104206020836102f0565b6020368337565b60405190610437610120836102f0565b6008825281601f196104496008610311565b01906040905f5b83811061045d5750505050565b602090835161046b816102d0565b845161047786826102f0565b853682378152845161048986826102f0565b853682378382015282828501015201610450565b604051906104ad6101a0836102f0565b600c825281601f196104bf600c610311565b01906040905f5b8381106104d35750505050565b60209083516104e1816102d0565b84516104ed86826102f0565b85368237815284516104ff86826102f0565b8536823783820152828285010152016104c6565b9061051d82610311565b61052a60405191826102f0565b828152809261053b601f1991610311565b01906040905f5b83811061054f5750505050565b602090835161055d816102d0565b845161056986826102f0565b853682378152845161057b86826102f0565b853682378382015282828501015201610542565b91908260409103126100d0576040516105a7816102d0565b6020808294803584520135910152565b61015d90369061058f565b634e487b7160e01b5f52603260045260245ffd5b8051156105e35760200190565b6105c2565b8051600110156105e35760400190565b8051600210156105e35760600190565b8051600310156105e35760800190565b8051600410156105e35760a00190565b8051600510156105e35760c00190565b8051600610156105e35760e00190565b8051600710156105e3576101000190565b8051600810156105e3576101200190565b8051600a10156105e3576101600190565b8051600b10156105e3576101800190565b8051600910156105e3576101400190565b80518210156105e35760209160051b010190565b604051906106be826102d0565b60015482526002546020830152565b604051906106da826102d0565b60035482526004546020830152565b906040516106f6816102d0565b602060018294805484520154910152565b60405191905f835b60028210610727575050506107256040836102f0565b565b600160208192855481520193019101909161070f565b6040519061074a826102d0565b816107556009610707565b81526020610763600b610707565b910152565b60405190610775826102d0565b816107806005610707565b815260206107636007610707565b903590601e19813603018212156100d057018035906001600160401b0382116100d057602001918160051b360383136100d057565b90156105e35790565b90600110156105e35760200190565b90600210156105e35760400190565b91908110156105e35760051b0190565b356001600160401b03811681036100d05790565b903590601e19813603018212156100d057018035906001600160401b0382116100d057602001918160071b360383136100d057565b90600110156105e35760800190565b90600210156105e3576101000190565b91908110156105e35760071b0190565b60068110156105e35760011b600d01905f90565b9080601f830112156100d057604051916108a16040846102f0565b8290604081019283116100d057905b8282106108bd5750505090565b81358152602091820191016108b0565b91906080838203126100d0576020610763604051926108eb846102d0565b604084966108f98382610886565b865201610886565b61015d9036906108cd565b903590601e19813603018212156100d057018035906001600160401b0382116100d0576020019160c08202360383136100d057565b634e487b7160e01b5f52601160045260245ffd5b908160011b918083046002149015171561096b57565b610941565b9060068202918083046006149015171561096b57565b9060038202918083046003149015171561096b57565b600181901b91906001600160ff1b0381160361096b57565b90600110156105e35760c00190565b91908110156105e35760c0020190565b906001820180921161096b57565b600401908160041161096b57565b906002820180921161096b57565b906003820180921161096b57565b906004820180921161096b57565b906005820180921161096b57565b9190820180921161096b57565b9060ff610a40836102ae565b1661168e57610a4d610381565b610a5561049d565b905b608083019283356001811480611680575b61167257606082013560208301356001610a82838361283d565b0361166357610a966040850135809361283d565b84350361165357610af6610b33610ac9610b3b94610afb610aec610ac960c08b01978c610ad4610ace610ac9368d61058f565b612864565b916105d6565b52610ade8d6105d6565b50610ae76106b1565b61292e565b610af6368e61058f565b612970565b610b048a6105e8565b52610b0e896105e8565b50610b20610ac9366101008b0161058f565b610b298a6105f8565b52610ade896105f8565b91369061058f565b610b4484610608565b52610b4e83610608565b50610b5761073d565b610b60856105d6565b52610b6a846105d6565b50610b73610768565b610b7c856105e8565b52610b86846105e8565b50610b8f61073d565b610b98856105f8565b52610ba2846105f8565b50610bab610768565b610bb485610608565b52610bbe84610608565b506040860194610bdf610bda610bd4888a61078e565b906107c3565b6107fa565b966101408401976001600160401b03610c0d610c01610bda610bd48d8a61080e565b6001600160401b031690565b91160361164357610c21610bd4898661080e565b92610c3f610180860194610c38610bd4878961078e565b35906129bc565b1561163357610c71610ac9610c63610c5a610bd4888a61078e565b35610ae76106b1565b610c6b6106cd565b90612970565b610c7a87610618565b52610c8486610618565b50610c9f610c99610c94846102ae565b610872565b506106e9565b610ca887610628565b52610cb286610628565b506101a0850197610cce610cc9610bd48b8961080e565b610901565b610cd789610618565b52610ce188610618565b50610cea610768565b610cf389610628565b52610cfd88610628565b50610d10610d0a846102ae565b60ff1690565b6114d257505060208101600160ff610d33610d2e610bd4858761078e565b6102ae565b160361110057506101608401610d56610bda5f610d50848961090c565b906109c3565b8286836060830180946001600160401b03610d81610c01610bda5f610d7b878b61078e565b906107ea565b91161093846110c1575b50505050156110af57610db3610bda610da4848961090c565b610dad5f6109d3565b916109c3565b6001600160401b03610ddd610c01610bda610dce868961078e565b610dd75f6109d3565b916107ea565b91161115928361106e575b5050501561105f57610ac9610dff915b369061058f565b610e0884610638565b52610e1283610638565b50610e1b6106b1565b610e2484610648565b52610e2e83610648565b506101608201610e4c6040610e46610bd4848761090c565b01610901565b610e5586610638565b52610e5f85610638565b50610e786040610e46610e72848761090c565b906109b4565b610e8186610648565b52610e8b85610648565b50610ebe610eb9610e9f610bd4848761090c565b610eb2610eac868861078e565b906107cc565b3590612a56565b151590565b1561105057610eb9610ed6610e72610ee9938661090c565b610eb2610ee3858761078e565b906107db565b156110425761100f610eb99583610f94610c63610c5a610ee387610f7a610ac961102e9f610f45610bd48f926110159f610cc99f94610f64610c63610c5a610eac60409986610f4b610ac98d610f45610bd48d610f739d61080e565b016105b7565b610f5488610659565b52610f5e87610659565b5061078e565b610f6d82610648565b52610648565b508b61080e565b610f838c61066a565b52610f8d8b61066a565b508561078e565b610f9d8761067b565b52610fa78661067b565b50610fb0610768565b610fb988610659565b52610fc387610659565b50610fda610cc9610fd4848461080e565b90610843565b610fe38861068c565b52610fed8761068c565b50610ff6610768565b610fff8861066a565b526110098761066a565b5061080e565b90610852565b61101e8361067b565b526110288261067b565b50612b46565b1561103b57600190600f90565b5f90603790565b5050505050505f9061030a90565b505050505050505f9061030990565b505050505050505f906104b290565b6001600160401b03929350602061109e610da4611097610bda610dce6110a497610c019761078e565b968a61090c565b016107fa565b9116105f8080610de8565b505050505050505050505f906104b190565b6001600160401b0393945061109e5f610d506110f3956110ed610bda84610d7b610c019960209961078e565b9861090c565b9116111586838386610d8b565b600260ff611114610d2e610bd4858761078e565b160361124157506101608401611131610bda5f610d50848961090c565b8286836060830180946001600160401b03611156610c01610bda5f610d7b878b61078e565b911611159384611209575b50505050156111f75761117a610bda610da4848961090c565b6001600160401b03611195610c01610bda610dce868961078e565b9116111592836111c3575b505050156111b457610ac9610dff91610df8565b505050505050505f906104b490565b6001600160401b03929350602061109e610da4611097610bda610dce6111ec97610c019761078e565b9116105f80806111a0565b505050505050505050505f906104b390565b6001600160401b0393945061109e5f610d50611235956110ed610bda84610d7b610c019960209961078e565b91161086838386611161565b600360ff611255610d2e610bd4858761078e565b160361138257506101608401611272610bda5f610d50848961090c565b8286836060830180946001600160401b03611297610c01610bda5f610d7b878b61078e565b9116109384611349575b5050505015611337576112ba610bda610da4848961090c565b6001600160401b036112d5610c01610bda610dce868961078e565b9116109283611302575b505050156112f357610ac9610dff91610df8565b505050505050505f906104b690565b6001600160401b03929350602061109e610da4611097610bda610dce61132b97610c019761078e565b911611155f80806112df565b505050505050505050505f906104b590565b6001600160401b0393945061109e5f610d50611375956110ed610bda84610d7b610c019960209961078e565b91161115868383866112a1565b60ff611396610d2e610bd46004948661078e565b16036114c25761016084016113b2610bda5f610d50848961090c565b8286836060830180946001600160401b036113d7610c01610bda5f610d7b878b61078e565b91161115938461148a575b5050505015611478576113fb610bda610da4848961090c565b6001600160401b03611416610c01610bda610dce868961078e565b9116109283611443575b5050501561143457610ac9610dff91610df8565b505050505050505f906104b890565b6001600160401b03929350602061109e610da4611097610bda610dce61146c97610c019761078e565b911611155f8080611420565b505050505050505050505f906104b790565b6001600160401b0393945061109e5f610d506114b6956110ed610bda84610d7b610c019960209961078e565b911610868383866113e2565b50505050505050505f906104b990565b610bda919350610eac906114e8939a959a61078e565b6001600160401b03611503610c01610bda610fd4878961080e565b911603611624576040611519610fd4848661080e565b013514801590611606575b6115f857611548610eb961153b610fd4848661080e565b610c38610eac8a8761078e565b156115eb57610fd4610eb995836115a96115a3604061159b610cc997611581610ac961102e9f610c5a610eac610c63926115bc9f61078e565b61158a8c610638565b526115948b610638565b508561080e565b3693916107c3565b0161058f565b6115b287610648565b5261100986610648565b6115c583610638565b526115cf82610638565b506115d8610768565b6115e183610648565b5261102882610648565b5050505050505f90600e90565b5050505050505f9061051690565b5060a0820135606061161b610fd4848661080e565b01351415611524565b505050505050505f906104b190565b5050505050505050505f90600e90565b50505050505050505f906104b190565b50505050505050505f9061014d90565b50505050505050505f9060de90565b509350505050351590606f90565b50600260a083013514610a68565b611696610340565b61169e610427565b90610a57565b9060ff6116b0836102ae565b161580156116d4575b6116c75750505f9061ad9d90565b6116d091610a34565b9091565b50600160ff6116e2846102ae565b16146116b9565b903590601e19813603018212156100d057018035906001600160401b0382116100d057602001918160061b360383136100d057565b91908110156105e35760061b0190565b909161174c611747611740848061078e565b9050610955565b6109e1565b9261176f6020840194611769611762878761078e565b9050610970565b90610a27565b926117956117906101c084019561176961178988876116e9565b9050610986565b6109d3565b906117a86117a2836103c2565b92610513565b946080840160018135148061282f575b612820576060850135602086013560016117d2838361283d565b03612810576117e66040880135809361283d565b8735036127ff57610af6610b33610ac961186b94611833611829610ac98c97610ade8f60c0019961181a610ac9368d61058f565b611823826105d6565b526105d6565b610af6368a61058f565b61183c8b6105e8565b526118468a6105e8565b50611858610ac9366101008e0161058f565b6118618b6105f8565b52610ade8a6105f8565b61187485610608565b5261187e84610608565b5061188761073d565b611890886105d6565b5261189a876105d6565b506118a3610768565b6118ac886105e8565b526118b6876105e8565b506118bf61073d565b6118c8886105f8565b526118d2876105f8565b506118db610768565b6118e488610608565b526118ee87610608565b505f5b6118fb848061078e565b9050811015611b295785611919610bda83610d7b606089018961078e565b6001600160401b03611940610c01610bda8661193a6101408801809861080e565b90610862565b911603611b185761195b82611955868a6116e9565b9061171e565b35604061196c8461193a858c61080e565b013514801590611aec575b611adb578161193a611989928961080e565b6119a3610eb9610180890192610c3885610d7b868d61078e565b15611acb57816119b28161099c565b6119bb906109e1565b916119c6908961078e565b6119d092916107ea565b356119d96106b1565b906119e39161292e565b6119eb6106cd565b6119f491612970565b6119fd90612864565b611a07828861069d565b52611a12818761069d565b5081611a1e868061078e565b611a2892916107ea565b611a31906102ae565b611a3a90610872565b50611a44826109d3565b90611a4e906106e9565b611a58828961069d565b52611a63908761069d565b5081611a736101a089018961080e565b611a7d9291610862565b611a8690610901565b611a90828b61069d565b52611a9b818a61069d565b50611aa5906109d3565b611aad610768565b611ab7828b61069d565b52611ac2908961069d565b506001016118f1565b505f9850600e9750505050505050565b505f98506105169750505050505050565b506020611afd83611955878b6116e9565b01356060611b0f8461193a858c61080e565b01351415611977565b505f98506104b19750505050505050565b509694939291935f5b611b3c878761078e565b90508110156125d55780604087016001611b60610d0a610d2e85610d7b868e61078e565b0361218c5750506101608501611b85610bda611b7c838961090c565b610dad8661099c565b878783856080840180956001600160401b03611bb3610c01610bda611baa868b61078e565b610dd78961099c565b9116109485612141575b50505050501561212e57908791611be6610bda611bda848b61090c565b610dad6117908961099c565b6001600160401b03611c0d610c01610bda611c01868961078e565b610dd76117908c61099c565b9116111592836120db575b505050156120ca578480611d33611cb88b611d2c84611c89610ac9611c848f611c76611c7e8f611c6d8f915b611c67611c5e611747611c57898061078e565b905061099c565b6117698561099c565b996116e9565b9390948061078e565b919050610a27565b9161171e565b6105b7565b611c93828d61069d565b52611c9e818c61069d565b50611cc5611cab826109d3565b8c611cbe82611cb86106b1565b9261069d565b528c61069d565b50611d226040611d1b8a611790610dad611d136101608d018d8b829f8b611cb88b610e468b610dad611cfa8a611d029861090c565b91909261099c565b52611d0d8a8d61069d565b5061090c565b92909361099c565b01916109d3565b93849136906108cd565b528b61069d565b50611d7d610eb9611d50611d47848661090c565b610dad8861099c565b610eb28b611d72610dd7611d696101808a01809a61078e565b9290938061078e565b90506117698b61099c565b156120b757610eb987610eb28a611d72610dd7611790611c6d89611dae8c611790610dad611d13611db49e8d61090c565b9761078e565b156120a557611dc3878061078e565b611dcd915061099c565b611dd6906109e1565b611ddf8361099c565b611de891610a27565b611df1906109ef565b9082611dfd8a8a61078e565b611e0792916107ea565b611e10906102ae565b611e1990610872565b50611e23906106e9565b611e2c90612864565b611e36838861069d565b52611e41828761069d565b50611e4c818861078e565b611e568a8061078e565b9050611e618661099c565b611e6a91610a27565b90611e74926107ea565b35611e7d6106b1565b90611e879161292e565b611e8f6106cd565b611e9891612970565b611ea1836109d3565b90611eac828961069d565b52611eb7908761069d565b5082611ec38a8a61078e565b611ecd92916107ea565b611ed6906102ae565b611edf90610872565b50611ee9906106e9565b611ef290612864565b611efb836109ef565b90611f06828961069d565b52611f11908761069d565b50611f1c908761078e565b611f26898061078e565b9050611f318561099c565b611f3a91610a27565b611f43906109d3565b90611f4d926107ea565b35611f566106b1565b90611f609161292e565b611f686106cd565b611f7191612970565b611f7a826109fd565b90611f85828861069d565b52611f90908661069d565b50611f99610768565b611fa3828b61069d565b52611fae818a61069d565b506101a08601611fbe818861080e565b611fc88a8061078e565b9050611fd38661099c565b611fdc91610a27565b90611fe692610862565b611fef836109d3565b9036611ffa916108cd565b612004828d61069d565b5261200f908b61069d565b50612019826109ef565b612021610768565b61202b828d61069d565b52612036908b61069d565b50612041908761080e565b61204b898061078e565b90506120568561099c565b61205f91610a27565b612068906109d3565b9061207292610862565b9061207c906109fd565b9036612087916108cd565b612091828b61069d565b5261209c908961069d565b50600101611b32565b505096505050505050505f9061030a90565b50505096505050505050505f9061030990565b5096505050505050505f906104b290565b6001600160401b03929350602061109e612117612110610bda61210461212397610c019761078e565b610dd76117908d61099c565b968c61090c565b610dad6117908a61099c565b9116105f8088611c18565b50505096505050505050505f906104b190565b6001600160401b0394955061217561217e9461216f610bda610c0196610dd7611cfa60209861109e9861078e565b9761090c565b610dad8b61099c565b91161115878385848c611bbd565b87600260ff6121a2610d2e86610d7b878761078e565b16036122f65750505061016085016121c0610bda611b7c838961090c565b878783856080840180956001600160401b036121e5610c01610bda611baa868b61078e565b9116111594856122bb575b5050505050156122a85790879161220d610bda611bda848b61090c565b6001600160401b03612228610c01610bda611c01868961078e565b911611159283612274575b50505015612263578480611d33611cb88b611d2c84611c89610ac9611c848f611c76611c7e8f611c6d8f91611c44565b5096505050505050505f906104b490565b6001600160401b03929350602061109e612117612110610bda61210461229d97610c019761078e565b9116105f8088612233565b50505096505050505050505f906104b390565b6001600160401b039495506121756122e99461216f610bda610c0196610dd7611cfa60209861109e9861078e565b911610878385848c6121f0565b60ff61230b610d2e85610d7b8660039661078e565b160361245e5750506101608501612328610bda611b7c838961090c565b878783856080840180956001600160401b0361234d610c01610bda611baa868b61078e565b9116109485612422575b50505050501561240f57908791612374610bda611bda848b61090c565b6001600160401b0361238f610c01610bda611c01868961078e565b91161092836123da575b505050156123c9578480611d33611cb88b611d2c84611c89610ac9611c848f611c76611c7e8f611c6d8f91611c44565b5096505050505050505f906104b690565b6001600160401b03929350602061109e612117612110610bda61210461240397610c019761078e565b911611155f8088612399565b50505096505050505050505f906104b590565b6001600160401b039495506121756124509461216f610bda610c0196610dd7611cfa60209861109e9861078e565b91161115878385848c612357565b612473610d2e600493610d7b60ff948c61078e565b16036125c457610160850161248e610bda611b7c838961090c565b878783856080840180956001600160401b036124b3610c01610bda611baa868b61078e565b911611159485612589575b505050505015612576579087916124db610bda611bda848b61090c565b6001600160401b036124f6610c01610bda611c01868961078e565b9116109283612541575b50505015612530578480611d33611cb88b611d2c84611c89610ac9611c848f611c76611c7e8f611c6d8f91611c44565b5096505050505050505f906104b890565b6001600160401b03929350602061109e612117612110610bda61210461256a97610c019761078e565b911611155f8088612500565b50505096505050505050505f906104b790565b6001600160401b039495506121756125b79461216f610bda610c0196610dd7611cfa60209861109e9861078e565b911610878385848c6124be565b5096505050505050505f906104b990565b50959496929390919660016125ea84876116e9565b905011612605575b5050505050610eb99061102e9293612b46565b9061176961176261262a9361262461174761174086809e9a9b9e61078e565b9361078e565b925f5b61263783896116e9565b905081101561271157600190612677612653610ac9368661058f565b61266561265f8461099c565b89610a27565b90612670828961069d565b528661069d565b506126ab61268982611955878d6116e9565b6126a1610b3361179061269b8661099c565b8b610a27565b612670828961069d565b506126ef6126c18261193a6102008d018d61080e565b6126de6126d66126d08561099c565b8a610a27565b9136906108cd565b6126e8828b61069d565b528861069d565b5061270a61270261179061265f8461099c565b6126de610768565b500161262d565b505093929161272a61276e91611769611c57888a6116e9565b612735610ac96106b1565b61273f828561069d565b5261274a818461069d565b50612753610768565b61275d828661069d565b52612768818561069d565b506109d3565b925f5b61277b86886116e9565b90508110156127e9576001816127ac61279f61277b946119556101e08d018d6116e9565b6126a1610b33848b610a27565b506127e06127c28261193a6102008d018d61080e565b6127cf6126d6848b610a27565b6127d9828a61069d565b528761069d565b50019050612771565b50909450925090508061102e610eb95f806125f2565b505f985061014d9750505050505050565b505f985060de9750505050505050565b5050509035159350606f925050565b50600260a0860135146117b8565b907f30644e72e131a029b85045b68181585d2833e84879b9709143e1f593f0000001910990565b61286c610328565b50805190811580612922575b1561289957505060405161288d6040826102f0565b5f81525f602082015290565b60207f30644e72e131a029b85045b68181585d97816a916871ca8d3c208c16d87cfd47910151067f30644e72e131a029b85045b68181585d97816a916871ca8d3c208c16d87cfd47037f30644e72e131a029b85045b68181585d97816a916871ca8d3c208c16d87cfd47811161096b57604051916129186040846102f0565b8252602082015290565b50602081015115612878565b9190606090608061293d610328565b94859260206040519261295087856102f0565b863685378051845201516020830152604082015260076107cf195a01fa50565b6020929160c0606092612981610328565b95869381604051936129946080866102f0565b6080368637805185520151828401528051604084015201518482015260066107cf195a01fa50565b6001917f30644e72e131a029b85045b68181585d2833e84879b9709143e1f593f000000180926129eb816107fa565b906129f8602082016107fa565b9060606040820135910135906040519260208401946001600160401b0360c01b9060c01b1685526001600160401b0360c01b9060c01b1660288401526030830152605082015260508152612a4d6070826102f0565b51902006091490565b600191612b0b612b1092612a69816107fa565b90612a76602082016107fa565b90606081013590608081019060408101359060a001359135926040519460208601966001600160401b0360c01b9060c01b1687526001600160401b0360c01b9060c01b166028860152603085015260508401526070830152609082015260908152612ae260b0826102f0565b5190207f30644e72e131a029b85045b68181585d2833e84879b9709143e1f593f0000001900690565b61283d565b1490565b90612b1e82610311565b612b2b60405191826102f0565b8281528092612b3c601f1991610311565b0190602036910137565b612b508151610970565b91612b5a83612b14565b935f5b8351811015612c375780612b72600192610970565b612b7c828761069d565b5151612b88828a61069d565b526020612b95838861069d565b510151612baa612ba4836109d3565b8a61069d565b52612bb5828661069d565b515151612bc4612ba4836109ef565b52612bda612bd2838761069d565b515160200190565b51612be7612ba4836109fd565b526020612bf4838761069d565b51015151612c04612ba483610a0b565b52612c30612c2a612c236020612c1a868a61069d565b51015160200190565b5192610a19565b8961069d565b5201612b5d565b50936020939150839250612c49610411565b93849260051b910160086107cf195a01fa505115159056fea26469706673582212201c3fc6fe4b99aeaa03f4ba3ff67efbc133e41ccb3f6f02c294ab291f7cb2810b64736f6c634300081c00332cba40e2283d84ba2fefc2f2b81becf9f2472056cda315c19f8b70227d13a91a0175333a0b1a5016ca39916a1c45955f24ae8d6f32262df6531e5c3d8fc33018",
    "sourcePath": "/home/ubuntu/contractdb/contract/contracts/ContractDB.sol",
    "compiler": {
        "name": "solc",
        "version": "0.8.28+commit.7893614a"
    },
    "functionHashes": {
        "TestGas0()": "57fee9b1",
        "TestGas0Multi()": "0c3ad2d8",
        "TestGas1((uint8[],uint8[],uint8[],uint64[],uint64[]),(uint256,uint256,uint256,uint256,(uint256,uint256),(uint256,uint256),(uint256,uint256),(uint64,uint64,(uint256,uint256))[],(uint64,uint64,(uint256[2],uint256[2]))[],uint256[],(uint256[2],uint256[2])[],(uint256,uint256)[],(uint256,uint256)[],(uint256[2],uint256[2])[]))": "b6c392b9",
        "TestGas1Multi((uint8,uint8[],uint64[],uint64[]),(uint256,uint256,uint256,uint256,(uint256,uint256),(uint256,uint256),(uint256,uint256),(uint64,uint64,(uint256,uint256))[],(uint64,uint64,(uint256[2],uint256[2]))[],uint256[],(uint256[2],uint256[2])[],(uint256,uint256)[],(uint256,uint256)[],(uint256[2],uint256[2])[]))": "c397d19d",
        "TestGas2((uint8[],uint8[],uint8[],uint64[],uint64[]),(uint256,uint256,uint256,uint256,(uint256,uint256),(uint256,uint256),(uint256,uint256),(uint64,uint64,(uint256,uint256))[],(uint64,uint64,(uint256[2],uint256[2]))[],uint256[],(uint256[2],uint256[2])[],(uint256,uint256)[],(uint256,uint256)[],(uint256[2],uint256[2])[]))": "510c4507",
        "TestGas2Multi((uint8,uint8[],uint64[],uint64[]),(uint256,uint256,uint256,uint256,(uint256,uint256),(uint256,uint256),(uint256,uint256),(uint64,uint64,(uint256,uint256))[],(uint64,uint64,(uint256[2],uint256[2]))[],uint256[],(uint256[2],uint256[2])[],(uint256,uint256)[],(uint256,uint256)[],(uint256[2],uint256[2])[]))": "b43b0b0c",
        "VerifyQuery((uint8[],uint8[],uint8[],uint64[],uint64[]),(uint256,uint256,uint256,uint256,(uint256,uint256),(uint256,uint256),(uint256,uint256),(uint64,uint64,(uint256,uint256))[],(uint64,uint64,(uint256[2],uint256[2]))[],uint256[],(uint256[2],uint256[2])[],(uint256,uint256)[],(uint256,uint256)[],(uint256[2],uint256[2])[]))": "ae66a13e",
        "VerifyQueryMulti((uint8,uint8[],uint64[],uint64[]),(uint256,uint256,uint256,uint256,(uint256,uint256),(uint256,uint256),(uint256,uint256),(uint64,uint64,(uint256,uint256))[],(uint64,uint64,(uint256[2],uint256[2]))[],uint256[],(uint256[2],uint256[2])[],(uint256,uint256)[],(uint256,uint256)[],(uint256[2],uint256[2])[]))": "63b9b528",
        "verifyLayer2((uint8,uint8[],uint64[],uint64[]),(uint256,uint256,uint256,uint256,(uint256,uint256),(uint256,uint256),(uint256,uint256),(uint64,uint64,(uint256,uint256))[],(uint64,uint64,(uint256[2],uint256[2]))[],uint256[],(uint256[2],uint256[2])[],(uint256,uint256)[],(uint256,uint256)[],(uint256[2],uint256[2])[]))": "309d8fdb"
    },
    "gasEstimates": {
        "creation": {
            "codeDepositCost": "2283000",
            "executionCost": "infinite",
            "totalCost": "infinite"
        },
        "external": {
            "TestGas0()": "5278",
            "TestGas0Multi()": "5200",
            "TestGas1((uint8[],uint8[],uint8[],uint64[],uint64[]),(uint256,uint256,uint256,uint256,(uint256,uint256),(uint256,uint256),(uint256,uint256),(uint64,uint64,(uint256,uint256))[],(uint64,uint64,(uint256[2],uint256[2]))[],uint256[],(uint256[2],uint256[2])[],(uint256,uint256)[],(uint256,uint256)[],(uint256[2],uint256[2])[]))": "22701",
            "TestGas1Multi((uint8,uint8[],uint64[],uint64[]),(uint256,uint256,uint256,uint256,(uint256,uint256),(uint256,uint256),(uint256,uint256),(uint64,uint64,(uint256,uint256))[],(uint64,uint64,(uint256[2],uint256[2]))[],uint256[],(uint256[2],uint256[2])[],(uint256,uint256)[],(uint256,uint256)[],(uint256[2],uint256[2])[]))": "22720",
            "TestGas2((uint8[],uint8[],uint8[],uint64[],uint64[]),(uint256,uint256,uint256,uint256,(uint256,uint256),(uint256,uint256),(uint256,uint256),(uint64,uint64,(uint256,uint256))[],(uint64,uint64,(uint256[2],uint256[2]))[],uint256[],(uint256[2],uint256[2])[],(uint256,uint256)[],(uint256,uint256)[],(uint256[2],uint256[2])[]))": "infinite",
            "TestGas2Multi((uint8,uint8[],uint64[],uint64[]),(uint256,uint256,uint256,uint256,(uint256,uint256),(uint256,uint256),(uint256,uint256),(uint64,uint64,(uint256,uint256))[],(uint64,uint64,(uint256[2],uint256[2]))[],uint256[],(uint256[2],uint256[2])[],(uint256,uint256)[],(uint256,uint256)[],(uint256[2],uint256[2])[]))": "infinite",
            "VerifyQuery((uint8[],uint8[],uint8[],uint64[],uint64[]),(uint256,uint256,uint256,uint256,(uint256,uint256),(uint256,uint256),(uint256,uint256),(uint64,uint64,(uint256,uint256))[],(uint64,uint64,(uint256[2],uint256[2]))[],uint256[],(uint256[2],uint256[2])[],(uint256,uint256)[],(uint256,uint256)[],(uint256[2],uint256[2])[]))": "infinite",
            "VerifyQueryMulti((uint8,uint8[],uint64[],uint64[]),(uint256,uint256,uint256,uint256,(uint256,uint256),(uint256,uint256),(uint256,uint256),(uint64,uint64,(uint256,uint256))[],(uint64,uint64,(uint256[2],uint256[2]))[],uint256[],(uint256[2],uint256[2])[],(uint256,uint256)[],(uint256,uint256)[],(uint256[2],uint256[2])[]))": "infinite",
            "verifyLayer2((uint8,uint8[],uint64[],uint64[]),(uint256,uint256,uint256,uint256,(uint256,uint256),(uint256,uint256),(uint256,uint256),(uint64,uint64,(uint256,uint256))[],(uint64,uint64,(uint256[2],uint256[2]))[],uint256[],(uint256[2],uint256[2])[],(uint256,uint256)[],(uint256,uint256)[],(uint256[2],uint256[2])[]))": "infinite"
        },
        "internal": {
            "checkItemEInv(struct ContractDB.DicItemE calldata,uint256)": "infinite",
            "checkItemInv(struct ContractDB.DicItemR calldata,uint256)": "infinite",
            "isInv(uint256,uint256)": "infinite",
            "modAdd(uint256,uint256)": "infinite",
            "modInv(uint256)": "infinite",
            "modMul(uint256,uint256)": "29",
            "negate(struct ContractDB.G1Point memory)": "infinite",
            "pairingMulti(struct ContractDB.G1Point memory[] memory,struct ContractDB.G2Point memory[] memory)": "infinite",
            "plus(struct ContractDB.G1Point memory,struct ContractDB.G1Point memory)": "infinite",
            "scalar_mul(struct ContractDB.G1Point memory,uint256)": "infinite",
            "verifySum(struct ContractDB.SumProof calldata)": "infinite"
        }
    }
}