{
  "contractName": "ContractDBMulti",
  "abi": [
    {
      "inputs": [],
      "stateMutability": "nonpayable",
      "type": "constructor"
    },
    {
      "anonymous": false,
      "inputs": [
        {
          "indexed": false,
          "internalType": "bool",
          "name": "success",
          "type": "bool"
        },
        {
          "indexed": false,
          "internalType": "uint256",
          "name": "result",
          "type": "uint256"
        }
      ],
      "name": "TestGas2Result",
      "type": "event"
    },
    {
      "inputs": [
        {
          "components": [
            {
              "internalType": "uint8",
              "name": "index",
              "type": "uint8"
            },
            {
              "internalType": "uint8[]",
              "name": "rtype",
              "type": "uint8[]"
            },
            {
              "internalType": "uint64[]",
              "name": "eval",
              "type": "uint64[]"
            },
            {
              "internalType": "uint64[]",
              "name": "rval",
              "type": "uint64[]"
            }
          ],
          "internalType": "struct ContractDBMulti.QueryMulti",
          "name": "q",
          "type": "tuple"
        },
        {
          "components": [
            {
              "internalType": "uint256",
              "name": "sum",
              "type": "uint256"
            },
            {
              "internalType": "uint256",
              "name": "a0",
              "type": "uint256"
            },
            {
              "internalType": "uint256",
              "name": "a1",
              "type": "uint256"
            },
            {
              "internalType": "uint256",
              "name": "a0inv",
              "type": "uint256"
            },
            {
              "components": [
                {
                  "internalType": "uint256",
                  "name": "X",
                  "type": "uint256"
                },
                {
                  "internalType": "uint256",
                  "name": "Y",
                  "type": "uint256"
                }
              ],
              "internalType": "struct ContractDBMulti.G1Point",
              "name": "fR",
              "type": "tuple"
            },
            {
              "components": [
                {
                  "internalType": "uint256",
                  "name": "X",
                  "type": "uint256"
                },
                {
                  "internalType": "uint256",
                  "name": "Y",
                  "type": "uint256"
                }
              ],
              "internalType": "struct ContractDBMulti.G1Point",
              "name": "w1",
              "type": "tuple"
            },
            {
              "components": [
                {
                  "internalType": "uint256",
                  "name": "X",
                  "type": "uint256"
                },
                {
                  "internalType": "uint256",
                  "name": "Y",
                  "type": "uint256"
                }
              ],
              "internalType": "struct ContractDBMulti.G1Point",
              "name": "w2",
              "type": "tuple"
            },
            {
              "components": [
                {
                  "internalType": "uint64",
                  "name": "key",
                  "type": "uint64"
                },
                {
                  "internalType": "uint64",
                  "name": "nxt",
                  "type": "uint64"
                },
                {
                  "components": [
                    {
                      "internalType": "uint256",
                      "name": "X",
                      "type": "uint256"
                    },
                    {
                      "internalType": "uint256",
                      "name": "Y",
                      "type": "uint256"
                    }
                  ],
                  "internalType": "struct ContractDBMulti.G1Point",
                  "name": "value",
                  "type": "tuple"
                }
              ],
              "internalType": "struct ContractDBMulti.DicItemE[]",
              "name": "itemE",
              "type": "tuple[]"
            },
            {
              "components": [
                {
                  "internalType": "uint64",
                  "name": "key",
                  "type": "uint64"
                },
                {
                  "internalType": "uint64",
                  "name": "nxt",
                  "type": "uint64"
                },
                {
                  "components": [
                    {
                      "internalType": "uint256[2]",
                      "name": "X",
                      "type": "uint256[2]"
                    },
                    {
                      "internalType": "uint256[2]",
                      "name": "Y",
                      "type": "uint256[2]"
                    }
                  ],
                  "internalType": "struct ContractDBMulti.G2Point",
                  "name": "value",
                  "type": "tuple"
                }
              ],
              "internalType": "struct ContractDBMulti.DicItemR[]",
              "name": "itemR",
              "type": "tuple[]"
            },
            {
              "internalType": "uint256[]",
              "name": "itemInv",
              "type": "uint256[]"
            },
            {
              "components": [
                {
                  "internalType": "uint256[2]",
                  "name": "X",
                  "type": "uint256[2]"
                },
                {
                  "internalType": "uint256[2]",
                  "name": "Y",
                  "type": "uint256[2]"
                }
              ],
              "internalType": "struct ContractDBMulti.G2Point[]",
              "name": "itemWit",
              "type": "tuple[]"
            },
            {
              "components": [
                {
                  "internalType": "uint256",
                  "name": "X",
                  "type": "uint256"
                },
                {
                  "internalType": "uint256",
                  "name": "Y",
                  "type": "uint256"
                }
              ],
              "internalType": "struct ContractDBMulti.G1Point[]",
              "name": "iset",
              "type": "tuple[]"
            },
            {
              "components": [
                {
                  "internalType": "uint256",
                  "name": "X",
                  "type": "uint256"
                },
                {
                  "internalType": "uint256",
                  "name": "Y",
                  "type": "uint256"
                }
              ],
              "internalType": "struct ContractDBMulti.G1Point[]",
              "name": "igcd",
              "type": "tuple[]"
            },
            {
              "components": [
                {
                  "internalType": "uint256[2]",
                  "name": "X",
                  "type": "uint256[2]"
                },
                {
                  "internalType": "uint256[2]",
                  "name": "Y",
                  "type": "uint256[2]"
                }
              ],
              "internalType": "struct ContractDBMulti.G2Point[]",
              "name": "iwit",
              "type": "tuple[]"
            }
          ],
          "internalType": "struct ContractDBMulti.VerifySumParam",
          "name": "param",
          "type": "tuple"
        }
      ],
      "name": "VerifyQueryMulti",
      "outputs": [
        {
          "internalType": "bool",
          "name": "ver",
          "type": "bool"
        },
        {
          "internalType": "uint256",
          "name": "flag",
          "type": "uint256"
        }
      ],
      "stateMutability": "view",
      "type": "function",
      "constant": true
    },
    {
      "inputs": [],
      "name": "TestGas0Multi",
      "outputs": [
        {
          "internalType": "bool",
          "name": "",
          "type": "bool"
        },
        {
          "internalType": "uint256",
          "name": "",
          "type": "uint256"
        }
      ],
      "stateMutability": "nonpayable",
      "type": "function"
    },
    {
      "inputs": [
        {
          "components": [
            {
              "internalType": "uint8",
              "name": "index",
              "type": "uint8"
            },
            {
              "internalType": "uint8[]",
              "name": "rtype",
              "type": "uint8[]"
            },
            {
              "internalType": "uint64[]",
              "name": "eval",
              "type": "uint64[]"
            },
            {
              "internalType": "uint64[]",
              "name": "rval",
              "type": "uint64[]"
            }
          ],
          "internalType": "struct ContractDBMulti.QueryMulti",
          "name": "q",
          "type": "tuple"
        },
        {
          "components": [
            {
              "internalType": "uint256",
              "name": "sum",
              "type": "uint256"
            },
            {
              "internalType": "uint256",
              "name": "a0",
              "type": "uint256"
            },
            {
              "internalType": "uint256",
              "name": "a1",
              "type": "uint256"
            },
            {
              "internalType": "uint256",
              "name": "a0inv",
              "type": "uint256"
            },
            {
              "components": [
                {
                  "internalType": "uint256",
                  "name": "X",
                  "type": "uint256"
                },
                {
                  "internalType": "uint256",
                  "name": "Y",
                  "type": "uint256"
                }
              ],
              "internalType": "struct ContractDBMulti.G1Point",
              "name": "fR",
              "type": "tuple"
            },
            {
              "components": [
                {
                  "internalType": "uint256",
                  "name": "X",
                  "type": "uint256"
                },
                {
                  "internalType": "uint256",
                  "name": "Y",
                  "type": "uint256"
                }
              ],
              "internalType": "struct ContractDBMulti.G1Point",
              "name": "w1",
              "type": "tuple"
            },
            {
              "components": [
                {
                  "internalType": "uint256",
                  "name": "X",
                  "type": "uint256"
                },
                {
                  "internalType": "uint256",
                  "name": "Y",
                  "type": "uint256"
                }
              ],
              "internalType": "struct ContractDBMulti.G1Point",
              "name": "w2",
              "type": "tuple"
            },
            {
              "components": [
                {
                  "internalType": "uint64",
                  "name": "key",
                  "type": "uint64"
                },
                {
                  "internalType": "uint64",
                  "name": "nxt",
                  "type": "uint64"
                },
                {
                  "components": [
                    {
                      "internalType": "uint256",
                      "name": "X",
                      "type": "uint256"
                    },
                    {
                      "internalType": "uint256",
                      "name": "Y",
                      "type": "uint256"
                    }
                  ],
                  "internalType": "struct ContractDBMulti.G1Point",
                  "name": "value",
                  "type": "tuple"
                }
              ],
              "internalType": "struct ContractDBMulti.DicItemE[]",
              "name": "itemE",
              "type": "tuple[]"
            },
            {
              "components": [
                {
                  "internalType": "uint64",
                  "name": "key",
                  "type": "uint64"
                },
                {
                  "internalType": "uint64",
                  "name": "nxt",
                  "type": "uint64"
                },
                {
                  "components": [
                    {
                      "internalType": "uint256[2]",
                      "name": "X",
                      "type": "uint256[2]"
                    },
                    {
                      "internalType": "uint256[2]",
                      "name": "Y",
                      "type": "uint256[2]"
                    }
                  ],
                  "internalType": "struct ContractDBMulti.G2Point",
                  "name": "value",
                  "type": "tuple"
                }
              ],
              "internalType": "struct ContractDBMulti.DicItemR[]",
              "name": "itemR",
              "type": "tuple[]"
            },
            {
              "internalType": "uint256[]",
              "name": "itemInv",
              "type": "uint256[]"
            },
            {
              "components": [
                {
                  "internalType": "uint256[2]",
                  "name": "X",
                  "type": "uint256[2]"
                },
                {
                  "internalType": "uint256[2]",
                  "name": "Y",
                  "type": "uint256[2]"
                }
              ],
              "internalType": "struct ContractDBMulti.G2Point[]",
              "name": "itemWit",
              "type": "tuple[]"
            },
            {
              "components": [
                {
                  "internalType": "uint256",
                  "name": "X",
                  "type": "uint256"
                },
                {
                  "internalType": "uint256",
                  "name": "Y",
                  "type": "uint256"
                }
              ],
              "internalType": "struct ContractDBMulti.G1Point[]",
              "name": "iset",
              "type": "tuple[]"
            },
            {
              "components": [
                {
                  "internalType": "uint256",
                  "name": "X",
                  "type": "uint256"
                },
                {
                  "internalType": "uint256",
                  "name": "Y",
                  "type": "uint256"
                }
              ],
              "internalType": "struct ContractDBMulti.G1Point[]",
              "name": "igcd",
              "type": "tuple[]"
            },
            {
              "components": [
                {
                  "internalType": "uint256[2]",
                  "name": "X",
                  "type": "uint256[2]"
                },
                {
                  "internalType": "uint256[2]",
                  "name": "Y",
                  "type": "uint256[2]"
                }
              ],
              "internalType": "struct ContractDBMulti.G2Point[]",
              "name": "iwit",
              "type": "tuple[]"
            }
          ],
          "internalType": "struct ContractDBMulti.VerifySumParam",
          "name": "param",
          "type": "tuple"
        }
      ],
      "name": "TestGas1Multi",
      "outputs": [
        {
          "internalType": "bool",
          "name": "",
          "type": "bool"
        },
        {
          "internalType": "uint256",
          "name": "",
          "type": "uint256"
        }
      ],
      "stateMutability": "nonpayable",
      "type": "function"
    },
    {
      "inputs": [
        {
          "components": [
            {
              "internalType": "uint8",
              "name": "index",
              "type": "uint8"
            },
            {
              "internalType": "uint8[]",
              "name": "rtype",
              "type": "uint8[]"
            },
            {
              "internalType": "uint64[]",
              "name": "eval",
              "type": "uint64[]"
            },
            {
              "internalType": "uint64[]",
              "name": "rval",
              "type": "uint64[]"
            }
          ],
          "internalType": "struct ContractDBMulti.QueryMulti",
          "name": "q",
          "type": "tuple"
        },
        {
          "components": [
            {
              "internalType": "uint256",
              "name": "sum",
              "type": "uint256"
            },
            {
              "internalType": "uint256",
              "name": "a0",
              "type": "uint256"
            },
            {
              "internalType": "uint256",
              "name": "a1",
              "type": "uint256"
            },
            {
              "internalType": "uint256",
              "name": "a0inv",
              "type": "uint256"
            },
            {
              "components": [
                {
                  "internalType": "uint256",
                  "name": "X",
                  "type": "uint256"
                },
                {
                  "internalType": "uint256",
                  "name": "Y",
                  "type": "uint256"
                }
              ],
              "internalType": "struct ContractDBMulti.G1Point",
              "name": "fR",
              "type": "tuple"
            },
            {
              "components": [
                {
                  "internalType": "uint256",
                  "name": "X",
                  "type": "uint256"
                },
                {
                  "internalType": "uint256",
                  "name": "Y",
                  "type": "uint256"
                }
              ],
              "internalType": "struct ContractDBMulti.G1Point",
              "name": "w1",
              "type": "tuple"
            },
            {
              "components": [
                {
                  "internalType": "uint256",
                  "name": "X",
                  "type": "uint256"
                },
                {
                  "internalType": "uint256",
                  "name": "Y",
                  "type": "uint256"
                }
              ],
              "internalType": "struct ContractDBMulti.G1Point",
              "name": "w2",
              "type": "tuple"
            },
            {
              "components": [
                {
                  "internalType": "uint64",
                  "name": "key",
                  "type": "uint64"
                },
                {
                  "internalType": "uint64",
                  "name": "nxt",
                  "type": "uint64"
                },
                {
                  "components": [
                    {
                      "internalType": "uint256",
                      "name": "X",
                      "type": "uint256"
                    },
                    {
                      "internalType": "uint256",
                      "name": "Y",
                      "type": "uint256"
                    }
                  ],
                  "internalType": "struct ContractDBMulti.G1Point",
                  "name": "value",
                  "type": "tuple"
                }
              ],
              "internalType": "struct ContractDBMulti.DicItemE[]",
              "name": "itemE",
              "type": "tuple[]"
            },
            {
              "components": [
                {
                  "internalType": "uint64",
                  "name": "key",
                  "type": "uint64"
                },
                {
                  "internalType": "uint64",
                  "name": "nxt",
                  "type": "uint64"
                },
                {
                  "components": [
                    {
                      "internalType": "uint256[2]",
                      "name": "X",
                      "type": "uint256[2]"
                    },
                    {
                      "internalType": "uint256[2]",
                      "name": "Y",
                      "type": "uint256[2]"
                    }
                  ],
                  "internalType": "struct ContractDBMulti.G2Point",
                  "name": "value",
                  "type": "tuple"
                }
              ],
              "internalType": "struct ContractDBMulti.DicItemR[]",
              "name": "itemR",
              "type": "tuple[]"
            },
            {
              "internalType": "uint256[]",
              "name": "itemInv",
              "type": "uint256[]"
            },
            {
              "components": [
                {
                  "internalType": "uint256[2]",
                  "name": "X",
                  "type": "uint256[2]"
                },
                {
                  "internalType": "uint256[2]",
                  "name": "Y",
                  "type": "uint256[2]"
                }
              ],
              "internalType": "struct ContractDBMulti.G2Point[]",
              "name": "itemWit",
              "type": "tuple[]"
            },
            {
              "components": [
                {
                  "internalType": "uint256",
                  "name": "X",
                  "type": "uint256"
                },
                {
                  "internalType": "uint256",
                  "name": "Y",
                  "type": "uint256"
                }
              ],
              "internalType": "struct ContractDBMulti.G1Point[]",
              "name": "iset",
              "type": "tuple[]"
            },
            {
              "components": [
                {
                  "internalType": "uint256",
                  "name": "X",
                  "type": "uint256"
                },
                {
                  "internalType": "uint256",
                  "name": "Y",
                  "type": "uint256"
                }
              ],
              "internalType": "struct ContractDBMulti.G1Point[]",
              "name": "igcd",
              "type": "tuple[]"
            },
            {
              "components": [
                {
                  "internalType": "uint256[2]",
                  "name": "X",
                  "type": "uint256[2]"
                },
                {
                  "internalType": "uint256[2]",
                  "name": "Y",
                  "type": "uint256[2]"
                }
              ],
              "internalType": "struct ContractDBMulti.G2Point[]",
              "name": "iwit",
              "type": "tuple[]"
            }
          ],
          "internalType": "struct ContractDBMulti.VerifySumParam",
          "name": "param",
          "type": "tuple"
        }
      ],
      "name": "TestGas2Multi",
      "outputs": [
        {
          "internalType": "bool",
          "name": "ver",
          "type": "bool"
        },
        {
          "internalType": "uint256",
          "name": "flag",
          "type": "uint256"
        }
      ],
      "stateMutability": "nonpayable",
      "type": "function"
    }
  ],
  "bytecode": "0x6080604052604051806040016040528060018152602001600281525060016000820151816000015560208201518160010155505060405180604001604052807f0175333a0b1a5016ca39916a1c45955f24ae8d6f32262df6531e5c3d8fc3301881526020017f2cba40e2283d84ba2fefc2f2b81becf9f2472056cda315c19f8b70227d13a91a815250600360008201518160000155602082015181600101555050604051806040016040528060405180604001604052807f198e9393920d483a7260bfb731fb5d25f1aa493335a9e71297e485b7aef312c281526020017f1800deef121f1e76426a00665e5c4479674322d4f75edadd46debd5cd992f6ed815250815260200160405180604001604052807f090689d0585ff075ec9e99ad690c3395bc4b313370b38ef355acdadcd122975b81526020017f12c85ea5db8c6deb4aab71808dcb408fe3d1e7690c43d37b4ce6cc0166fa7daa81525081525060056000820151816000019060026200017892919062000545565b506020820151816002019060026200019292919062000545565b505050604051806040016040528060405180604001604052807f1cd271d9626680df4c5fd68bfb339d0991d11b5df7cbb9aad8e0758caef7892981526020017f1b2477fca310382c532cf29c2fb3bb767d30a7cdcce6c0ec37ddbf6d444d30b2815250815260200160405180604001604052807f04d6c66ca774b11f25f5e9ed448a6cd37ab0a84cdbdb9e97c27b5cf00e78760881526020017f07f3706b941d23a8253cf98532b6c4e58024176e004dff204b2a1bc7dcb6234581525081525060096000820151816000019060026200026d92919062000545565b506020820151816002019060026200028792919062000545565b5050503480156200029757600080fd5b507f0d9e214c74ae2b6af67b1b1f5c79ed91439e155b66f99ae2986cb654ce490fca600d600060058110620002d157620002d0620005a9565b5b60020201600001819055507f1c6eedc72c33a903e097949cb43421e3791f30f1edb82241c6462995d5b25282600d600060058110620003155762000314620005a9565b5b60020201600101819055507f2981337e4bbf68ac760d9196806ca6269a45459804763f54da13171d869fa16b600d600160058110620003595762000358620005a9565b5b60020201600001819055507f236593e42850d834210ea7441ca99be818efaf2bee3b3f9e3414515e33d227ab600d6001600581106200039d576200039c620005a9565b5b60020201600101819055507f2cc317106c20abcaed5b928f513e72dd1e83f1459ba4bde840074855b9f735c9600d600260058110620003e157620003e0620005a9565b5b60020201600001819055507f101f4f16e8b14761642d739daa7760799cb065a31dbfcf1116c00a8c7a1b3315600d600260058110620004255762000424620005a9565b5b60020201600101819055507ebaa016bc411438480812988f654bc20b7ebebbc623d2c0b1431c61c5db4f48600d600360058110620004685762000467620005a9565b5b60020201600001819055507f2cd17b20f54fb0c62affa10bfdde828c5c2068c14026200d78d89f18c6164ef0600d600360058110620004ac57620004ab620005a9565b5b60020201600101819055507f2d9b6da93e58f77806382043fdc11ab0cbb80eccecb82fd0890b87fe3dbd0271600d600460058110620004f057620004ef620005a9565b5b60020201600001819055507f1e85afab19f825171e3496009f7a6bd95fd7090ea43a0f1c94661bf19bcd1aee600d600460058110620005345762000533620005a9565b5b6002020160010181905550620005d8565b826002810192821562000577579160200282015b828111156200057657825182559160200191906001019062000559565b5b5090506200058691906200058a565b5090565b5b80821115620005a55760008160009055506001016200058b565b5090565b7f4e487b7100000000000000000000000000000000000000000000000000000000600052603260045260246000fd5b613d7980620005e86000396000f3fe608060405234801561001057600080fd5b506004361061004c5760003560e01c80630c3ad2d81461005157806363b9b52814610070578063b43b0b0c146100a1578063c397d19d146100d2575b600080fd5b610059610103565b60405161006792919061374f565b60405180910390f35b61008a60048036038101906100859190613573565b610119565b60405161009892919061374f565b60405180910390f35b6100bb60048036038101906100b69190613573565b612b3f565b6040516100c992919061374f565b60405180910390f35b6100ec60048036038101906100e79190613573565b612ba6565b6040516100fa92919061374f565b60405180910390f35b6000806000808190555060016000915091509091565b600080600080600060608060008960000160208101906101399190613618565b60ff1614156101f557600c67ffffffffffffffff81111561015d5761015c613c84565b5b60405190808252806020026020018201604052801561019657816020015b6101836132a1565b81526020019060019003908161017b5790505b509150600c67ffffffffffffffff8111156101b4576101b3613c84565b5b6040519080825280602002602001820160405280156101ed57816020015b6101da6132bb565b8152602001906001900390816101d25790505b509050610550565b600189600001602081019061020a9190613618565b60ff1614156102c657600867ffffffffffffffff81111561022e5761022d613c84565b5b60405190808252806020026020018201604052801561026757816020015b6102546132a1565b81526020019060019003908161024c5790505b509150600867ffffffffffffffff81111561028557610284613c84565b5b6040519080825280602002602001820160405280156102be57816020015b6102ab6132bb565b8152602001906001900390816102a35790505b50905061054f565b60028960000160208101906102db9190613618565b60ff16141561039757600e67ffffffffffffffff8111156102ff576102fe613c84565b5b60405190808252806020026020018201604052801561033857816020015b6103256132a1565b81526020019060019003908161031d5790505b509150600e67ffffffffffffffff81111561035657610355613c84565b5b60405190808252806020026020018201604052801561038f57816020015b61037c6132bb565b8152602001906001900390816103745790505b50905061054e565b60038960000160208101906103ac9190613618565b60ff16141561046857600a67ffffffffffffffff8111156103d0576103cf613c84565b5b60405190808252806020026020018201604052801561040957816020015b6103f66132a1565b8152602001906001900390816103ee5790505b509150600a67ffffffffffffffff81111561042757610426613c84565b5b60405190808252806020026020018201604052801561046057816020015b61044d6132bb565b8152602001906001900390816104455790505b50905061054d565b600489600001602081019061047d9190613618565b60ff16141561053957601067ffffffffffffffff8111156104a1576104a0613c84565b5b6040519080825280602002602001820160405280156104da57816020015b6104c76132a1565b8152602001906001900390816104bf5790505b509150601067ffffffffffffffff8111156104f8576104f7613c84565b5b60405190808252806020026020018201604052801561053157816020015b61051e6132bb565b8152602001906001900390816105165790505b50905061054c565b600061115c965096505050505050612b38565b5b5b5b5b6001886080016000013514801561056e575060028860800160200135145b1561058b576000886000013514606f965096505050505050612b38565b600161059f89602001358a60600135612bc3565b146105b657600060de965096505050505050612b38565b87600001356105cd89606001358a60400135612bc3565b146105e557600061014d965096505050505050612b38565b6106018860c0018036038101906105fc9190613519565b612bf1565b8260008151811061061557610614613c55565b5b6020026020010181905250610672886080018036038101906106379190613519565b61066d6106686001604051806040016040529081600082015481526020016001820154815250508c60200135612caf565b612bf1565b612d3b565b8260018151811061068657610685613c55565b5b60200260200101819052506106ae88610100018036038101906106a99190613519565b612bf1565b826002815181106106c2576106c1613c55565b5b602002602001018190525061071f8860c0018036038101906106e49190613519565b61071a6107156001604051806040016040529081600082015481526020016001820154815250508c60400135612caf565b612bf1565b612d3b565b8260038151811061073357610732613c55565b5b6020026020010181905250600960405180604001604052908160008201600280602002604051908101604052809291908260028015610787576020028201915b815481526020019060010190808311610773575b50505050508152602001600282016002806020026040519081016040528092919082600280156107cc576020028201915b8154815260200190600101908083116107b8575b505050505081525050816000815181106107e9576107e8613c55565b5b602002602001018190525060056040518060400160405290816000820160028060200260405190810160405280929190826002801561083d576020028201915b815481526020019060010190808311610829575b5050505050815260200160028201600280602002604051908101604052809291908260028015610882576020028201915b81548152602001906001019080831161086e575b5050505050815250508160018151811061089f5761089e613c55565b5b60200260200101819052506009604051806040016040529081600082016002806020026040519081016040528092919082600280156108f3576020028201915b8154815260200190600101908083116108df575b5050505050815260200160028201600280602002604051908101604052809291908260028015610938576020028201915b815481526020019060010190808311610924575b5050505050815250508160028151811061095557610954613c55565b5b60200260200101819052506005604051806040016040529081600082016002806020026040519081016040528092919082600280156109a9576020028201915b815481526020019060010190808311610995575b50505050508152602001600282016002806020026040519081016040528092919082600280156109ee576020028201915b8154815260200190600101908083116109da575b50505050508152505081600381518110610a0b57610a0a613c55565b5b602002602001018190525087806101400190610a279190613778565b6000818110610a3957610a38613c55565b5b9050608002016000016020810190610a5191906135eb565b67ffffffffffffffff16898060400190610a6b9190613904565b6000818110610a7d57610a7c613c55565b5b9050602002016020810190610a9291906135eb565b67ffffffffffffffff1614610ab45760006104b1965096505050505050612b38565b60001515610b1389806101400190610acc9190613778565b6000818110610ade57610add613c55565b5b9050608002018a806101800190610af591906138a1565b6000818110610b0757610b06613c55565b5b90506020020135612ded565b15151415610b2d576000600e965096505050505050612b38565b610bb1610bac610b866001604051806040016040529081600082015481526020016001820154815250508b806101800190610b6891906138a1565b6000818110610b7a57610b79613c55565b5b90506020020135612caf565b600360405180604001604052908160008201548152602001600182015481525050612d3b565b612bf1565b82600481518110610bc557610bc4613c55565b5b6020026020010181905250600d896000016020810190610be59190613618565b60ff1660058110610bf957610bf8613c55565b5b600202016040518060400160405290816000820154815260200160018201548152505082600581518110610c3057610c2f613c55565b5b602002602001018190525087806101a00190610c4c919061383e565b6000818110610c5e57610c5d613c55565b5b905060800201803603810190610c749190613546565b81600481518110610c8857610c87613c55565b5b6020026020010181905250600560405180604001604052908160008201600280602002604051908101604052809291908260028015610cdc576020028201915b815481526020019060010190808311610cc8575b5050505050815260200160028201600280602002604051908101604052809291908260028015610d21576020028201915b815481526020019060010190808311610d0d575b50505050508152505081600581518110610d3e57610d3d613c55565b5b60200260200101819052506002896000016020810190610d5e9190613618565b60ff161480610d8257506003896000016020810190610d7d9190613618565b60ff16145b80610da257506004896000016020810190610d9d9190613618565b60ff16145b156110cb5787806101400190610db89190613778565b6001818110610dca57610dc9613c55565b5b9050608002016000016020810190610de291906135eb565b67ffffffffffffffff16898060400190610dfc9190613904565b6001818110610e0e57610e0d613c55565b5b9050602002016020810190610e2391906135eb565b67ffffffffffffffff1614610e455760006104b2965096505050505050612b38565b60001515610ea489806101400190610e5d9190613778565b6001818110610e6f57610e6e613c55565b5b9050608002018a806101800190610e8691906138a1565b6001818110610e9857610e97613c55565b5b90506020020135612ded565b15151415610ebe576000600e965096505050505050612b38565b610f42610f3d610f176001604051806040016040529081600082015481526020016001820154815250508b806101800190610ef991906138a1565b6001818110610f0b57610f0a613c55565b5b90506020020135612caf565b600360405180604001604052908160008201548152602001600182015481525050612d3b565b612bf1565b82600681518110610f5657610f55613c55565b5b602002602001018190525087806101400190610f729190613778565b6000818110610f8457610f83613c55565b5b905060800201604001803603810190610f9d9190613519565b82600781518110610fb157610fb0613c55565b5b602002602001018190525087806101a00190610fcd919061383e565b6001818110610fdf57610fde613c55565b5b905060800201803603810190610ff59190613546565b8160068151811061100957611008613c55565b5b602002602001018190525060056040518060400160405290816000820160028060200260405190810160405280929190826002801561105d576020028201915b815481526020019060010190808311611049575b50505050508152602001600282016002806020026040519081016040528092919082600280156110a2576020028201915b81548152602001906001019080831161108e575b505050505081525050816007815181106110bf576110be613c55565b5b60200260200101819052505b60048960000160208101906110e09190613618565b60ff16141561140d57878061014001906110fa9190613778565b600281811061110c5761110b613c55565b5b905060800201600001602081019061112491906135eb565b67ffffffffffffffff1689806040019061113e9190613904565b60028181106111505761114f613c55565b5b905060200201602081019061116591906135eb565b67ffffffffffffffff16146111875760006104b3965096505050505050612b38565b600015156111e68980610140019061119f9190613778565b60028181106111b1576111b0613c55565b5b9050608002018a8061018001906111c891906138a1565b60028181106111da576111d9613c55565b5b90506020020135612ded565b15151415611200576000600e965096505050505050612b38565b61128461127f6112596001604051806040016040529081600082015481526020016001820154815250508b80610180019061123b91906138a1565b600281811061124d5761124c613c55565b5b90506020020135612caf565b600360405180604001604052908160008201548152602001600182015481525050612d3b565b612bf1565b8260088151811061129857611297613c55565b5b6020026020010181905250878061014001906112b49190613778565b60018181106112c6576112c5613c55565b5b9050608002016040018036038101906112df9190613519565b826009815181106112f3576112f2613c55565b5b602002602001018190525087806101a0019061130f919061383e565b600281811061132157611320613c55565b5b9050608002018036038101906113379190613546565b8160088151811061134b5761134a613c55565b5b602002602001018190525060056040518060400160405290816000820160028060200260405190810160405280929190826002801561139f576020028201915b81548152602001906001019080831161138b575b50505050508152602001600282016002806020026040519081016040528092919082600280156113e4576020028201915b8154815260200190600101908083116113d0575b5050505050815250508160098151811061140157611400613c55565b5b60200260200101819052505b60008960000160208101906114229190613618565b60ff161480611446575060018960000160208101906114419190613618565b60ff16145b156114585760069450600093506114ad565b600289600001602081019061146d9190613618565b60ff1614806114915750600389600001602081019061148c9190613618565b60ff16145b156114a35760089450600193506114ac565b600a9450600293505b5b60008960000160208101906114c29190613618565b60ff1614806114e6575060028960000160208101906114e19190613618565b60ff16145b80611506575060048960000160208101906115019190613618565b60ff16145b156126db57600189806020019061151d9190613967565b600081811061152f5761152e613c55565b5b90506020020160208101906115449190613618565b60ff1614156117be57600015158980606001906115619190613904565b600081811061157357611572613c55565b5b905060200201602081019061158891906135eb565b67ffffffffffffffff16898061016001906115a391906137db565b60008181106115b5576115b4613c55565b5b905060c0020160000160208101906115cd91906135eb565b67ffffffffffffffff161080156116685750888061016001906115f091906137db565b600081811061160257611601613c55565b5b905060c00201602001602081019061161a91906135eb565b67ffffffffffffffff168a80606001906116349190613904565b600081811061164657611645613c55565b5b905060200201602081019061165b91906135eb565b67ffffffffffffffff1611155b15151415611683576000612fa9965096505050505050612b38565b600015158980606001906116979190613904565b60018181106116a9576116a8613c55565b5b90506020020160208101906116be91906135eb565b67ffffffffffffffff16898061016001906116d991906137db565b60018181106116eb576116ea613c55565b5b905060c00201600001602081019061170391906135eb565b67ffffffffffffffff161115801561179e57508880610160019061172791906137db565b600181811061173957611738613c55565b5b905060c00201602001602081019061175191906135eb565b67ffffffffffffffff168a806060019061176b9190613904565b600181811061177d5761177c613c55565b5b905060200201602081019061179291906135eb565b67ffffffffffffffff16105b151514156117b95760006104b2965096505050505050612b38565b611fed565b60028980602001906117d09190613967565b60008181106117e2576117e1613c55565b5b90506020020160208101906117f79190613618565b60ff161415611a7157600015158980606001906118149190613904565b600081811061182657611825613c55565b5b905060200201602081019061183b91906135eb565b67ffffffffffffffff168980610160019061185691906137db565b600081811061186857611867613c55565b5b905060c00201600001602081019061188091906135eb565b67ffffffffffffffff161115801561191b5750888061016001906118a491906137db565b60008181106118b6576118b5613c55565b5b905060c0020160200160208101906118ce91906135eb565b67ffffffffffffffff168a80606001906118e89190613904565b60008181106118fa576118f9613c55565b5b905060200201602081019061190f91906135eb565b67ffffffffffffffff16105b15151415611936576000612fab965096505050505050612b38565b6000151589806060019061194a9190613904565b600181811061195c5761195b613c55565b5b905060200201602081019061197191906135eb565b67ffffffffffffffff168980610160019061198c91906137db565b600181811061199e5761199d613c55565b5b905060c0020160000160208101906119b691906135eb565b67ffffffffffffffff1611158015611a515750888061016001906119da91906137db565b60018181106119ec576119eb613c55565b5b905060c002016020016020810190611a0491906135eb565b67ffffffffffffffff168a8060600190611a1e9190613904565b6001818110611a3057611a2f613c55565b5b9050602002016020810190611a4591906135eb565b67ffffffffffffffff16105b15151415611a6c576000612fac965096505050505050612b38565b611fec565b6003898060200190611a839190613967565b6000818110611a9557611a94613c55565b5b9050602002016020810190611aaa9190613618565b60ff161415611d245760001515898060600190611ac79190613904565b6000818110611ad957611ad8613c55565b5b9050602002016020810190611aee91906135eb565b67ffffffffffffffff1689806101600190611b0991906137db565b6000818110611b1b57611b1a613c55565b5b905060c002016000016020810190611b3391906135eb565b67ffffffffffffffff16108015611bce575088806101600190611b5691906137db565b6000818110611b6857611b67613c55565b5b905060c002016020016020810190611b8091906135eb565b67ffffffffffffffff168a8060600190611b9a9190613904565b6000818110611bac57611bab613c55565b5b9050602002016020810190611bc191906135eb565b67ffffffffffffffff1611155b15151415611be9576000612fad965096505050505050612b38565b60001515898060600190611bfd9190613904565b6001818110611c0f57611c0e613c55565b5b9050602002016020810190611c2491906135eb565b67ffffffffffffffff1689806101600190611c3f91906137db565b6001818110611c5157611c50613c55565b5b905060c002016000016020810190611c6991906135eb565b67ffffffffffffffff16108015611d04575088806101600190611c8c91906137db565b6001818110611c9e57611c9d613c55565b5b905060c002016020016020810190611cb691906135eb565b67ffffffffffffffff168a8060600190611cd09190613904565b6001818110611ce257611ce1613c55565b5b9050602002016020810190611cf791906135eb565b67ffffffffffffffff1611155b15151415611d1f576000612fae965096505050505050612b38565b611feb565b6004898060200190611d369190613967565b6000818110611d4857611d47613c55565b5b9050602002016020810190611d5d9190613618565b60ff161415611fd75760001515898060600190611d7a9190613904565b6000818110611d8c57611d8b613c55565b5b9050602002016020810190611da191906135eb565b67ffffffffffffffff1689806101600190611dbc91906137db565b6000818110611dce57611dcd613c55565b5b905060c002016000016020810190611de691906135eb565b67ffffffffffffffff1611158015611e81575088806101600190611e0a91906137db565b6000818110611e1c57611e1b613c55565b5b905060c002016020016020810190611e3491906135eb565b67ffffffffffffffff168a8060600190611e4e9190613904565b6000818110611e6057611e5f613c55565b5b9050602002016020810190611e7591906135eb565b67ffffffffffffffff16105b15151415611e9c576000612faf965096505050505050612b38565b60001515898060600190611eb09190613904565b6001818110611ec257611ec1613c55565b5b9050602002016020810190611ed791906135eb565b67ffffffffffffffff1689806101600190611ef291906137db565b6001818110611f0457611f03613c55565b5b905060c002016000016020810190611f1c91906135eb565b67ffffffffffffffff16108015611fb7575088806101600190611f3f91906137db565b6001818110611f5157611f50613c55565b5b905060c002016020016020810190611f6991906135eb565b67ffffffffffffffff168a8060600190611f839190613904565b6001818110611f9557611f94613c55565b5b9050602002016020810190611faa91906135eb565b67ffffffffffffffff1611155b15151415611fd2576000612fb0965096505050505050612b38565b611fea565b6000612fb1965096505050505050612b38565b5b5b5b612009886080018036038101906120049190613519565b612bf1565b82868151811061201c5761201b613c55565b5b6020026020010181905250600160405180604001604052908160008201548152602001600182015481525050826001876120569190613a15565b8151811061206757612066613c55565b5b60200260200101819052508780610160019061208391906137db565b600081811061209557612094613c55565b5b905060c002016040018036038101906120ae9190613546565b8186815181106120c1576120c0613c55565b5b6020026020010181905250878061016001906120dd91906137db565b60018181106120ef576120ee613c55565b5b905060c002016040018036038101906121089190613546565b816001876121169190613a15565b8151811061212757612126613c55565b5b60200260200101819052506000151561219c8980610160019061214a91906137db565b600081811061215c5761215b613c55565b5b905060c002018a80610180019061217391906138a1565b6001896121809190613a15565b8181106121905761218f613c55565b5b90506020020135612e95565b151514156121b7576000610309965096505050505050612b38565b60001515612221898061016001906121cf91906137db565b60018181106121e1576121e0613c55565b5b905060c002018a8061018001906121f891906138a1565b6002896122059190613a15565b81811061221557612214613c55565b5b90506020020135612e95565b1515141561223c57600061030a965096505050505050612b38565b61227f888061014001906122509190613778565b8681811061226157612260613c55565b5b90506080020160400180360381019061227a9190613519565b612bf1565b8260028761228d9190613a15565b8151811061229e5761229d613c55565b5b602002602001018190525061233061230a6001604051806040016040529081600082015481526020016001820154815250508a8061018001906122e191906138a1565b6001896122ee9190613a15565b8181106122fe576122fd613c55565b5b90506020020135612caf565b600360405180604001604052908160008201548152602001600182015481525050612d3b565b8260038761233e9190613a15565b8151811061234f5761234e613c55565b5b602002602001018190525061239d8880610140019061236e9190613778565b8681811061237f5761237e613c55565b5b9050608002016040018036038101906123989190613519565b612bf1565b826004876123ab9190613a15565b815181106123bc576123bb613c55565b5b602002602001018190525061244e6124286001604051806040016040529081600082015481526020016001820154815250508a8061018001906123ff91906138a1565b60028961240c9190613a15565b81811061241c5761241b613c55565b5b90506020020135612caf565b600360405180604001604052908160008201548152602001600182015481525050612d3b565b8260058761245c9190613a15565b8151811061246d5761246c613c55565b5b60200260200101819052506005604051806040016040529081600082016002806020026040519081016040528092919082600280156124c1576020028201915b8154815260200190600101908083116124ad575b5050505050815260200160028201600280602002604051908101604052809291908260028015612506576020028201915b8154815260200190600101908083116124f2575b5050505050815250508160028761251d9190613a15565b8151811061252e5761252d613c55565b5b602002602001018190525087806101a0019061254a919061383e565b6001866125579190613a15565b81811061256757612566613c55565b5b90506080020180360381019061257d9190613546565b8160038761258b9190613a15565b8151811061259c5761259b613c55565b5b60200260200101819052506005604051806040016040529081600082016002806020026040519081016040528092919082600280156125f0576020028201915b8154815260200190600101908083116125dc575b5050505050815260200160028201600280602002604051908101604052809291908260028015612635576020028201915b815481526020019060010190808311612621575b5050505050815250508160048761264c9190613a15565b8151811061265d5761265c613c55565b5b602002602001018190525087806101a00190612679919061383e565b6002866126869190613a15565b81811061269657612695613c55565b5b9050608002018036038101906126ac9190613546565b816005876126ba9190613a15565b815181106126cb576126ca613c55565b5b6020026020010181905250612afd565b878061014001906126ec9190613778565b6001866126f99190613a15565b81811061270957612708613c55565b5b905060800201600001602081019061272191906135eb565b67ffffffffffffffff1689806040019061273b9190613904565b6001876127489190613a15565b81811061275857612757613c55565b5b905060200201602081019061276d91906135eb565b67ffffffffffffffff161461278f576000613391965096505050505050612b38565b878061014001906127a09190613778565b6001866127ad9190613a15565b8181106127bd576127bc613c55565b5b9050608002016040016000013588608001600001351415806128205750878061014001906127eb9190613778565b6001866127f89190613a15565b81811061280857612807613c55565b5b90506080020160400160200135886080016020013514155b15612838576000610516965096505050505050612b38565b600015156128ad898061014001906128509190613778565b60018861285d9190613a15565b81811061286d5761286c613c55565b5b9050608002018a80610180019061288491906138a1565b6001896128919190613a15565b8181106128a1576128a0613c55565b5b90506020020135612ded565b151514156128c7576000600e965096505050505050612b38565b61295661295161292b6001604051806040016040529081600082015481526020016001820154815250508b80610180019061290291906138a1565b60018a61290f9190613a15565b81811061291f5761291e613c55565b5b90506020020135612caf565b600360405180604001604052908160008201548152602001600182015481525050612d3b565b612bf1565b82868151811061296957612968613c55565b5b6020026020010181905250878061014001906129859190613778565b8581811061299657612995613c55565b5b9050608002016040018036038101906129af9190613519565b826001876129bd9190613a15565b815181106129ce576129cd613c55565b5b602002602001018190525087806101a001906129ea919061383e565b6001866129f79190613a15565b818110612a0757612a06613c55565b5b905060800201803603810190612a1d9190613546565b818681518110612a3057612a2f613c55565b5b6020026020010181905250600560405180604001604052908160008201600280602002604051908101604052809291908260028015612a84576020028201915b815481526020019060010190808311612a70575b5050505050815260200160028201600280602002604051908101604052809291908260028015612ac9576020028201915b815481526020019060010190808311612ab5575b50505050508152505081600187612ae09190613a15565b81518110612af157612af0613c55565b5b60200260200101819052505b612b078282612fab565b9250600015158315151415612b295760006115b3965096505050505050612b38565b60016106139650965050505050505b9250929050565b600080612b4c8484610119565b80925081935050507f1662b5f33b72b4a2ea7aa48e44c56a648f7ab0056638a88df3c4101479d02bad8282604051612b8592919061374f565b60405180910390a18115612b9f5782600001356000819055505b9250929050565b600080826000013560008190555060016000915091509250929050565b60007f30644e72e131a029b85045b68181585d2833e84879b9709143e1f593f0000001828409905092915050565b612bf96132a1565b60008260000151148015612c11575060008260200151145b15612c345760405180604001604052806000815260200160008152509050612caa565b6040518060400160405280836000015181526020017f30644e72e131a029b85045b68181585d97816a916871ca8d3c208c16d87cfd478460200151612c799190613bc6565b7f30644e72e131a029b85045b68181585d97816a916871ca8d3c208c16d87cfd47612ca49190613ac5565b81525090505b919050565b612cb76132a1565b612cbf6132e1565b836000015181600060038110612cd857612cd7613c55565b5b602002018181525050836020015181600160038110612cfa57612cf9613c55565b5b6020020181815250508281600260038110612d1857612d17613c55565b5b602002018181525050600060608360808460076107d05a03fa9050505092915050565b612d436132a1565b612d4b613303565b836000015181600060048110612d6457612d63613c55565b5b602002018181525050836020015181600160048110612d8657612d85613c55565b5b602002018181525050826000015181600260048110612da857612da7613c55565b5b602002018181525050826020015181600360048110612dca57612dc9613c55565b5b602002018181525050600060608360c08460066107d05a03fa9050505092915050565b6000807f30644e72e131a029b85045b68181585d2833e84879b9709143e1f593f0000001846000016020810190612e2491906135eb565b856020016020810190612e3791906135eb565b86604001600001358760400160200135604051602001612e5a9493929190613691565b6040516020818303038152906040528051906020012060001c612e7d9190613bc6565b90506001612e8b8285612bc3565b1491505092915050565b6000807f30644e72e131a029b85045b68181585d2833e84879b9709143e1f593f0000001846000016020810190612ecc91906135eb565b856020016020810190612edf91906135eb565b86604001600001600160028110612ef957612ef8613c55565b5b602002013587604001600001600060028110612f1857612f17613c55565b5b602002013588604001604001600160028110612f3757612f36613c55565b5b602002013589604001604001600060028110612f5657612f55613c55565b5b6020020135604051602001612f70969594939291906136df565b6040516020818303038152906040528051906020012060001c612f939190613bc6565b90506001612fa18285612bc3565b1491505092915050565b60008060068451612fbc9190613a6b565b905060008167ffffffffffffffff811115612fda57612fd9613c84565b5b6040519080825280602002602001820160405280156130085781602001602082028036833780820191505090505b50905060005b85518110156132585760006006826130269190613a6b565b905086828151811061303b5761303a613c55565b5b602002602001015160000151836000836130559190613a15565b8151811061306657613065613c55565b5b60200260200101818152505086828151811061308557613084613c55565b5b6020026020010151602001518360018361309f9190613a15565b815181106130b0576130af613c55565b5b6020026020010181815250508582815181106130cf576130ce613c55565b5b6020026020010151600001516000600281106130ee576130ed613c55565b5b6020020151836002836131019190613a15565b8151811061311257613111613c55565b5b60200260200101818152505085828151811061313157613130613c55565b5b6020026020010151600001516001600281106131505761314f613c55565b5b6020020151836003836131639190613a15565b8151811061317457613173613c55565b5b60200260200101818152505085828151811061319357613192613c55565b5b6020026020010151602001516000600281106131b2576131b1613c55565b5b6020020151836004836131c59190613a15565b815181106131d6576131d5613c55565b5b6020026020010181815250508582815181106131f5576131f4613c55565b5b60200260200101516020015160016002811061321457613213613c55565b5b6020020151836005836132279190613a15565b8151811061323857613237613c55565b5b60200260200101818152505050808061325090613b61565b91505061300e565b50613261613325565b6000602082602086026020860160086107d05a03fa905060008260006001811061328e5761328d613c55565b5b6020020151141594505050505092915050565b604051806040016040528060008152602001600081525090565b60405180604001604052806132ce613347565b81526020016132db613347565b81525090565b6040518060600160405280600390602082028036833780820191505090505090565b6040518060800160405280600490602082028036833780820191505090505090565b6040518060200160405280600190602082028036833780820191505090505090565b6040518060400160405280600290602082028036833780820191505090505090565b600061337c613377846139ef565b6139ca565b9050808285602086028201111561339657613395613ccc565b5b60005b858110156133c657816133ac88826134da565b845260208401935060208301925050600181019050613399565b5050509392505050565b600082601f8301126133e5576133e4613cb3565b5b60026133f2848285613369565b91505092915050565b60006040828403121561341157613410613cc2565b5b61341b60406139ca565b9050600061342b848285016134da565b600083015250602061343f848285016134da565b60208301525092915050565b60006080828403121561346157613460613cc2565b5b61346b60406139ca565b9050600061347b848285016133d0565b600083015250604061348f848285016133d0565b60208301525092915050565b6000608082840312156134b1576134b0613cbd565b5b81905092915050565b600061022082840312156134d1576134d0613cbd565b5b81905092915050565b6000813590506134e981613cfe565b92915050565b6000813590506134fe81613d15565b92915050565b60008135905061351381613d2c565b92915050565b60006040828403121561352f5761352e613cdb565b5b600061353d848285016133fb565b91505092915050565b60006080828403121561355c5761355b613cdb565b5b600061356a8482850161344b565b91505092915050565b6000806040838503121561358a57613589613cdb565b5b600083013567ffffffffffffffff8111156135a8576135a7613cd6565b5b6135b48582860161349b565b925050602083013567ffffffffffffffff8111156135d5576135d4613cd6565b5b6135e1858286016134ba565b9150509250929050565b60006020828403121561360157613600613cdb565b5b600061360f848285016134ef565b91505092915050565b60006020828403121561362e5761362d613cdb565b5b600061363c84828501613504565b91505092915050565b61364e81613af9565b82525050565b61365d81613b05565b82525050565b61367461366f82613b05565b613baa565b82525050565b61368b61368682613b0f565b613bb4565b82525050565b600061369d828761367a565b6008820191506136ad828661367a565b6008820191506136bd8285613663565b6020820191506136cd8284613663565b60208201915081905095945050505050565b60006136eb828961367a565b6008820191506136fb828861367a565b60088201915061370b8287613663565b60208201915061371b8286613663565b60208201915061372b8285613663565b60208201915061373b8284613663565b602082019150819050979650505050505050565b60006040820190506137646000830185613645565b6137716020830184613654565b9392505050565b6000808335600160200384360303811261379557613794613cc7565b5b80840192508235915067ffffffffffffffff8211156137b7576137b6613cb8565b5b6020830192506080820236038313156137d3576137d2613cd1565b5b509250929050565b600080833560016020038436030381126137f8576137f7613cc7565b5b80840192508235915067ffffffffffffffff82111561381a57613819613cb8565b5b60208301925060c08202360383131561383657613835613cd1565b5b509250929050565b6000808335600160200384360303811261385b5761385a613cc7565b5b80840192508235915067ffffffffffffffff82111561387d5761387c613cb8565b5b60208301925060808202360383131561389957613898613cd1565b5b509250929050565b600080833560016020038436030381126138be576138bd613cc7565b5b80840192508235915067ffffffffffffffff8211156138e0576138df613cb8565b5b6020830192506020820236038313156138fc576138fb613cd1565b5b509250929050565b6000808335600160200384360303811261392157613920613cc7565b5b80840192508235915067ffffffffffffffff82111561394357613942613cb8565b5b60208301925060208202360383131561395f5761395e613cd1565b5b509250929050565b6000808335600160200384360303811261398457613983613cc7565b5b80840192508235915067ffffffffffffffff8211156139a6576139a5613cb8565b5b6020830192506020820236038313156139c2576139c1613cd1565b5b509250929050565b60006139d46139e5565b90506139e08282613b30565b919050565b6000604051905090565b600067ffffffffffffffff821115613a0a57613a09613c84565b5b602082029050919050565b6000613a2082613b05565b9150613a2b83613b05565b9250827fffffffffffffffffffffffffffffffffffffffffffffffffffffffffffffffff03821115613a6057613a5f613bf7565b5b828201905092915050565b6000613a7682613b05565b9150613a8183613b05565b9250817fffffffffffffffffffffffffffffffffffffffffffffffffffffffffffffffff0483118215151615613aba57613ab9613bf7565b5b828202905092915050565b6000613ad082613b05565b9150613adb83613b05565b925082821015613aee57613aed613bf7565b5b828203905092915050565b60008115159050919050565b6000819050919050565b600067ffffffffffffffff82169050919050565b600060ff82169050919050565b613b3982613ce0565b810181811067ffffffffffffffff82111715613b5857613b57613c84565b5b80604052505050565b6000613b6c82613b05565b91507fffffffffffffffffffffffffffffffffffffffffffffffffffffffffffffffff821415613b9f57613b9e613bf7565b5b600182019050919050565b6000819050919050565b6000613bbf82613cf1565b9050919050565b6000613bd182613b05565b9150613bdc83613b05565b925082613bec57613beb613c26565b5b828206905092915050565b7f4e487b7100000000000000000000000000000000000000000000000000000000600052601160045260246000fd5b7f4e487b7100000000000000000000000000000000000000000000000000000000600052601260045260246000fd5b7f4e487b7100000000000000000000000000000000000000000000000000000000600052603260045260246000fd5b7f4e487b7100000000000000000000000000000000000000000000000000000000600052604160045260246000fd5b600080fd5b600080fd5b600080fd5b600080fd5b600080fd5b600080fd5b600080fd5b600080fd5b600080fd5b6000601f19601f8301169050919050565b60008160c01b9050919050565b613d0781613b05565b8114613d1257600080fd5b50565b613d1e81613b0f565b8114613d2957600080fd5b50565b613d3581613b23565b8114613d4057600080fd5b5056fea2646970667358221220b388092366e430b4504aa1bab7d7da987ea2f9d4b76e649a2f10118f25056e7e64736f6c63430008070033",
  "immutableReferences": {},
  "source": "// SPDX-License-Identifier: MIT\npragma solidity >=0.8.0;\n\ncontract ContractDBMulti {\n    uint testgas; // used by TestGas functions\n    uint256 internal constant PRIME_P = 21888242871839275222246405745257275088548364400416034343698204186575808495617;\n    uint256 internal constant INF = 115792089237316195423570985008687907853269984665640564039457584007913129639935; // used for modAdd\n\n    uint256 constant PRIME_Q = 21888242871839275222246405745257275088696311157297823662689037894645226208583;\n\n    struct G1Point {\n        uint256 X;\n        uint256 Y;\n    }\n    // Encoding of field elements is: X[0] * z + X[1]\n    struct G2Point {\n        uint256[2] X;\n        uint256[2] Y;\n    }\n\n    struct QueryMulti {\n        uint8 index; // 0: (name,value); 1: (name,bank); 2: (name,bank,value); 3: (name,bank,addr); 4: (name,bank,addr,value)\n        uint8[] rtype; // 1 [vr,vr]; 2 (vl,vr]; 3 [vl,vr); 4 (vl,vr)\n        uint64[] eval;\n        uint64[] rval;\n    }\n\n    struct VerifySumParam {\n        // SumProof sump;\n        uint256 sum;\n        uint256 a0;\n        uint256 a1;\n        uint256 a0inv; // for saving gas, input the inv\n        G1Point fR;\n        G1Point w1;\n        G1Point w2;\n        // DicItems dic;\n        DicItemE[] itemE;\n        DicItemR[] itemR;\n        uint256[] itemInv;\n        G2Point[] itemWit;\n        // IProof iProof;\n        G1Point[] iset; // G1Point\n        G1Point[] igcd; // G1Point\n        G2Point[] iwit; // G2Point\n    }\n\n    struct DicItemE {\n        uint64 key;\n        uint64 nxt;\n        G1Point value;\n    }\n\n    struct DicItemR {\n        uint64 key;\n        uint64 nxt;\n        G2Point value;\n    }\n\n    // struct DicItems {\n    //     DicItemE[] itemE;\n    //     DicItemR[] itemR;\n    //     uint256[] itemInv;\n    //     G2Point[] itemWit;\n    // }\n\n    // struct IProof {\n    //     G1Point[] iset; // G1Point\n    //     G1Point[] igcd; // G1Point\n    //     G2Point[] iwit; // G2Point\n    // }\n\n    // struct SumProof {\n    //     uint256 sum;s\n    //     uint256 a0;\n    //     uint256 a1;\n    //     uint256 a0inv; // for saving gas, input the inv\n    //     G1Point fR;\n    //     G1Point w1;\n    //     G1Point w2;\n    // }\n\n    G1Point internal G1 = G1Point(1, 2);\n    G1Point internal sG1 =\n        G1Point(\n            659387509072190054499872531157327851974123307391705746989088605302742528024,\n            20230846700664440841635347868950212739976037558458206556816116785749819631898\n        );\n    G2Point internal G2 =\n        G2Point(\n            [\n                11559732032986387107991004021392285783925812861821192530917403151452391805634,\n                10857046999023057135944570762232829481370756359578518086990519993285655852781\n            ],\n            [\n                4082367875863433681332203403145435568316851327593401208105741076214120093531,\n                8495653923123431417604973247489272438418190587263600148770280649306958101930\n            ]\n        );\n    G2Point internal sG2 =\n        G2Point(\n            [\n                13036583401943305728528725764547309024003329541956693774318040152348747598121,\n                12276881524974618347963204355819156766680811359308712062143904989647769252018\n            ],\n            [\n                2188726141281701348289276224237737751177036697763916293382809963867816883720,\n                3596309672727352412249421695858998934225755266543379229855517037447563584325\n            ]\n        );\n\n    G1Point[5] internal digestsMulti; // 0: (name,value); 1: (bank,name); 2: (bank,name,value); 3: (addr,bank,name); 4: (addr,bank,name,value)\n\n    constructor() {\n        digestsMulti[0].X = uint256(6159458686690713616529471692641016634900583717446801627184495732237963694026);\n        digestsMulti[0].Y = uint256(12860754021025649890692309501072139929328081008835158233278232810146889880194);\n        digestsMulti[1].X = uint256(18773105457264462803422938463021834716946221440815805151096662954412506849643);\n        digestsMulti[1].Y = uint256(16010421961783507917303007679028708137532917472658384219313664733923555551147);\n        digestsMulti[2].X = uint256(20246459698207796486935212416125072967016708693585516928690612225012059813321);\n        digestsMulti[2].Y = uint256(7292323691925995207746639282184672086984205183190602449222138715208653943573);\n        digestsMulti[3].X = uint256(329738446408575427612569506018095409541081660617558863716924695571200692040);\n        digestsMulti[3].Y = uint256(20271886177555646240295359285434577499960046312814718633564395573614489259760);\n        digestsMulti[4].X = uint256(20628696334436384818609201711793048828968667631681356746880570203883871994481);\n        digestsMulti[4].Y = uint256(13805588535609973374545965874932086042134248668445161539799168790419013966574);\n    }\n\n    function negate(G1Point memory p) internal pure returns (G1Point memory) {\n        // The prime q in the base field F_q for G1\n        if (p.X == 0 && p.Y == 0) {\n            return G1Point(0, 0);\n        } else {\n            return G1Point(p.X, PRIME_Q - (p.Y % PRIME_Q));\n        }\n    }\n\n    /*\n     * @return r the product of a point on G1 and a scalar, i.e.\n     *         p == p.scalar_mul(1) and p.plus(p) == p.scalar_mul(2) for all\n     *         points p.\n     */\n    function scalar_mul(G1Point memory p, uint256 s) internal view returns (G1Point memory r) {\n        uint256[3] memory input;\n        input[0] = p.X;\n        input[1] = p.Y;\n        input[2] = s;\n        bool success;\n        // solium-disable-next-line security/no-inline-assembly\n        assembly {\n            success := staticcall(sub(gas(), 2000), 7, input, 0x80, r, 0x60)\n        }\n    }\n\n    function plus(G1Point memory p1, G1Point memory p2) internal view returns (G1Point memory r) {\n        uint256[4] memory input;\n        //uint256[] memory input = new uint256[](4);\n        input[0] = p1.X;\n        input[1] = p1.Y;\n        input[2] = p2.X;\n        input[3] = p2.Y;\n        bool success;\n        // solium-disable-next-line security/no-inline-assembly\n        assembly {\n            success := staticcall(sub(gas(), 2000), 6, input, 0xc0, r, 0x60)\n        }\n    }\n\n    function pairingMulti(G1Point[] memory p1, G2Point[] memory p2) internal view returns (bool) {\n        uint inputSize = p1.length * 6;\n        uint256[] memory input = new uint256[](inputSize);\n\n        for (uint256 i = 0; i < p1.length; i++) {\n            uint256 j = i * 6;\n            input[j + 0] = p1[i].X;\n            input[j + 1] = p1[i].Y;\n            input[j + 2] = p2[i].X[0];\n            input[j + 3] = p2[i].X[1];\n            input[j + 4] = p2[i].Y[0];\n            input[j + 5] = p2[i].Y[1];\n        }\n\n        uint256[1] memory out;\n        bool success;\n\n        // solium-disable-next-line security/no-inline-assembly\n        assembly {\n            success := staticcall(sub(gas(), 2000), 8, add(input, 0x20), mul(inputSize, 0x20), out, 0x20)\n            // Use \"invalid\" to make gas estimation work\n        }\n        return out[0] != 0;\n    }\n\n    // ensure that a<PRIME_P, b<PRIME_P, omit check for saving gas\n    // function modAdd(uint256 a, uint256 b) internal pure returns (uint256 r) {\n    //     assembly {\n    //         r := addmod(a, b, PRIME_P)\n    //     }\n    // }\n    // a*b % PRIME_P\n    function modMul(uint256 a, uint256 b) internal pure returns (uint256 r) {\n        assembly {\n            r := mulmod(a, b, PRIME_P)\n        }\n    }\n    function isInv(uint256 a, uint256 b) internal pure returns (bool) {\n        uint256 r;\n        assembly {\n            r := mulmod(a, b, PRIME_P)\n        }\n        return (r == 1);\n    }\n\n    function checkItemEInv(DicItemE calldata item, uint256 inv) internal pure returns (bool) {\n        uint256 itemUint = uint256(keccak256(abi.encodePacked(item.key, item.nxt, item.value.X, item.value.Y))) % PRIME_P;\n        return modMul(itemUint, inv) == 1;\n    }\n\n    function checkItemInv(DicItemR calldata item, uint256 inv) internal pure returns (bool) {\n        uint256 itemUint = uint256(\n            keccak256(abi.encodePacked(item.key, item.nxt, item.value.X[1], item.value.X[0], item.value.Y[1], item.value.Y[0]))\n        ) % PRIME_P;\n        return modMul(itemUint, inv) == 1;\n    }\n\n    function VerifyQueryMulti(QueryMulti calldata q, VerifySumParam calldata param) public view returns (bool ver, uint flag) {\n        uint offset;\n        uint layer; // layer number upper the bottum layer\n        bool res;\n        G1Point[] memory p1;\n        G2Point[] memory p2;\n\n        // append all pairs in p1 and p2\n        // sum requires 4 pairs, each itemE requires 2 pairs, each itemR requires 6 pairs\n        if (q.index == 0) {\n            // (name,value)\n            p1 = new G1Point[](12);\n            p2 = new G2Point[](12);\n        } else if (q.index == 1) {\n            // (bank,name)\n            p1 = new G1Point[](8);\n            p2 = new G2Point[](8);\n        } else if (q.index == 2) {\n            // (bank,name,value)\n            p1 = new G1Point[](14);\n            p2 = new G2Point[](14);\n        } else if (q.index == 3) {\n            // (addr,bank,name)\n            p1 = new G1Point[](10);\n            p2 = new G2Point[](10);\n        } else if (q.index == 4) {\n            // (addr,bank,name,value)\n            p1 = new G1Point[](16);\n            p2 = new G2Point[](16);\n        } else {\n            return (false, 4444);\n        }\n\n        // append sum pairings to p1 and p2\n        if (param.fR.X == 1 && param.fR.Y == 2) return (param.sum == 0, 111);\n        if (modMul(param.a0, param.a0inv) != 1) return (false, 222);\n        if (modMul(param.a0inv, param.a1) != param.sum) return (false, 333);\n        p1[0] = negate(param.w1);\n        p1[1] = plus(param.fR, negate(scalar_mul(G1, param.a0)));\n        p1[2] = negate(param.w2);\n        p1[3] = plus(param.w1, negate(scalar_mul(G1, param.a1)));\n        p2[0] = sG2;\n        p2[1] = G2;\n        p2[2] = sG2;\n        p2[3] = G2;\n\n        // check layer0 dic item and append it to (p1,p2)\n        // 1. check queryCondition ?= dicItem.Key\n        if (q.eval[0] != param.itemE[0].key) return (false, 1201);\n        // 2. check inverse value\n        if (checkItemEInv(param.itemE[0], param.itemInv[0]) == false) return (false, 14);\n        // 3. append e(acc_item, sG1)==e(digest, wit) to (p1,p2)\n        p1[4] = negate(plus(scalar_mul(G1, param.itemInv[0]), sG1));\n        p1[5] = digestsMulti[q.index];\n        p2[4] = param.itemWit[0];\n        p2[5] = G2;\n\n        // check layer1 in the middle if exists\n        if (q.index == 2 || q.index == 3 || q.index == 4) {\n            if (q.eval[1] != param.itemE[1].key) return (false, 1202);\n            if (checkItemEInv(param.itemE[1], param.itemInv[1]) == false) return (false, 14);\n            p1[6] = negate(plus(scalar_mul(G1, param.itemInv[1]), sG1));\n            p1[7] = param.itemE[0].value;\n            p2[6] = param.itemWit[1];\n            p2[7] = G2;\n        }\n\n        // check layer2 in the middle if exists\n        if (q.index == 4) {\n            if (q.eval[2] != param.itemE[2].key) return (false, 1203);\n            if (checkItemEInv(param.itemE[2], param.itemInv[2]) == false) return (false, 14);\n            p1[8] = negate(plus(scalar_mul(G1, param.itemInv[2]), sG1));\n            p1[9] = param.itemE[1].value;\n            p2[8] = param.itemWit[2];\n            p2[9] = G2;\n        }\n\n        // check bottom layer\n        if (q.index == 0 || q.index == 1) {\n            offset = 6;\n            layer = 0;\n        } else if (q.index == 2 || q.index == 3) {\n            offset = 8;\n            layer = 1;\n        } else {\n            offset = 10;\n            layer = 2;\n        }\n\n        if (q.index == 0 || q.index == 2 || q.index == 4) {\n            // range query at bottum\n            // 1. check queryCondition ?= dicItem.Key\n            if (q.rtype[0] == 1) {\n                // [vl,vr]\n                if ((param.itemR[0].key < q.rval[0] && q.rval[0] <= param.itemR[0].nxt) == false) return (false, 12201);\n                if ((param.itemR[1].key <= q.rval[1] && q.rval[1] < param.itemR[1].nxt) == false) return (false, 1202);\n            } else if (q.rtype[0] == 2) {\n                // (vl,vr]\n                if ((param.itemR[0].key <= q.rval[0] && q.rval[0] < param.itemR[0].nxt) == false) return (false, 12203);\n                if ((param.itemR[1].key <= q.rval[1] && q.rval[1] < param.itemR[1].nxt) == false) return (false, 12204);\n            } else if (q.rtype[0] == 3) {\n                // [vl,vr)\n                if ((param.itemR[0].key < q.rval[0] && q.rval[0] <= param.itemR[0].nxt) == false) return (false, 12205);\n                if ((param.itemR[1].key < q.rval[1] && q.rval[1] <= param.itemR[1].nxt) == false) return (false, 12206);\n            } else if (q.rtype[0] == 4) {\n                // [vl,vr)\n                if ((param.itemR[0].key <= q.rval[0] && q.rval[0] < param.itemR[0].nxt) == false) return (false, 12207);\n                if ((param.itemR[1].key < q.rval[1] && q.rval[1] <= param.itemR[1].nxt) == false) return (false, 12208);\n            } else {\n                return (false, 12209);\n            }\n\n            // 2. check set difference, e(fR, item0.value)==e(G1, item1.value)\n            p1[offset] = negate(param.fR); // negate the first element\n            p1[offset + 1] = G1;\n            p2[offset] = param.itemR[0].value;\n            p2[offset + 1] = param.itemR[1].value;\n\n            // 3. check inverse value\n            if (checkItemInv(param.itemR[0], param.itemInv[layer + 1]) == false) return (false, 777);\n            if (checkItemInv(param.itemR[1], param.itemInv[layer + 2]) == false) return (false, 778);\n\n            // 4. pairing(negate(itemDigest), witness, dicDigest, G2) for each item\n            // e(digest1, G2)==e(sG1+inv[item[1]]*G1, w[elen+2*i])\n            // e(digest1, G2)==e(sG1+inv[item[2]]*G1, w[elen+2*i+1])\n            // digest1 is the item value of layer0\n            p1[offset + 2] = negate(param.itemE[layer].value);\n            p1[offset + 3] = plus(scalar_mul(G1, param.itemInv[layer + 1]), sG1);\n            p1[offset + 4] = negate(param.itemE[layer].value);\n            p1[offset + 5] = plus(scalar_mul(G1, param.itemInv[layer + 2]), sG1);\n            p2[offset + 2] = G2;\n            p2[offset + 3] = param.itemWit[layer + 1];\n            p2[offset + 4] = G2;\n            p2[offset + 5] = param.itemWit[layer + 2];\n        } else {\n            // equivalent query at bottum\n            // 1. check queryCondition ?= dicItem.Key\n            if (q.eval[layer + 1] != param.itemE[layer + 1].key) return (false, 13201);\n            // 2. check middle result digest mR\n            if (param.fR.X != param.itemE[layer + 1].value.X || param.fR.Y != param.itemE[layer + 1].value.Y) return (false, 1302);\n            // 3. check inverse value\n            if (checkItemEInv(param.itemE[layer + 1], param.itemInv[layer + 1]) == false) return (false, 14);\n            p1[offset] = negate(plus(scalar_mul(G1, param.itemInv[layer + 1]), sG1));\n            p1[offset + 1] = param.itemE[layer].value;\n            p2[offset] = param.itemWit[layer + 1];\n            p2[offset + 1] = G2;\n        }\n        res = pairingMulti(p1, p2);\n        if (res == false) {\n            return (false, 5555);\n        }\n        return (true, 1555);\n    }\n\n    event TestGas2Result(bool success, uint result);\n\n    function TestGas0Multi() public returns (bool, uint) {\n        testgas = 0;\n        return (true, 0);\n    }\n\n    function TestGas1Multi(QueryMulti calldata q, VerifySumParam calldata param) public returns (bool, uint) {\n        testgas = param.sum;\n        return (true, 0);\n    }\n\n    function TestGas2Multi(QueryMulti calldata q, VerifySumParam calldata param) public returns (bool ver, uint flag) {\n        (ver, flag) = VerifyQueryMulti(q, param);\n        emit TestGas2Result(ver, flag);\n        if (ver) testgas = param.sum;\n        return (ver, flag);\n    }\n}\n",
  "sourcePath": "/home/ubuntu/contractdb/contract/contracts/ContractDBMulti.sol",
  "compiler": {
    "name": "solc",
    "version": "0.8.7+commit.e28d00a7.Emscripten.clang"
  },
  "schemaVersion": "3.4.16",
  "updatedAt": "2025-02-12T08:01:16.482Z",
  "networkType": "ethereum",
  "devdoc": {
    "kind": "dev",
    "methods": {},
    "version": 1
  },
  "userdoc": {
    "kind": "user",
    "methods": {},
    "version": 1
  }
}