{
  "contractName": "ContractDB",
  "abi": [
    {
      "inputs": [],
      "stateMutability": "nonpayable",
      "type": "constructor"
    },
    {
      "anonymous": false,
      "inputs": [
        {
          "indexed": false,
          "internalType": "bool",
          "name": "success",
          "type": "bool"
        },
        {
          "indexed": false,
          "internalType": "uint256",
          "name": "result",
          "type": "uint256"
        }
      ],
      "name": "TestGas2Result",
      "type": "event"
    },
    {
      "inputs": [
        {
          "components": [
            {
              "internalType": "uint8[]",
              "name": "eind",
              "type": "uint8[]"
            },
            {
              "internalType": "uint8[]",
              "name": "rind",
              "type": "uint8[]"
            },
            {
              "internalType": "uint8[]",
              "name": "rtype",
              "type": "uint8[]"
            },
            {
              "internalType": "uint64[]",
              "name": "eval",
              "type": "uint64[]"
            },
            {
              "internalType": "uint64[]",
              "name": "rval",
              "type": "uint64[]"
            }
          ],
          "internalType": "struct ContractDB.Query",
          "name": "q",
          "type": "tuple"
        },
        {
          "components": [
            {
              "internalType": "uint256",
              "name": "sum",
              "type": "uint256"
            },
            {
              "internalType": "uint256",
              "name": "a0",
              "type": "uint256"
            },
            {
              "internalType": "uint256",
              "name": "a1",
              "type": "uint256"
            },
            {
              "internalType": "uint256",
              "name": "a0inv",
              "type": "uint256"
            },
            {
              "components": [
                {
                  "internalType": "uint256",
                  "name": "X",
                  "type": "uint256"
                },
                {
                  "internalType": "uint256",
                  "name": "Y",
                  "type": "uint256"
                }
              ],
              "internalType": "struct ContractDB.G1Point",
              "name": "fR",
              "type": "tuple"
            },
            {
              "components": [
                {
                  "internalType": "uint256",
                  "name": "X",
                  "type": "uint256"
                },
                {
                  "internalType": "uint256",
                  "name": "Y",
                  "type": "uint256"
                }
              ],
              "internalType": "struct ContractDB.G1Point",
              "name": "w1",
              "type": "tuple"
            },
            {
              "components": [
                {
                  "internalType": "uint256",
                  "name": "X",
                  "type": "uint256"
                },
                {
                  "internalType": "uint256",
                  "name": "Y",
                  "type": "uint256"
                }
              ],
              "internalType": "struct ContractDB.G1Point",
              "name": "w2",
              "type": "tuple"
            },
            {
              "components": [
                {
                  "internalType": "uint64",
                  "name": "key",
                  "type": "uint64"
                },
                {
                  "internalType": "uint64",
                  "name": "nxt",
                  "type": "uint64"
                },
                {
                  "components": [
                    {
                      "internalType": "uint256",
                      "name": "X",
                      "type": "uint256"
                    },
                    {
                      "internalType": "uint256",
                      "name": "Y",
                      "type": "uint256"
                    }
                  ],
                  "internalType": "struct ContractDB.G1Point",
                  "name": "value",
                  "type": "tuple"
                }
              ],
              "internalType": "struct ContractDB.DicItemE[]",
              "name": "itemE",
              "type": "tuple[]"
            },
            {
              "components": [
                {
                  "internalType": "uint64",
                  "name": "key",
                  "type": "uint64"
                },
                {
                  "internalType": "uint64",
                  "name": "nxt",
                  "type": "uint64"
                },
                {
                  "components": [
                    {
                      "internalType": "uint256[2]",
                      "name": "X",
                      "type": "uint256[2]"
                    },
                    {
                      "internalType": "uint256[2]",
                      "name": "Y",
                      "type": "uint256[2]"
                    }
                  ],
                  "internalType": "struct ContractDB.G2Point",
                  "name": "value",
                  "type": "tuple"
                }
              ],
              "internalType": "struct ContractDB.DicItemR[]",
              "name": "itemR",
              "type": "tuple[]"
            },
            {
              "internalType": "uint256[]",
              "name": "itemInv",
              "type": "uint256[]"
            },
            {
              "components": [
                {
                  "internalType": "uint256[2]",
                  "name": "X",
                  "type": "uint256[2]"
                },
                {
                  "internalType": "uint256[2]",
                  "name": "Y",
                  "type": "uint256[2]"
                }
              ],
              "internalType": "struct ContractDB.G2Point[]",
              "name": "itemWit",
              "type": "tuple[]"
            },
            {
              "components": [
                {
                  "internalType": "uint256",
                  "name": "X",
                  "type": "uint256"
                },
                {
                  "internalType": "uint256",
                  "name": "Y",
                  "type": "uint256"
                }
              ],
              "internalType": "struct ContractDB.G1Point[]",
              "name": "iset",
              "type": "tuple[]"
            },
            {
              "components": [
                {
                  "internalType": "uint256",
                  "name": "X",
                  "type": "uint256"
                },
                {
                  "internalType": "uint256",
                  "name": "Y",
                  "type": "uint256"
                }
              ],
              "internalType": "struct ContractDB.G1Point[]",
              "name": "igcd",
              "type": "tuple[]"
            },
            {
              "components": [
                {
                  "internalType": "uint256[2]",
                  "name": "X",
                  "type": "uint256[2]"
                },
                {
                  "internalType": "uint256[2]",
                  "name": "Y",
                  "type": "uint256[2]"
                }
              ],
              "internalType": "struct ContractDB.G2Point[]",
              "name": "iwit",
              "type": "tuple[]"
            }
          ],
          "internalType": "struct ContractDB.VerifySumParam",
          "name": "param",
          "type": "tuple"
        }
      ],
      "name": "VerifyQuery",
      "outputs": [
        {
          "internalType": "bool",
          "name": "ver",
          "type": "bool"
        },
        {
          "internalType": "uint256",
          "name": "flag",
          "type": "uint256"
        }
      ],
      "stateMutability": "view",
      "type": "function"
    },
    {
      "inputs": [],
      "name": "TestGas0",
      "outputs": [
        {
          "internalType": "bool",
          "name": "",
          "type": "bool"
        },
        {
          "internalType": "uint256",
          "name": "",
          "type": "uint256"
        }
      ],
      "stateMutability": "nonpayable",
      "type": "function"
    },
    {
      "inputs": [
        {
          "components": [
            {
              "internalType": "uint8[]",
              "name": "eind",
              "type": "uint8[]"
            },
            {
              "internalType": "uint8[]",
              "name": "rind",
              "type": "uint8[]"
            },
            {
              "internalType": "uint8[]",
              "name": "rtype",
              "type": "uint8[]"
            },
            {
              "internalType": "uint64[]",
              "name": "eval",
              "type": "uint64[]"
            },
            {
              "internalType": "uint64[]",
              "name": "rval",
              "type": "uint64[]"
            }
          ],
          "internalType": "struct ContractDB.Query",
          "name": "q",
          "type": "tuple"
        },
        {
          "components": [
            {
              "internalType": "uint256",
              "name": "sum",
              "type": "uint256"
            },
            {
              "internalType": "uint256",
              "name": "a0",
              "type": "uint256"
            },
            {
              "internalType": "uint256",
              "name": "a1",
              "type": "uint256"
            },
            {
              "internalType": "uint256",
              "name": "a0inv",
              "type": "uint256"
            },
            {
              "components": [
                {
                  "internalType": "uint256",
                  "name": "X",
                  "type": "uint256"
                },
                {
                  "internalType": "uint256",
                  "name": "Y",
                  "type": "uint256"
                }
              ],
              "internalType": "struct ContractDB.G1Point",
              "name": "fR",
              "type": "tuple"
            },
            {
              "components": [
                {
                  "internalType": "uint256",
                  "name": "X",
                  "type": "uint256"
                },
                {
                  "internalType": "uint256",
                  "name": "Y",
                  "type": "uint256"
                }
              ],
              "internalType": "struct ContractDB.G1Point",
              "name": "w1",
              "type": "tuple"
            },
            {
              "components": [
                {
                  "internalType": "uint256",
                  "name": "X",
                  "type": "uint256"
                },
                {
                  "internalType": "uint256",
                  "name": "Y",
                  "type": "uint256"
                }
              ],
              "internalType": "struct ContractDB.G1Point",
              "name": "w2",
              "type": "tuple"
            },
            {
              "components": [
                {
                  "internalType": "uint64",
                  "name": "key",
                  "type": "uint64"
                },
                {
                  "internalType": "uint64",
                  "name": "nxt",
                  "type": "uint64"
                },
                {
                  "components": [
                    {
                      "internalType": "uint256",
                      "name": "X",
                      "type": "uint256"
                    },
                    {
                      "internalType": "uint256",
                      "name": "Y",
                      "type": "uint256"
                    }
                  ],
                  "internalType": "struct ContractDB.G1Point",
                  "name": "value",
                  "type": "tuple"
                }
              ],
              "internalType": "struct ContractDB.DicItemE[]",
              "name": "itemE",
              "type": "tuple[]"
            },
            {
              "components": [
                {
                  "internalType": "uint64",
                  "name": "key",
                  "type": "uint64"
                },
                {
                  "internalType": "uint64",
                  "name": "nxt",
                  "type": "uint64"
                },
                {
                  "components": [
                    {
                      "internalType": "uint256[2]",
                      "name": "X",
                      "type": "uint256[2]"
                    },
                    {
                      "internalType": "uint256[2]",
                      "name": "Y",
                      "type": "uint256[2]"
                    }
                  ],
                  "internalType": "struct ContractDB.G2Point",
                  "name": "value",
                  "type": "tuple"
                }
              ],
              "internalType": "struct ContractDB.DicItemR[]",
              "name": "itemR",
              "type": "tuple[]"
            },
            {
              "internalType": "uint256[]",
              "name": "itemInv",
              "type": "uint256[]"
            },
            {
              "components": [
                {
                  "internalType": "uint256[2]",
                  "name": "X",
                  "type": "uint256[2]"
                },
                {
                  "internalType": "uint256[2]",
                  "name": "Y",
                  "type": "uint256[2]"
                }
              ],
              "internalType": "struct ContractDB.G2Point[]",
              "name": "itemWit",
              "type": "tuple[]"
            },
            {
              "components": [
                {
                  "internalType": "uint256",
                  "name": "X",
                  "type": "uint256"
                },
                {
                  "internalType": "uint256",
                  "name": "Y",
                  "type": "uint256"
                }
              ],
              "internalType": "struct ContractDB.G1Point[]",
              "name": "iset",
              "type": "tuple[]"
            },
            {
              "components": [
                {
                  "internalType": "uint256",
                  "name": "X",
                  "type": "uint256"
                },
                {
                  "internalType": "uint256",
                  "name": "Y",
                  "type": "uint256"
                }
              ],
              "internalType": "struct ContractDB.G1Point[]",
              "name": "igcd",
              "type": "tuple[]"
            },
            {
              "components": [
                {
                  "internalType": "uint256[2]",
                  "name": "X",
                  "type": "uint256[2]"
                },
                {
                  "internalType": "uint256[2]",
                  "name": "Y",
                  "type": "uint256[2]"
                }
              ],
              "internalType": "struct ContractDB.G2Point[]",
              "name": "iwit",
              "type": "tuple[]"
            }
          ],
          "internalType": "struct ContractDB.VerifySumParam",
          "name": "param",
          "type": "tuple"
        }
      ],
      "name": "TestGas1",
      "outputs": [
        {
          "internalType": "bool",
          "name": "",
          "type": "bool"
        },
        {
          "internalType": "uint256",
          "name": "",
          "type": "uint256"
        }
      ],
      "stateMutability": "nonpayable",
      "type": "function"
    },
    {
      "inputs": [
        {
          "components": [
            {
              "internalType": "uint8[]",
              "name": "eind",
              "type": "uint8[]"
            },
            {
              "internalType": "uint8[]",
              "name": "rind",
              "type": "uint8[]"
            },
            {
              "internalType": "uint8[]",
              "name": "rtype",
              "type": "uint8[]"
            },
            {
              "internalType": "uint64[]",
              "name": "eval",
              "type": "uint64[]"
            },
            {
              "internalType": "uint64[]",
              "name": "rval",
              "type": "uint64[]"
            }
          ],
          "internalType": "struct ContractDB.Query",
          "name": "q",
          "type": "tuple"
        },
        {
          "components": [
            {
              "internalType": "uint256",
              "name": "sum",
              "type": "uint256"
            },
            {
              "internalType": "uint256",
              "name": "a0",
              "type": "uint256"
            },
            {
              "internalType": "uint256",
              "name": "a1",
              "type": "uint256"
            },
            {
              "internalType": "uint256",
              "name": "a0inv",
              "type": "uint256"
            },
            {
              "components": [
                {
                  "internalType": "uint256",
                  "name": "X",
                  "type": "uint256"
                },
                {
                  "internalType": "uint256",
                  "name": "Y",
                  "type": "uint256"
                }
              ],
              "internalType": "struct ContractDB.G1Point",
              "name": "fR",
              "type": "tuple"
            },
            {
              "components": [
                {
                  "internalType": "uint256",
                  "name": "X",
                  "type": "uint256"
                },
                {
                  "internalType": "uint256",
                  "name": "Y",
                  "type": "uint256"
                }
              ],
              "internalType": "struct ContractDB.G1Point",
              "name": "w1",
              "type": "tuple"
            },
            {
              "components": [
                {
                  "internalType": "uint256",
                  "name": "X",
                  "type": "uint256"
                },
                {
                  "internalType": "uint256",
                  "name": "Y",
                  "type": "uint256"
                }
              ],
              "internalType": "struct ContractDB.G1Point",
              "name": "w2",
              "type": "tuple"
            },
            {
              "components": [
                {
                  "internalType": "uint64",
                  "name": "key",
                  "type": "uint64"
                },
                {
                  "internalType": "uint64",
                  "name": "nxt",
                  "type": "uint64"
                },
                {
                  "components": [
                    {
                      "internalType": "uint256",
                      "name": "X",
                      "type": "uint256"
                    },
                    {
                      "internalType": "uint256",
                      "name": "Y",
                      "type": "uint256"
                    }
                  ],
                  "internalType": "struct ContractDB.G1Point",
                  "name": "value",
                  "type": "tuple"
                }
              ],
              "internalType": "struct ContractDB.DicItemE[]",
              "name": "itemE",
              "type": "tuple[]"
            },
            {
              "components": [
                {
                  "internalType": "uint64",
                  "name": "key",
                  "type": "uint64"
                },
                {
                  "internalType": "uint64",
                  "name": "nxt",
                  "type": "uint64"
                },
                {
                  "components": [
                    {
                      "internalType": "uint256[2]",
                      "name": "X",
                      "type": "uint256[2]"
                    },
                    {
                      "internalType": "uint256[2]",
                      "name": "Y",
                      "type": "uint256[2]"
                    }
                  ],
                  "internalType": "struct ContractDB.G2Point",
                  "name": "value",
                  "type": "tuple"
                }
              ],
              "internalType": "struct ContractDB.DicItemR[]",
              "name": "itemR",
              "type": "tuple[]"
            },
            {
              "internalType": "uint256[]",
              "name": "itemInv",
              "type": "uint256[]"
            },
            {
              "components": [
                {
                  "internalType": "uint256[2]",
                  "name": "X",
                  "type": "uint256[2]"
                },
                {
                  "internalType": "uint256[2]",
                  "name": "Y",
                  "type": "uint256[2]"
                }
              ],
              "internalType": "struct ContractDB.G2Point[]",
              "name": "itemWit",
              "type": "tuple[]"
            },
            {
              "components": [
                {
                  "internalType": "uint256",
                  "name": "X",
                  "type": "uint256"
                },
                {
                  "internalType": "uint256",
                  "name": "Y",
                  "type": "uint256"
                }
              ],
              "internalType": "struct ContractDB.G1Point[]",
              "name": "iset",
              "type": "tuple[]"
            },
            {
              "components": [
                {
                  "internalType": "uint256",
                  "name": "X",
                  "type": "uint256"
                },
                {
                  "internalType": "uint256",
                  "name": "Y",
                  "type": "uint256"
                }
              ],
              "internalType": "struct ContractDB.G1Point[]",
              "name": "igcd",
              "type": "tuple[]"
            },
            {
              "components": [
                {
                  "internalType": "uint256[2]",
                  "name": "X",
                  "type": "uint256[2]"
                },
                {
                  "internalType": "uint256[2]",
                  "name": "Y",
                  "type": "uint256[2]"
                }
              ],
              "internalType": "struct ContractDB.G2Point[]",
              "name": "iwit",
              "type": "tuple[]"
            }
          ],
          "internalType": "struct ContractDB.VerifySumParam",
          "name": "param",
          "type": "tuple"
        }
      ],
      "name": "TestGas2",
      "outputs": [
        {
          "internalType": "bool",
          "name": "ver",
          "type": "bool"
        },
        {
          "internalType": "uint256",
          "name": "flag",
          "type": "uint256"
        }
      ],
      "stateMutability": "nonpayable",
      "type": "function"
    }
  ],
  "bytecode": "0x6080604052604051806040016040528060018152602001600281525060016000820151816000015560208201518160010155505060405180604001604052807f0175333a0b1a5016ca39916a1c45955f24ae8d6f32262df6531e5c3d8fc3301881526020017f2cba40e2283d84ba2fefc2f2b81becf9f2472056cda315c19f8b70227d13a91a815250600360008201518160000155602082015181600101555050604051806040016040528060405180604001604052807f198e9393920d483a7260bfb731fb5d25f1aa493335a9e71297e485b7aef312c281526020017f1800deef121f1e76426a00665e5c4479674322d4f75edadd46debd5cd992f6ed815250815260200160405180604001604052807f090689d0585ff075ec9e99ad690c3395bc4b313370b38ef355acdadcd122975b81526020017f12c85ea5db8c6deb4aab71808dcb408fe3d1e7690c43d37b4ce6cc0166fa7daa815250815250600560008201518160000190600262000178929190620005cd565b5060208201518160020190600262000192929190620005cd565b505050604051806040016040528060405180604001604052807f1cd271d9626680df4c5fd68bfb339d0991d11b5df7cbb9aad8e0758caef7892981526020017f1b2477fca310382c532cf29c2fb3bb767d30a7cdcce6c0ec37ddbf6d444d30b2815250815260200160405180604001604052807f04d6c66ca774b11f25f5e9ed448a6cd37ab0a84cdbdb9e97c27b5cf00e78760881526020017f07f3706b941d23a8253cf98532b6c4e58024176e004dff204b2a1bc7dcb6234581525081525060096000820151816000019060026200026d929190620005cd565b5060208201518160020190600262000287929190620005cd565b5050503480156200029757600080fd5b507f2344068151a139b4760c3d6f471b4c9bb1a04dfb695398b53275468236f61a7c600d600060068110620002d157620002d062000631565b5b60020201600001819055507f15bfcf60777d191b295ff41b87754bdfc7b229befe8ca34a62cef89dfab8a5be600d60006006811062000315576200031462000631565b5b60020201600101819055507f0aa7cfa121172af5449908cc7a844c2b64ad6d5775d911bc77c8aa967ab80b5b600d60016006811062000359576200035862000631565b5b60020201600001819055507f0d240f74e3054e47913e8e9d27a54f3f18defcd76a13fa516790c9695bca0b93600d6001600681106200039d576200039c62000631565b5b60020201600101819055507f1ee6e95d2f2ac191b95ae4ed7a307ba0cf4e9eb41f7d857fd1e9d8f7a11bf2ca600d600260068110620003e157620003e062000631565b5b60020201600001819055507f11e0202192526c67a385d61f132f48b29fa09cdd125cfc989bbb6b4b972253a4600d60026006811062000425576200042462000631565b5b60020201600101819055507f033b93289ee391e685f0230ce281c09a79c2d8fb2ae0a766c24cd19959d15717600d60036006811062000469576200046862000631565b5b60020201600001819055507f25be1391c062624577c3d9d6f278c408a0cd71f02070a52482df9cadbd17dba2600d600360068110620004ad57620004ac62000631565b5b60020201600101819055507f1264e8fb37b489f0470d15eab6c6b4ad96b28f38a613f9ff9ec6998bc8531922600d600460068110620004f157620004f062000631565b5b60020201600001819055507f1d57127d9eee934ba22ad6b089d37b4b099a8081fdd081ef50a683220e7b9bc5600d60046006811062000535576200053462000631565b5b60020201600101819055507f1b3fe4ccea3f00bf4edc7614a4a5153cb33534c83ffa23d0a5f51d974e798b64600d60056006811062000579576200057862000631565b5b60020201600001819055507e3d171787374e97a895f1ce66eb3eebdb462898857c143044faa8cd3b1ed32d600d600560068110620005bc57620005bb62000631565b5b600202016001018190555062000660565b8260028101928215620005ff579160200282015b82811115620005fe578251825591602001919060010190620005e1565b5b5090506200060e919062000612565b5090565b5b808211156200062d57600081600090555060010162000613565b5090565b7f4e487b7100000000000000000000000000000000000000000000000000000000600052603260045260246000fd5b61399b80620006706000396000f3fe608060405234801561001057600080fd5b506004361061004c5760003560e01c8063510c45071461005157806357fee9b114610082578063ae66a13e146100a1578063b6c392b9146100d2575b600080fd5b61006b60048036038101906100669190613132565b610103565b60405161007992919061330e565b60405180910390f35b61008a61016a565b60405161009892919061330e565b60405180910390f35b6100bb60048036038101906100b69190613132565b610180565b6040516100c992919061330e565b60405180910390f35b6100ec60048036038101906100e79190613132565b612765565b6040516100fa92919061330e565b60405180910390f35b6000806101108484610180565b80925081935050507f1662b5f33b72b4a2ea7aa48e44c56a648f7ab0056638a88df3c4101479d02bad828260405161014992919061330e565b60405180910390a181156101635782600001356000819055505b9250929050565b6000806000808190555060016000915091509091565b6000806000806001600386806101c0019061019b91906133fd565b90506101a7919061368d565b60068880602001906101b99190613589565b90506101c5919061368d565b60028980600001906101d79190613589565b90506101e3919061368d565b60046101ef9190613637565b6101f99190613637565b6102039190613637565b61020d9190613637565b905060008167ffffffffffffffff81111561022b5761022a6138a6565b5b60405190808252806020026020018201604052801561026457816020015b610251612e60565b8152602001906001900390816102495790505b50905060008267ffffffffffffffff811115610283576102826138a6565b5b6040519080825280602002602001820160405280156102bc57816020015b6102a9612e7a565b8152602001906001900390816102a15790505b509050600187608001600001351480156102dd575060028760800160200135145b156102f9576000876000013514606f955095505050505061275e565b600161030d88602001358960600135612782565b1461032357600060de955095505050505061275e565b866000013561033a88606001358960400135612782565b1461035157600061014d955095505050505061275e565b61036d8760c00180360381019061036891906130d8565b6127b0565b8260008151811061038157610380613877565b5b60200260200101819052506103de876080018036038101906103a391906130d8565b6103d96103d46001604051806040016040529081600082015481526020016001820154815250508b6020013561286e565b6127b0565b6128fa565b826001815181106103f2576103f1613877565b5b602002602001018190525061041a876101000180360381019061041591906130d8565b6127b0565b8260028151811061042e5761042d613877565b5b602002602001018190525061048b8760c00180360381019061045091906130d8565b6104866104816001604051806040016040529081600082015481526020016001820154815250508b6040013561286e565b6127b0565b6128fa565b8260038151811061049f5761049e613877565b5b60200260200101819052506009604051806040016040529081600082016002806020026040519081016040528092919082600280156104f3576020028201915b8154815260200190600101908083116104df575b5050505050815260200160028201600280602002604051908101604052809291908260028015610538576020028201915b815481526020019060010190808311610524575b5050505050815250508160008151811061055557610554613877565b5b60200260200101819052506005604051806040016040529081600082016002806020026040519081016040528092919082600280156105a9576020028201915b815481526020019060010190808311610595575b50505050508152602001600282016002806020026040519081016040528092919082600280156105ee576020028201915b8154815260200190600101908083116105da575b5050505050815250508160018151811061060b5761060a613877565b5b602002602001018190525060096040518060400160405290816000820160028060200260405190810160405280929190826002801561065f576020028201915b81548152602001906001019080831161064b575b50505050508152602001600282016002806020026040519081016040528092919082600280156106a4576020028201915b815481526020019060010190808311610690575b505050505081525050816002815181106106c1576106c0613877565b5b6020026020010181905250600560405180604001604052908160008201600280602002604051908101604052809291908260028015610715576020028201915b815481526020019060010190808311610701575b505050505081526020016002820160028060200260405190810160405280929190826002801561075a576020028201915b815481526020019060010190808311610746575b5050505050815250508160038151811061077757610776613877565b5b6020026020010181905250600093505b8780600001906107979190613589565b9050841015610c0857868061014001906107b19190613337565b858181106107c2576107c1613877565b5b90506080020160000160208101906107da91906131aa565b67ffffffffffffffff168880606001906107f49190613526565b8681811061080557610804613877565b5b905060200201602081019061081a91906131aa565b67ffffffffffffffff161461083b5760006104b1955095505050505061275e565b8680610140019061084c9190613337565b8581811061085d5761085c613877565b5b9050608002016040016000013587806101c0019061087b91906133fd565b8681811061088c5761088b613877565b5b905060400201600001351415806108fc5750868061014001906108af9190613337565b858181106108c0576108bf613877565b5b9050608002016040016020013587806101c001906108de91906133fd565b868181106108ef576108ee613877565b5b9050604002016020013514155b15610913576000610516955095505050505061275e565b600015156109708880610140019061092b9190613337565b8781811061093c5761093b613877565b5b9050608002018980610180019061095391906134c3565b8881811061096457610963613877565b5b905060200201356129ac565b15151415610989576000600e955095505050505061275e565b836002610996919061368d565b60046109a29190613637565b9250610a27610a226109fc6001604051806040016040529081600082015481526020016001820154815250508a8061018001906109df91906134c3565b898181106109f0576109ef613877565b5b9050602002013561286e565b6003604051806040016040529081600082015481526020016001820154815250506128fa565b6127b0565b828481518110610a3a57610a39613877565b5b6020026020010181905250600d888060000190610a579190613589565b86818110610a6857610a67613877565b5b9050602002016020810190610a7d91906131d7565b60ff1660068110610a9157610a90613877565b5b600202016040518060400160405290816000820154815260200160018201548152505082600185610ac29190613637565b81518110610ad357610ad2613877565b5b602002602001018190525086806101a00190610aef9190613460565b85818110610b0057610aff613877565b5b905060800201803603810190610b169190613105565b818481518110610b2957610b28613877565b5b6020026020010181905250600560405180604001604052908160008201600280602002604051908101604052809291908260028015610b7d576020028201915b815481526020019060010190808311610b69575b5050505050815260200160028201600280602002604051908101604052809291908260028015610bc2576020028201915b815481526020019060010190808311610bae575b50505050508152505081600185610bd99190613637565b81518110610bea57610be9613877565b5b60200260200101819052508380610c0090613783565b945050610787565b600093505b878060200190610c1d9190613589565b9050841015612247576001888060400190610c389190613589565b86818110610c4957610c48613877565b5b9050602002016020810190610c5e91906131d7565b60ff161415610f5e5760001515888060800190610c7b9190613526565b866002610c88919061368d565b818110610c9857610c97613877565b5b9050602002016020810190610cad91906131aa565b67ffffffffffffffff1688806101600190610cc8919061339a565b876002610cd5919061368d565b818110610ce557610ce4613877565b5b905060c002016000016020810190610cfd91906131aa565b67ffffffffffffffff16108015610dae575087806101600190610d20919061339a565b866002610d2d919061368d565b818110610d3d57610d3c613877565b5b905060c002016020016020810190610d5591906131aa565b67ffffffffffffffff16898060800190610d6f9190613526565b876002610d7c919061368d565b818110610d8c57610d8b613877565b5b9050602002016020810190610da191906131aa565b67ffffffffffffffff1611155b15151415610dc85760006104b1955095505050505061275e565b60001515888060800190610ddc9190613526565b6001876002610deb919061368d565b610df59190613637565b818110610e0557610e04613877565b5b9050602002016020810190610e1a91906131aa565b67ffffffffffffffff1688806101600190610e35919061339a565b6001886002610e44919061368d565b610e4e9190613637565b818110610e5e57610e5d613877565b5b905060c002016000016020810190610e7691906131aa565b67ffffffffffffffff1611158015610f3f575087806101600190610e9a919061339a565b6001876002610ea9919061368d565b610eb39190613637565b818110610ec357610ec2613877565b5b905060c002016020016020810190610edb91906131aa565b67ffffffffffffffff16898060800190610ef59190613526565b6001886002610f04919061368d565b610f0e9190613637565b818110610f1e57610f1d613877565b5b9050602002016020810190610f3391906131aa565b67ffffffffffffffff16105b15151415610f595760006104b2955095505050505061275e565b61191b565b6002888060400190610f709190613589565b86818110610f8157610f80613877565b5b9050602002016020810190610f9691906131d7565b60ff1614156112965760001515888060800190610fb39190613526565b866002610fc0919061368d565b818110610fd057610fcf613877565b5b9050602002016020810190610fe591906131aa565b67ffffffffffffffff1688806101600190611000919061339a565b87600261100d919061368d565b81811061101d5761101c613877565b5b905060c00201600001602081019061103591906131aa565b67ffffffffffffffff16111580156110e6575087806101600190611059919061339a565b866002611066919061368d565b81811061107657611075613877565b5b905060c00201602001602081019061108e91906131aa565b67ffffffffffffffff168980608001906110a89190613526565b8760026110b5919061368d565b8181106110c5576110c4613877565b5b90506020020160208101906110da91906131aa565b67ffffffffffffffff16105b151514156111005760006104b3955095505050505061275e565b600015158880608001906111149190613526565b6001876002611123919061368d565b61112d9190613637565b81811061113d5761113c613877565b5b905060200201602081019061115291906131aa565b67ffffffffffffffff168880610160019061116d919061339a565b600188600261117c919061368d565b6111869190613637565b81811061119657611195613877565b5b905060c0020160000160208101906111ae91906131aa565b67ffffffffffffffff16111580156112775750878061016001906111d2919061339a565b60018760026111e1919061368d565b6111eb9190613637565b8181106111fb576111fa613877565b5b905060c00201602001602081019061121391906131aa565b67ffffffffffffffff1689806080019061122d9190613526565b600188600261123c919061368d565b6112469190613637565b81811061125657611255613877565b5b905060200201602081019061126b91906131aa565b67ffffffffffffffff16105b151514156112915760006104b4955095505050505061275e565b61191a565b60038880604001906112a89190613589565b868181106112b9576112b8613877565b5b90506020020160208101906112ce91906131d7565b60ff1614156115ce57600015158880608001906112eb9190613526565b8660026112f8919061368d565b81811061130857611307613877565b5b905060200201602081019061131d91906131aa565b67ffffffffffffffff1688806101600190611338919061339a565b876002611345919061368d565b81811061135557611354613877565b5b905060c00201600001602081019061136d91906131aa565b67ffffffffffffffff1610801561141e575087806101600190611390919061339a565b86600261139d919061368d565b8181106113ad576113ac613877565b5b905060c0020160200160208101906113c591906131aa565b67ffffffffffffffff168980608001906113df9190613526565b8760026113ec919061368d565b8181106113fc576113fb613877565b5b905060200201602081019061141191906131aa565b67ffffffffffffffff1611155b151514156114385760006104b5955095505050505061275e565b6000151588806080019061144c9190613526565b600187600261145b919061368d565b6114659190613637565b81811061147557611474613877565b5b905060200201602081019061148a91906131aa565b67ffffffffffffffff16888061016001906114a5919061339a565b60018860026114b4919061368d565b6114be9190613637565b8181106114ce576114cd613877565b5b905060c0020160000160208101906114e691906131aa565b67ffffffffffffffff161080156115af575087806101600190611509919061339a565b6001876002611518919061368d565b6115229190613637565b81811061153257611531613877565b5b905060c00201602001602081019061154a91906131aa565b67ffffffffffffffff168980608001906115649190613526565b6001886002611573919061368d565b61157d9190613637565b81811061158d5761158c613877565b5b90506020020160208101906115a291906131aa565b67ffffffffffffffff1611155b151514156115c95760006104b6955095505050505061275e565b611919565b60048880604001906115e09190613589565b868181106115f1576115f0613877565b5b905060200201602081019061160691906131d7565b60ff16141561190657600015158880608001906116239190613526565b866002611630919061368d565b8181106116405761163f613877565b5b905060200201602081019061165591906131aa565b67ffffffffffffffff1688806101600190611670919061339a565b87600261167d919061368d565b81811061168d5761168c613877565b5b905060c0020160000160208101906116a591906131aa565b67ffffffffffffffff16111580156117565750878061016001906116c9919061339a565b8660026116d6919061368d565b8181106116e6576116e5613877565b5b905060c0020160200160208101906116fe91906131aa565b67ffffffffffffffff168980608001906117189190613526565b876002611725919061368d565b81811061173557611734613877565b5b905060200201602081019061174a91906131aa565b67ffffffffffffffff16105b151514156117705760006104b7955095505050505061275e565b600015158880608001906117849190613526565b6001876002611793919061368d565b61179d9190613637565b8181106117ad576117ac613877565b5b90506020020160208101906117c291906131aa565b67ffffffffffffffff16888061016001906117dd919061339a565b60018860026117ec919061368d565b6117f69190613637565b81811061180657611805613877565b5b905060c00201600001602081019061181e91906131aa565b67ffffffffffffffff161080156118e7575087806101600190611841919061339a565b6001876002611850919061368d565b61185a9190613637565b81811061186a57611869613877565b5b905060c00201602001602081019061188291906131aa565b67ffffffffffffffff1689806080019061189c9190613526565b60018860026118ab919061368d565b6118b59190613637565b8181106118c5576118c4613877565b5b90506020020160208101906118da91906131aa565b67ffffffffffffffff1611155b151514156119015760006104b8955095505050505061275e565b611918565b60006104b9955095505050505061275e565b5b5b5b836002611928919061368d565b8880600001906119389190613589565b90506002611946919061368d565b60046119529190613637565b61195c9190613637565b92506119ba87806101c0019061197291906133fd565b8a80600001906119829190613589565b90508761198f9190613637565b81811061199f5761199e613877565b5b9050604002018036038101906119b591906130d8565b6127b0565b8284815181106119cd576119cc613877565b5b602002602001018190525060016040518060400160405290816000820154815260200160018201548152505082600185611a079190613637565b81518110611a1857611a17613877565b5b602002602001018190525086806101600190611a34919061339a565b856002611a41919061368d565b818110611a5157611a50613877565b5b905060c00201604001803603810190611a6a9190613105565b818481518110611a7d57611a7c613877565b5b602002602001018190525086806101600190611a99919061339a565b6001866002611aa8919061368d565b611ab29190613637565b818110611ac257611ac1613877565b5b905060c00201604001803603810190611adb9190613105565b81600185611ae99190613637565b81518110611afa57611af9613877565b5b602002602001018190525060001515611b9688806101600190611b1d919061339a565b876002611b2a919061368d565b818110611b3a57611b39613877565b5b905060c0020189806101800190611b5191906134c3565b886002611b5e919061368d565b8d8060000190611b6e9190613589565b9050611b7a9190613637565b818110611b8a57611b89613877565b5b90506020020135612a54565b15151415611bb0576000610309955095505050505061275e565b60001515611c5988806101600190611bc8919061339a565b6001886002611bd7919061368d565b611be19190613637565b818110611bf157611bf0613877565b5b905060c0020189806101800190611c0891906134c3565b6001896002611c17919061368d565b8e8060000190611c279190613589565b9050611c339190613637565b611c3d9190613637565b818110611c4d57611c4c613877565b5b90506020020135612a54565b15151415611c7357600061030a955095505050505061275e565b6002846002611c82919061368d565b898060000190611c929190613589565b90506002611ca0919061368d565b6004611cac9190613637565b611cb69190613637565b611cc09190613637565b9250611d39600d898060200190611cd79190613589565b87818110611ce857611ce7613877565b5b9050602002016020810190611cfd91906131d7565b60ff1660068110611d1157611d10613877565b5b60020201604051806040016040529081600082015481526020016001820154815250506127b0565b828481518110611d4c57611d4b613877565b5b6020026020010181905250611dfa611dd460016040518060400160405290816000820154815260200160018201548152505089806101800190611d8f91906134c3565b886002611d9c919061368d565b8d8060000190611dac9190613589565b9050611db89190613637565b818110611dc857611dc7613877565b5b9050602002013561286e565b6003604051806040016040529081600082015481526020016001820154815250506128fa565b82600185611e089190613637565b81518110611e1957611e18613877565b5b6020026020010181905250611e9b600d898060200190611e399190613589565b87818110611e4a57611e49613877565b5b9050602002016020810190611e5f91906131d7565b60ff1660068110611e7357611e72613877565b5b60020201604051806040016040529081600082015481526020016001820154815250506127b0565b82600285611ea99190613637565b81518110611eba57611eb9613877565b5b6020026020010181905250611f74611f4e60016040518060400160405290816000820154815260200160018201548152505089806101800190611efd91906134c3565b6001896002611f0c919061368d565b8e8060000190611f1c9190613589565b9050611f289190613637565b611f329190613637565b818110611f4257611f41613877565b5b9050602002013561286e565b6003604051806040016040529081600082015481526020016001820154815250506128fa565b82600385611f829190613637565b81518110611f9357611f92613877565b5b6020026020010181905250600560405180604001604052908160008201600280602002604051908101604052809291908260028015611fe7576020028201915b815481526020019060010190808311611fd3575b505050505081526020016002820160028060200260405190810160405280929190826002801561202c576020028201915b815481526020019060010190808311612018575b50505050508152505081848151811061204857612047613877565b5b602002602001018190525086806101a001906120649190613460565b856002612071919061368d565b8a80600001906120819190613589565b905061208d9190613637565b81811061209d5761209c613877565b5b9050608002018036038101906120b39190613105565b816001856120c19190613637565b815181106120d2576120d1613877565b5b6020026020010181905250600560405180604001604052908160008201600280602002604051908101604052809291908260028015612126576020028201915b815481526020019060010190808311612112575b505050505081526020016002820160028060200260405190810160405280929190826002801561216b576020028201915b815481526020019060010190808311612157575b505050505081525050816002856121829190613637565b8151811061219357612192613877565b5b602002602001018190525086806101a001906121af9190613460565b60018660026121be919061368d565b8b80600001906121ce9190613589565b90506121da9190613637565b6121e49190613637565b8181106121f4576121f3613877565b5b90506080020180360381019061220a9190613105565b816003856122189190613637565b8151811061222957612228613877565b5b6020026020010181905250838061223f90613783565b945050610c0d565b600187806101c0019061225a91906133fd565b905011156127235760068880602001906122749190613589565b9050612280919061368d565b60028980600001906122929190613589565b905061229e919061368d565b60046122aa9190613637565b6122b49190613637565b9250600093505b86806101c001906122cc91906133fd565b90508410156124f7576122f1876080018036038101906122ec91906130d8565b6127b0565b828560026122ff919061368d565b8561230a9190613637565b8151811061231b5761231a613877565b5b602002602001018190525086806101c0019061233791906133fd565b8581811061234857612347613877565b5b90506040020180360381019061235e91906130d8565b82600186600261236e919061368d565b866123799190613637565b6123839190613637565b8151811061239457612393613877565b5b6020026020010181905250868061020001906123b09190613460565b858181106123c1576123c0613877565b5b9050608002018036038101906123d79190613105565b818560026123e5919061368d565b856123f09190613637565b8151811061240157612400613877565b5b6020026020010181905250600560405180604001604052908160008201600280602002604051908101604052809291908260028015612455576020028201915b815481526020019060010190808311612441575b505050505081526020016002820160028060200260405190810160405280929190826002801561249a576020028201915b815481526020019060010190808311612486575b5050505050815250508160018660026124b3919061368d565b866124be9190613637565b6124c89190613637565b815181106124d9576124d8613877565b5b602002602001018190525083806124ef90613783565b9450506122bb565b86806101c0019061250891906133fd565b90506002612516919061368d565b836125219190613637565b925061254c6001604051806040016040529081600082015481526020016001820154815250506127b0565b82848151811061255f5761255e613877565b5b60200260200101819052506005604051806040016040529081600082016002806020026040519081016040528092919082600280156125b3576020028201915b81548152602001906001019080831161259f575b50505050508152602001600282016002806020026040519081016040528092919082600280156125f8576020028201915b8154815260200190600101908083116125e4575b50505050508152505081848151811061261457612613613877565b5b602002602001018190525060018361262c9190613637565b9250600093505b86806101c0019061264491906133fd565b90508410156127225786806101e0019061265e91906133fd565b8581811061266f5761266e613877565b5b90506040020180360381019061268591906130d8565b8285856126929190613637565b815181106126a3576126a2613877565b5b6020026020010181905250868061020001906126bf9190613460565b858181106126d0576126cf613877565b5b9050608002018036038101906126e69190613105565b8185856126f39190613637565b8151811061270457612703613877565b5b6020026020010181905250838061271a90613783565b945050612633565b5b600061272f8383612b6a565b9050600015158115151415612750576000603796509650505050505061275e565b6001600f9650965050505050505b9250929050565b600080826000013560008190555060016000915091509250929050565b60007f30644e72e131a029b85045b68181585d2833e84879b9709143e1f593f0000001828409905092915050565b6127b8612e60565b600082600001511480156127d0575060008260200151145b156127f35760405180604001604052806000815260200160008152509050612869565b6040518060400160405280836000015181526020017f30644e72e131a029b85045b68181585d97816a916871ca8d3c208c16d87cfd47846020015161283891906137e8565b7f30644e72e131a029b85045b68181585d97816a916871ca8d3c208c16d87cfd4761286391906136e7565b81525090505b919050565b612876612e60565b61287e612ea0565b83600001518160006003811061289757612896613877565b5b6020020181815250508360200151816001600381106128b9576128b8613877565b5b60200201818152505082816002600381106128d7576128d6613877565b5b602002018181525050600060608360808460076107d05a03fa9050505092915050565b612902612e60565b61290a612ec2565b83600001518160006004811061292357612922613877565b5b60200201818152505083602001518160016004811061294557612944613877565b5b60200201818152505082600001518160026004811061296757612966613877565b5b60200201818152505082602001518160036004811061298957612988613877565b5b602002018181525050600060608360c08460066107d05a03fa9050505092915050565b6000807f30644e72e131a029b85045b68181585d2833e84879b9709143e1f593f00000018460000160208101906129e391906131aa565b8560200160208101906129f691906131aa565b86604001600001358760400160200135604051602001612a199493929190613250565b6040516020818303038152906040528051906020012060001c612a3c91906137e8565b90506001612a4a8285612782565b1491505092915050565b6000807f30644e72e131a029b85045b68181585d2833e84879b9709143e1f593f0000001846000016020810190612a8b91906131aa565b856020016020810190612a9e91906131aa565b86604001600001600160028110612ab857612ab7613877565b5b602002013587604001600001600060028110612ad757612ad6613877565b5b602002013588604001604001600160028110612af657612af5613877565b5b602002013589604001604001600060028110612b1557612b14613877565b5b6020020135604051602001612b2f9695949392919061329e565b6040516020818303038152906040528051906020012060001c612b5291906137e8565b90506001612b608285612782565b1491505092915050565b60008060068451612b7b919061368d565b905060008167ffffffffffffffff811115612b9957612b986138a6565b5b604051908082528060200260200182016040528015612bc75781602001602082028036833780820191505090505b50905060005b8551811015612e17576000600682612be5919061368d565b9050868281518110612bfa57612bf9613877565b5b60200260200101516000015183600083612c149190613637565b81518110612c2557612c24613877565b5b602002602001018181525050868281518110612c4457612c43613877565b5b60200260200101516020015183600183612c5e9190613637565b81518110612c6f57612c6e613877565b5b602002602001018181525050858281518110612c8e57612c8d613877565b5b602002602001015160000151600060028110612cad57612cac613877565b5b602002015183600283612cc09190613637565b81518110612cd157612cd0613877565b5b602002602001018181525050858281518110612cf057612cef613877565b5b602002602001015160000151600160028110612d0f57612d0e613877565b5b602002015183600383612d229190613637565b81518110612d3357612d32613877565b5b602002602001018181525050858281518110612d5257612d51613877565b5b602002602001015160200151600060028110612d7157612d70613877565b5b602002015183600483612d849190613637565b81518110612d9557612d94613877565b5b602002602001018181525050858281518110612db457612db3613877565b5b602002602001015160200151600160028110612dd357612dd2613877565b5b602002015183600583612de69190613637565b81518110612df757612df6613877565b5b602002602001018181525050508080612e0f90613783565b915050612bcd565b50612e20612ee4565b6000602082602086026020860160086107d05a03fa9050600082600060018110612e4d57612e4c613877565b5b6020020151141594505050505092915050565b604051806040016040528060008152602001600081525090565b6040518060400160405280612e8d612f06565b8152602001612e9a612f06565b81525090565b6040518060600160405280600390602082028036833780820191505090505090565b6040518060800160405280600490602082028036833780820191505090505090565b6040518060200160405280600190602082028036833780820191505090505090565b6040518060400160405280600290602082028036833780820191505090505090565b6000612f3b612f3684613611565b6135ec565b90508082856020860282011115612f5557612f546138ee565b5b60005b85811015612f855781612f6b8882613099565b845260208401935060208301925050600181019050612f58565b5050509392505050565b600082601f830112612fa457612fa36138d5565b5b6002612fb1848285612f28565b91505092915050565b600060408284031215612fd057612fcf6138e4565b5b612fda60406135ec565b90506000612fea84828501613099565b6000830152506020612ffe84828501613099565b60208301525092915050565b6000608082840312156130205761301f6138e4565b5b61302a60406135ec565b9050600061303a84828501612f8f565b600083015250604061304e84828501612f8f565b60208301525092915050565b600060a082840312156130705761306f6138df565b5b81905092915050565b600061022082840312156130905761308f6138df565b5b81905092915050565b6000813590506130a881613920565b92915050565b6000813590506130bd81613937565b92915050565b6000813590506130d28161394e565b92915050565b6000604082840312156130ee576130ed6138fd565b5b60006130fc84828501612fba565b91505092915050565b60006080828403121561311b5761311a6138fd565b5b60006131298482850161300a565b91505092915050565b60008060408385031215613149576131486138fd565b5b600083013567ffffffffffffffff811115613167576131666138f8565b5b6131738582860161305a565b925050602083013567ffffffffffffffff811115613194576131936138f8565b5b6131a085828601613079565b9150509250929050565b6000602082840312156131c0576131bf6138fd565b5b60006131ce848285016130ae565b91505092915050565b6000602082840312156131ed576131ec6138fd565b5b60006131fb848285016130c3565b91505092915050565b61320d8161371b565b82525050565b61321c81613727565b82525050565b61323361322e82613727565b6137cc565b82525050565b61324a61324582613731565b6137d6565b82525050565b600061325c8287613239565b60088201915061326c8286613239565b60088201915061327c8285613222565b60208201915061328c8284613222565b60208201915081905095945050505050565b60006132aa8289613239565b6008820191506132ba8288613239565b6008820191506132ca8287613222565b6020820191506132da8286613222565b6020820191506132ea8285613222565b6020820191506132fa8284613222565b602082019150819050979650505050505050565b60006040820190506133236000830185613204565b6133306020830184613213565b9392505050565b60008083356001602003843603038112613354576133536138e9565b5b80840192508235915067ffffffffffffffff821115613376576133756138da565b5b602083019250608082023603831315613392576133916138f3565b5b509250929050565b600080833560016020038436030381126133b7576133b66138e9565b5b80840192508235915067ffffffffffffffff8211156133d9576133d86138da565b5b60208301925060c0820236038313156133f5576133f46138f3565b5b509250929050565b6000808335600160200384360303811261341a576134196138e9565b5b80840192508235915067ffffffffffffffff82111561343c5761343b6138da565b5b602083019250604082023603831315613458576134576138f3565b5b509250929050565b6000808335600160200384360303811261347d5761347c6138e9565b5b80840192508235915067ffffffffffffffff82111561349f5761349e6138da565b5b6020830192506080820236038313156134bb576134ba6138f3565b5b509250929050565b600080833560016020038436030381126134e0576134df6138e9565b5b80840192508235915067ffffffffffffffff821115613502576135016138da565b5b60208301925060208202360383131561351e5761351d6138f3565b5b509250929050565b60008083356001602003843603038112613543576135426138e9565b5b80840192508235915067ffffffffffffffff821115613565576135646138da565b5b602083019250602082023603831315613581576135806138f3565b5b509250929050565b600080833560016020038436030381126135a6576135a56138e9565b5b80840192508235915067ffffffffffffffff8211156135c8576135c76138da565b5b6020830192506020820236038313156135e4576135e36138f3565b5b509250929050565b60006135f6613607565b90506136028282613752565b919050565b6000604051905090565b600067ffffffffffffffff82111561362c5761362b6138a6565b5b602082029050919050565b600061364282613727565b915061364d83613727565b9250827fffffffffffffffffffffffffffffffffffffffffffffffffffffffffffffffff0382111561368257613681613819565b5b828201905092915050565b600061369882613727565b91506136a383613727565b9250817fffffffffffffffffffffffffffffffffffffffffffffffffffffffffffffffff04831182151516156136dc576136db613819565b5b828202905092915050565b60006136f282613727565b91506136fd83613727565b9250828210156137105761370f613819565b5b828203905092915050565b60008115159050919050565b6000819050919050565b600067ffffffffffffffff82169050919050565b600060ff82169050919050565b61375b82613902565b810181811067ffffffffffffffff8211171561377a576137796138a6565b5b80604052505050565b600061378e82613727565b91507fffffffffffffffffffffffffffffffffffffffffffffffffffffffffffffffff8214156137c1576137c0613819565b5b600182019050919050565b6000819050919050565b60006137e182613913565b9050919050565b60006137f382613727565b91506137fe83613727565b92508261380e5761380d613848565b5b828206905092915050565b7f4e487b7100000000000000000000000000000000000000000000000000000000600052601160045260246000fd5b7f4e487b7100000000000000000000000000000000000000000000000000000000600052601260045260246000fd5b7f4e487b7100000000000000000000000000000000000000000000000000000000600052603260045260246000fd5b7f4e487b7100000000000000000000000000000000000000000000000000000000600052604160045260246000fd5b600080fd5b600080fd5b600080fd5b600080fd5b600080fd5b600080fd5b600080fd5b600080fd5b600080fd5b6000601f19601f8301169050919050565b60008160c01b9050919050565b61392981613727565b811461393457600080fd5b50565b61394081613731565b811461394b57600080fd5b50565b61395781613745565b811461396257600080fd5b5056fea264697066735822122070442f67891ca65744e2dbeffee39be9e24a2e93b23765c462ca830957ae614164736f6c63430008070033",
  "immutableReferences": {},
  "source": "// SPDX-License-Identifier: MIT\npragma solidity >=0.8.0;\n\ncontract ContractDB {\n    uint testgas; // used by TestGas functions\n    uint256 internal constant PRIME_P = 21888242871839275222246405745257275088548364400416034343698204186575808495617;\n    uint256 internal constant INF = 115792089237316195423570985008687907853269984665640564039457584007913129639935; // used for modAdd\n\n    uint256 constant PRIME_Q = 21888242871839275222246405745257275088696311157297823662689037894645226208583;\n\n    struct G1Point {\n        uint256 X;\n        uint256 Y;\n    }\n    // Encoding of field elements is: X[0] * z + X[1]\n    struct G2Point {\n        uint256[2] X;\n        uint256[2] Y;\n    }\n\n    struct Query {\n        uint8[] eind;\n        uint8[] rind;\n        uint8[] rtype; // 1 [vr,vr]; 2 (vl,vr]; 3 [vl,vr); 4 (vl,vr)\n        uint64[] eval;\n        uint64[] rval;\n    }\n\n    struct VerifySumParam {\n        // SumProof sump;\n        uint256 sum;\n        uint256 a0;\n        uint256 a1;\n        uint256 a0inv; // for saving gas, input the inv\n        G1Point fR;\n        G1Point w1;\n        G1Point w2;\n        // DicItems dic;\n        DicItemE[] itemE;\n        DicItemR[] itemR;\n        uint256[] itemInv;\n        G2Point[] itemWit;\n        // IProof iProof;\n        G1Point[] iset; // G1Point\n        G1Point[] igcd; // G1Point\n        G2Point[] iwit; // G2Point\n    }\n\n    struct DicItemE {\n        uint64 key;\n        uint64 nxt;\n        G1Point value;\n    }\n\n    struct DicItemR {\n        uint64 key;\n        uint64 nxt;\n        G2Point value;\n    }\n\n    // struct DicItems {\n    //     DicItemE[] itemE;\n    //     DicItemR[] itemR;\n    //     uint256[] itemInv;\n    //     G2Point[] itemWit;\n    // }\n\n    // struct IProof {\n    //     G1Point[] iset; // G1Point\n    //     G1Point[] igcd; // G1Point\n    //     G2Point[] iwit; // G2Point\n    // }\n\n    // struct SumProof {\n    //     uint256 sum;s\n    //     uint256 a0;\n    //     uint256 a1;\n    //     uint256 a0inv; // for saving gas, input the inv\n    //     G1Point fR;\n    //     G1Point w1;\n    //     G1Point w2;\n    // }\n\n    G1Point internal G1 = G1Point(1, 2);\n    G1Point internal sG1 =\n        G1Point(\n            659387509072190054499872531157327851974123307391705746989088605302742528024,\n            20230846700664440841635347868950212739976037558458206556816116785749819631898\n        );\n    G2Point internal G2 =\n        G2Point(\n            [\n                11559732032986387107991004021392285783925812861821192530917403151452391805634,\n                10857046999023057135944570762232829481370756359578518086990519993285655852781\n            ],\n            [\n                4082367875863433681332203403145435568316851327593401208105741076214120093531,\n                8495653923123431417604973247489272438418190587263600148770280649306958101930\n            ]\n        );\n    G2Point internal sG2 =\n        G2Point(\n            [\n                13036583401943305728528725764547309024003329541956693774318040152348747598121,\n                12276881524974618347963204355819156766680811359308712062143904989647769252018\n            ],\n            [\n                2188726141281701348289276224237737751177036697763916293382809963867816883720,\n                3596309672727352412249421695858998934225755266543379229855517037447563584325\n            ]\n        );\n\n    G1Point[6] internal digests; // name, bank, addr, value, rate, grade\n\n    constructor() {\n        digests[0].X = uint256(15951140197727074445119937693316174405529173087009701195705266480137303890556);\n        digests[0].Y = uint256(9837468871853556325877590303753686632148266880063898020900862481265786922430);\n        digests[1].X = uint256(4819624951180689431967439292553656652629575862474188011606754124232171981659);\n        digests[1].Y = uint256(5943780203371573012511430230106106588971705926006719111767701022196344949651);\n        digests[2].X = uint256(13977370901538128853417103227842899434850560937959359965642645195362494313162);\n        digests[2].Y = uint256(8085313929396725633079740549220233411653596848243609049352314420457912816548);\n        digests[3].X = uint256(1462198174415527659761713420558039402765030878382463160973829374879927981847);\n        digests[3].Y = uint256(17071411402522037927990888758715215193262000639844498092564040248856348711842);\n        digests[4].X = uint256(8319923958942147694896185760150349500838874672589881301200086050208375576866);\n        digests[4].Y = uint256(13270915921715506622922410738049291351513360430794272418277738539960231500741);\n        digests[5].X = uint256(12325337399494413194197845873321303161897533434305611641143141004189516794724);\n        digests[5].Y = uint256(107937045436142327598318305234089692083842933277196542161046095092569264941);\n    }\n\n    function negate(G1Point memory p) internal pure returns (G1Point memory) {\n        // The prime q in the base field F_q for G1\n        if (p.X == 0 && p.Y == 0) {\n            return G1Point(0, 0);\n        } else {\n            return G1Point(p.X, PRIME_Q - (p.Y % PRIME_Q));\n        }\n    }\n\n    /*\n     * @return r the product of a point on G1 and a scalar, i.e.\n     *         p == p.scalar_mul(1) and p.plus(p) == p.scalar_mul(2) for all\n     *         points p.\n     */\n    function scalar_mul(G1Point memory p, uint256 s) internal view returns (G1Point memory r) {\n        uint256[3] memory input;\n        input[0] = p.X;\n        input[1] = p.Y;\n        input[2] = s;\n        bool success;\n        // solium-disable-next-line security/no-inline-assembly\n        assembly {\n            success := staticcall(sub(gas(), 2000), 7, input, 0x80, r, 0x60)\n        }\n    }\n\n    function plus(G1Point memory p1, G1Point memory p2) internal view returns (G1Point memory r) {\n        uint256[4] memory input;\n        //uint256[] memory input = new uint256[](4);\n        input[0] = p1.X;\n        input[1] = p1.Y;\n        input[2] = p2.X;\n        input[3] = p2.Y;\n        bool success;\n        // solium-disable-next-line security/no-inline-assembly\n        assembly {\n            success := staticcall(sub(gas(), 2000), 6, input, 0xc0, r, 0x60)\n        }\n    }\n\n    function pairingMulti(G1Point[] memory p1, G2Point[] memory p2) internal view returns (bool) {\n        uint inputSize = p1.length * 6;\n        uint256[] memory input = new uint256[](inputSize);\n\n        for (uint256 i = 0; i < p1.length; i++) {\n            uint256 j = i * 6;\n            input[j + 0] = p1[i].X;\n            input[j + 1] = p1[i].Y;\n            input[j + 2] = p2[i].X[0];\n            input[j + 3] = p2[i].X[1];\n            input[j + 4] = p2[i].Y[0];\n            input[j + 5] = p2[i].Y[1];\n        }\n\n        uint256[1] memory out;\n        bool success;\n\n        // solium-disable-next-line security/no-inline-assembly\n        assembly {\n            success := staticcall(sub(gas(), 2000), 8, add(input, 0x20), mul(inputSize, 0x20), out, 0x20)\n            // Use \"invalid\" to make gas estimation work\n        }\n        return out[0] != 0;\n    }\n\n    // ensure that a<PRIME_P, b<PRIME_P, omit check for saving gas\n    // function modAdd(uint256 a, uint256 b) internal pure returns (uint256 r) {\n    //     assembly {\n    //         r := addmod(a, b, PRIME_P)\n    //     }\n    // }\n    // a*b % PRIME_P\n    function modMul(uint256 a, uint256 b) internal pure returns (uint256 r) {\n        assembly {\n            r := mulmod(a, b, PRIME_P)\n        }\n    }\n    function isInv(uint256 a, uint256 b) internal pure returns (bool) {\n        uint256 r;\n        assembly {\n            r := mulmod(a, b, PRIME_P)\n        }\n        return (r == 1);\n    }\n    // do not use modInv, since it is expensive than uploading inv in calldata\n    // function modInv(uint256 a) internal view returns (uint256) {\n    //     bytes memory precompileData = abi.encode(32, 32, 32, a, PRIME_P - 2, PRIME_P);\n    //     (bool ok, bytes memory data) = address(5).staticcall(precompileData);\n    //     require(ok, 'expMod failed');\n    //     return abi.decode(data, (uint256));\n    // }\n\n    // function verifySum(SumProof calldata sump) internal view returns (bool) {\n    //     if (sump.fR.X == 1 && sump.fR.Y == 2) return (sump.sum == 0);\n    //     if (modMul(sump.a0, sump.a0inv) != 1) return false;\n    //     if (modMul(sump.a0inv, sump.a1) != sump.sum) return false;\n    //     // e(w1,sG2) == e(fR-a0*G1, G2)\n    //     // e(w2,sG2) == e(w1-a1*G1, G2)\n    //     // p1: -w1, fR-a0G1, -w2, w1-a1G1\n    //     // p2: sG2, G2, sG2, G2\n    //     // G1Point memory tmp1 = negate(scalar_mul(G1, sump.a0));\n    //     // G1Point memory tmp2 = negate(scalar_mul(G1, sump.a1));\n\n    //     G1Point[] memory p1 = new G1Point[](4);\n    //     G2Point[] memory p2 = new G2Point[](4);\n    //     p1[0] = negate(sump.w1);\n    //     p1[1] = plus(sump.fR, negate(scalar_mul(G1, sump.a0)));\n    //     p1[2] = negate(sump.w2);\n    //     p1[3] = plus(sump.w1, negate(scalar_mul(G1, sump.a1)));\n    //     p2[0] = sG2;\n    //     p2[1] = G2;\n    //     p2[2] = sG2;\n    //     p2[3] = G2;\n\n    //     bool res = pairingMulti(p1, p2);\n\n    //     return res;\n    // }\n\n    function checkItemEInv(DicItemE calldata item, uint256 inv) internal pure returns (bool) {\n        uint256 itemUint = uint256(keccak256(abi.encodePacked(item.key, item.nxt, item.value.X, item.value.Y))) % PRIME_P;\n        return modMul(itemUint, inv) == 1;\n    }\n\n    function checkItemInv(DicItemR calldata item, uint256 inv) internal pure returns (bool) {\n        uint256 itemUint = uint256(\n            keccak256(abi.encodePacked(item.key, item.nxt, item.value.X[1], item.value.X[0], item.value.Y[1], item.value.Y[0]))\n        ) % PRIME_P;\n        return modMul(itemUint, inv) == 1;\n    }\n\n    function VerifyQuery(Query calldata q, VerifySumParam calldata param) public view returns (bool ver, uint flag) {\n        // if (verifySum(sump) == false) return (false, 13);\n\n        uint i;\n        uint offset;\n\n        // verify dic items\n        // each eq query requires one pairings\n        // each range query requires three pairings\n        offset = 4 + q.eind.length * 2 + q.rind.length * 6 + param.iset.length * 3 + 1;\n        G1Point[] memory p1 = new G1Point[](offset);\n        G2Point[] memory p2 = new G2Point[](offset);\n\n        if (param.fR.X == 1 && param.fR.Y == 2) return (param.sum == 0, 111);\n        if (modMul(param.a0, param.a0inv) != 1) return (false, 222);\n        if (modMul(param.a0inv, param.a1) != param.sum) return (false, 333);\n\n        p1[0] = negate(param.w1);\n        p1[1] = plus(param.fR, negate(scalar_mul(G1, param.a0)));\n        p1[2] = negate(param.w2);\n        p1[3] = plus(param.w1, negate(scalar_mul(G1, param.a1)));\n        p2[0] = sG2;\n        p2[1] = G2;\n        p2[2] = sG2;\n        p2[3] = G2;\n\n        // G1Point[] memory p1 = new G1Point[](2);\n        for (i = 0; i < q.eind.length; i++) {\n            // 1. check queryCondition ?= dicItem.Key\n            if (q.eval[i] != param.itemE[i].key) return (false, 1201);\n            // 2. check middle result digest mR\n            if (param.iset[i].X != param.itemE[i].value.X || param.iset[i].Y != param.itemE[i].value.Y) return (false, 1302);\n            // 3. check inverse value\n            if (checkItemEInv(param.itemE[i], param.itemInv[i]) == false) return (false, 14);\n\n            offset = 4 + 2 * i;\n            p1[offset] = negate(plus(scalar_mul(G1, param.itemInv[i]), sG1));\n            p1[offset + 1] = digests[q.eind[i]];\n            p2[offset] = param.itemWit[i];\n            p2[offset + 1] = G2;\n        }\n\n        // range query\n        for (i = 0; i < q.rind.length; i++) {\n            // item1 = dic.itemR[2*i], item2 = dic.itemR[2*i+1]\n\n            // 1. check queryCondition ?= dicItem.Key\n            if (q.rtype[i] == 1) {\n                // [vl,vr]\n                if ((param.itemR[2 * i].key < q.rval[2 * i] && q.rval[2 * i] <= param.itemR[2 * i].nxt) == false) return (false, 1201);\n                if ((param.itemR[2 * i + 1].key <= q.rval[2 * i + 1] && q.rval[2 * i + 1] < param.itemR[2 * i + 1].nxt) == false)\n                    return (false, 1202);\n            } else if (q.rtype[i] == 2) {\n                // (vl,vr]\n                if ((param.itemR[2 * i].key <= q.rval[2 * i] && q.rval[2 * i] < param.itemR[2 * i].nxt) == false) return (false, 1203);\n                if ((param.itemR[2 * i + 1].key <= q.rval[2 * i + 1] && q.rval[2 * i + 1] < param.itemR[2 * i + 1].nxt) == false)\n                    return (false, 1204);\n            } else if (q.rtype[i] == 3) {\n                // [vl,vr)\n                if ((param.itemR[2 * i].key < q.rval[2 * i] && q.rval[2 * i] <= param.itemR[2 * i].nxt) == false) return (false, 1205);\n                if ((param.itemR[2 * i + 1].key < q.rval[2 * i + 1] && q.rval[2 * i + 1] <= param.itemR[2 * i + 1].nxt) == false)\n                    return (false, 1206);\n            } else if (q.rtype[i] == 4) {\n                // [vl,vr)\n                if ((param.itemR[2 * i].key <= q.rval[2 * i] && q.rval[2 * i] < param.itemR[2 * i].nxt) == false) return (false, 1207);\n                if ((param.itemR[2 * i + 1].key < q.rval[2 * i + 1] && q.rval[2 * i + 1] <= param.itemR[2 * i + 1].nxt) == false)\n                    return (false, 1208);\n            } else {\n                return (false, 1209);\n            }\n\n            // 2. check middle result digest mR\n            // e(iProof.iset[i+q.eind.length], dic.itemR[2*i].value)==e(G1,dic.itemR[2*i+1].value)\n            offset = 4 + 2 * q.eind.length + 2 * i;\n            p1[offset] = negate(param.iset[i + q.eind.length]);\n            p1[offset + 1] = G1;\n            p2[offset] = param.itemR[2 * i].value;\n            p2[offset + 1] = param.itemR[2 * i + 1].value;\n\n            // 3. check inverse value\n            if (checkItemInv(param.itemR[2 * i], param.itemInv[q.eind.length + 2 * i]) == false) return (false, 777);\n            if (checkItemInv(param.itemR[2 * i + 1], param.itemInv[q.eind.length + 2 * i + 1]) == false) return (false, 778);\n\n            // 4. pairing(negate(itemDigest), witness, dicDigest, G2) for each item\n            // e(digest[i], G2)==e(sG1+inv[elen+2*i]*G1, w[elen+2*i])\n            // e(digest[i], G2)==e(sG1+inv[elen+2*i+1]*G1, w[elen+2*i+1])\n            offset = 4 + 2 * q.eind.length + 2 * i + 2;\n            p1[offset] = negate(digests[q.rind[i]]);\n            p1[offset + 1] = plus(scalar_mul(G1, param.itemInv[q.eind.length + 2 * i]), sG1);\n            p1[offset + 2] = negate(digests[q.rind[i]]);\n            p1[offset + 3] = plus(scalar_mul(G1, param.itemInv[q.eind.length + 2 * i + 1]), sG1);\n            p2[offset] = G2;\n            p2[offset + 1] = param.itemWit[q.eind.length + 2 * i];\n            p2[offset + 2] = G2;\n            p2[offset + 3] = param.itemWit[q.eind.length + 2 * i + 1];\n        }\n\n        // 5. verify intersection\n        // e(fR, iwit[i]) == e(iset[i], G2)\n        // e(G1,G2) == e(igcd[0], iwit[0]) + e(igcd[1], iwit[1]) + ...\n        // if len(iwit)==0, no need to verify intersection\n        if (param.iset.length > 1) {\n            offset = 4 + q.eind.length * 2 + q.rind.length * 6;\n            for (i = 0; i < param.iset.length; i++) {\n                p1[offset + 2 * i] = negate(param.fR);\n                p1[offset + 2 * i + 1] = param.iset[i];\n                p2[offset + 2 * i] = param.iwit[i];\n                p2[offset + 2 * i + 1] = G2;\n            }\n            offset = offset + 2 * param.iset.length;\n            p1[offset] = negate(G1);\n            p2[offset] = G2;\n            offset += 1;\n            for (i = 0; i < param.iset.length; i++) {\n                p1[offset + i] = param.igcd[i];\n                p2[offset + i] = param.iwit[i];\n            }\n        }\n\n        bool res = pairingMulti(p1, p2);\n        if (res == false) {\n            return (false, 55);\n        }\n        return (true, 15);\n    }\n\n    event TestGas2Result(bool success, uint result);\n\n    function TestGas0() public returns (bool, uint) {\n        testgas = 0;\n        return (true, 0);\n    }\n\n    function TestGas1(Query calldata q, VerifySumParam calldata param) public returns (bool, uint) {\n        testgas = param.sum;\n        return (true, 0);\n    }\n\n    function TestGas2(Query calldata q, VerifySumParam calldata param) public returns (bool ver, uint flag) {\n        (ver, flag) = VerifyQuery(q, param);\n        emit TestGas2Result(ver, flag);\n        if (ver) testgas = param.sum;\n        return (ver, flag);\n    }\n}\n",
  "sourcePath": "/home/ubuntu/contractdb/contract/contracts/ContractDB.sol",
  "compiler": {
    "name": "solc",
    "version": "0.8.7+commit.e28d00a7.Emscripten.clang"
  },
  "schemaVersion": "3.4.16",
  "updatedAt": "2025-02-12T07:54:09.885Z",
  "devdoc": {
    "kind": "dev",
    "methods": {},
    "version": 1
  },
  "userdoc": {
    "kind": "user",
    "methods": {},
    "version": 1
  }
}